{
  "_format": "hh-sol-artifact-1",
  "contractName": "Box",
  "sourceName": "contracts/Box.sol",
  "abi": [
    {
      "inputs": [],
      "name": "ApprovalCallerNotOwnerNorApproved",
      "type": "error"
    },
    {
      "inputs": [],
      "name": "ApprovalQueryForNonexistentToken",
      "type": "error"
    },
    {
      "inputs": [],
      "name": "ApprovalToCurrentOwner",
      "type": "error"
    },
    {
      "inputs": [],
      "name": "ApproveToCaller",
      "type": "error"
    },
    {
      "inputs": [],
      "name": "BalanceQueryForZeroAddress",
      "type": "error"
    },
    {
      "inputs": [],
      "name": "MintToZeroAddress",
      "type": "error"
    },
    {
      "inputs": [],
      "name": "MintZeroQuantity",
      "type": "error"
    },
    {
      "inputs": [],
      "name": "OwnerQueryForNonexistentToken",
      "type": "error"
    },
    {
      "inputs": [],
      "name": "TransferCallerNotOwnerNorApproved",
      "type": "error"
    },
    {
      "inputs": [],
      "name": "TransferFromIncorrectOwner",
      "type": "error"
    },
    {
      "inputs": [],
      "name": "TransferToNonERC721ReceiverImplementer",
      "type": "error"
    },
    {
      "inputs": [],
      "name": "TransferToZeroAddress",
      "type": "error"
    },
    {
      "inputs": [],
      "name": "URIQueryForNonexistentToken",
      "type": "error"
    },
    {
      "anonymous": false,
      "inputs": [
        {
          "indexed": true,
          "internalType": "address",
          "name": "owner",
          "type": "address"
        },
        {
          "indexed": true,
          "internalType": "address",
          "name": "approved",
          "type": "address"
        },
        {
          "indexed": true,
          "internalType": "uint256",
          "name": "tokenId",
          "type": "uint256"
        }
      ],
      "name": "Approval",
      "type": "event"
    },
    {
      "anonymous": false,
      "inputs": [
        {
          "indexed": true,
          "internalType": "address",
          "name": "owner",
          "type": "address"
        },
        {
          "indexed": true,
          "internalType": "address",
          "name": "operator",
          "type": "address"
        },
        {
          "indexed": false,
          "internalType": "bool",
          "name": "approved",
          "type": "bool"
        }
      ],
      "name": "ApprovalForAll",
      "type": "event"
    },
    {
      "anonymous": false,
      "inputs": [
        {
          "indexed": true,
          "internalType": "address",
          "name": "previousOwner",
          "type": "address"
        },
        {
          "indexed": true,
          "internalType": "address",
          "name": "newOwner",
          "type": "address"
        }
      ],
      "name": "OwnershipTransferred",
      "type": "event"
    },
    {
      "anonymous": false,
      "inputs": [
        {
          "indexed": true,
          "internalType": "address",
          "name": "from",
          "type": "address"
        },
        {
          "indexed": true,
          "internalType": "address",
          "name": "to",
          "type": "address"
        },
        {
          "indexed": true,
          "internalType": "uint256",
          "name": "tokenId",
          "type": "uint256"
        }
      ],
      "name": "Transfer",
      "type": "event"
    },
    {
      "inputs": [],
      "name": "MAX_PUBLIC_MINT",
      "outputs": [
        {
          "internalType": "uint256",
          "name": "",
          "type": "uint256"
        }
      ],
      "stateMutability": "view",
      "type": "function"
    },
    {
      "inputs": [],
      "name": "MAX_SUPPLY",
      "outputs": [
        {
          "internalType": "uint256",
          "name": "",
          "type": "uint256"
        }
      ],
      "stateMutability": "view",
      "type": "function"
    },
    {
      "inputs": [],
      "name": "MAX_WHITELIST_MINT",
      "outputs": [
        {
          "internalType": "uint256",
          "name": "",
          "type": "uint256"
        }
      ],
      "stateMutability": "view",
      "type": "function"
    },
    {
      "inputs": [],
      "name": "PUBLIC_SALE_PRICE",
      "outputs": [
        {
          "internalType": "uint256",
          "name": "",
          "type": "uint256"
        }
      ],
      "stateMutability": "view",
      "type": "function"
    },
    {
      "inputs": [],
      "name": "WHITELIST_SALE_PRICE",
      "outputs": [
        {
          "internalType": "uint256",
          "name": "",
          "type": "uint256"
        }
      ],
      "stateMutability": "view",
      "type": "function"
    },
    {
      "inputs": [
        {
          "internalType": "address",
          "name": "to",
          "type": "address"
        },
        {
          "internalType": "uint256",
          "name": "tokenId",
          "type": "uint256"
        }
      ],
      "name": "approve",
      "outputs": [],
      "stateMutability": "nonpayable",
      "type": "function"
    },
    {
      "inputs": [
        {
          "internalType": "address",
          "name": "owner",
          "type": "address"
        }
      ],
      "name": "balanceOf",
      "outputs": [
        {
          "internalType": "uint256",
          "name": "",
          "type": "uint256"
        }
      ],
      "stateMutability": "view",
      "type": "function"
    },
    {
      "inputs": [
        {
          "internalType": "uint256",
          "name": "tokenId",
          "type": "uint256"
        }
      ],
      "name": "getApproved",
      "outputs": [
        {
          "internalType": "address",
          "name": "",
          "type": "address"
        }
      ],
      "stateMutability": "view",
      "type": "function"
    },
    {
      "inputs": [],
      "name": "getMerkleRoot",
      "outputs": [
        {
          "internalType": "bytes32",
          "name": "",
          "type": "bytes32"
        }
      ],
      "stateMutability": "view",
      "type": "function"
    },
    {
      "inputs": [],
      "name": "initialize",
      "outputs": [],
      "stateMutability": "nonpayable",
      "type": "function"
    },
    {
      "inputs": [
        {
          "internalType": "address",
          "name": "owner",
          "type": "address"
        },
        {
          "internalType": "address",
          "name": "operator",
          "type": "address"
        }
      ],
      "name": "isApprovedForAll",
      "outputs": [
        {
          "internalType": "bool",
          "name": "",
          "type": "bool"
        }
      ],
      "stateMutability": "view",
      "type": "function"
    },
    {
      "inputs": [],
      "name": "isRevealed",
      "outputs": [
        {
          "internalType": "bool",
          "name": "",
          "type": "bool"
        }
      ],
      "stateMutability": "view",
      "type": "function"
    },
    {
      "inputs": [
        {
          "internalType": "uint256",
          "name": "_quantity",
          "type": "uint256"
        }
      ],
      "name": "mint",
      "outputs": [],
      "stateMutability": "payable",
      "type": "function"
    },
    {
      "inputs": [],
      "name": "name",
      "outputs": [
        {
          "internalType": "string",
          "name": "",
          "type": "string"
        }
      ],
      "stateMutability": "view",
      "type": "function"
    },
    {
      "inputs": [],
      "name": "owner",
      "outputs": [
        {
          "internalType": "address",
          "name": "",
          "type": "address"
        }
      ],
      "stateMutability": "view",
      "type": "function"
    },
    {
      "inputs": [
        {
          "internalType": "uint256",
          "name": "tokenId",
          "type": "uint256"
        }
      ],
      "name": "ownerOf",
      "outputs": [
        {
          "internalType": "address",
          "name": "",
          "type": "address"
        }
      ],
      "stateMutability": "view",
      "type": "function"
    },
    {
      "inputs": [],
      "name": "pause",
      "outputs": [
        {
          "internalType": "bool",
          "name": "",
          "type": "bool"
        }
      ],
      "stateMutability": "view",
      "type": "function"
    },
    {
      "inputs": [],
      "name": "placeholderTokenUri",
      "outputs": [
        {
          "internalType": "string",
          "name": "",
          "type": "string"
        }
      ],
      "stateMutability": "view",
      "type": "function"
    },
    {
      "inputs": [],
      "name": "publicSale",
      "outputs": [
        {
          "internalType": "bool",
          "name": "",
          "type": "bool"
        }
      ],
      "stateMutability": "view",
      "type": "function"
    },
    {
      "inputs": [],
      "name": "renounceOwnership",
      "outputs": [],
      "stateMutability": "nonpayable",
      "type": "function"
    },
    {
      "inputs": [
        {
          "internalType": "address",
          "name": "from",
          "type": "address"
        },
        {
          "internalType": "address",
          "name": "to",
          "type": "address"
        },
        {
          "internalType": "uint256",
          "name": "tokenId",
          "type": "uint256"
        }
      ],
      "name": "safeTransferFrom",
      "outputs": [],
      "stateMutability": "nonpayable",
      "type": "function"
    },
    {
      "inputs": [
        {
          "internalType": "address",
          "name": "from",
          "type": "address"
        },
        {
          "internalType": "address",
          "name": "to",
          "type": "address"
        },
        {
          "internalType": "uint256",
          "name": "tokenId",
          "type": "uint256"
        },
        {
          "internalType": "bytes",
          "name": "_data",
          "type": "bytes"
        }
      ],
      "name": "safeTransferFrom",
      "outputs": [],
      "stateMutability": "nonpayable",
      "type": "function"
    },
    {
      "inputs": [
        {
          "internalType": "address",
          "name": "operator",
          "type": "address"
        },
        {
          "internalType": "bool",
          "name": "approved",
          "type": "bool"
        }
      ],
      "name": "setApprovalForAll",
      "outputs": [],
      "stateMutability": "nonpayable",
      "type": "function"
    },
    {
      "inputs": [
        {
          "internalType": "bytes32",
          "name": "_merkleRoot",
          "type": "bytes32"
        }
      ],
      "name": "setMerkleRoot",
      "outputs": [],
      "stateMutability": "nonpayable",
      "type": "function"
    },
    {
      "inputs": [
        {
          "internalType": "string",
          "name": "_placeholderTokenUri",
          "type": "string"
        }
      ],
      "name": "setPlaceHolderUri",
      "outputs": [],
      "stateMutability": "nonpayable",
      "type": "function"
    },
    {
      "inputs": [
        {
          "internalType": "string",
          "name": "_baseTokenUri",
          "type": "string"
        }
      ],
      "name": "setTokenUri",
      "outputs": [],
      "stateMutability": "nonpayable",
      "type": "function"
    },
    {
      "inputs": [
        {
          "internalType": "bytes4",
          "name": "interfaceId",
          "type": "bytes4"
        }
      ],
      "name": "supportsInterface",
      "outputs": [
        {
          "internalType": "bool",
          "name": "",
          "type": "bool"
        }
      ],
      "stateMutability": "view",
      "type": "function"
    },
    {
      "inputs": [],
      "name": "symbol",
      "outputs": [
        {
          "internalType": "string",
          "name": "",
          "type": "string"
        }
      ],
      "stateMutability": "view",
      "type": "function"
    },
    {
      "inputs": [],
      "name": "togglePause",
      "outputs": [],
      "stateMutability": "nonpayable",
      "type": "function"
    },
    {
      "inputs": [],
      "name": "togglePublicSale",
      "outputs": [],
      "stateMutability": "nonpayable",
      "type": "function"
    },
    {
      "inputs": [],
      "name": "toggleReveal",
      "outputs": [],
      "stateMutability": "nonpayable",
      "type": "function"
    },
    {
      "inputs": [],
      "name": "toggleWhiteListSale",
      "outputs": [],
      "stateMutability": "nonpayable",
      "type": "function"
    },
    {
      "inputs": [
        {
          "internalType": "uint256",
          "name": "tokenId",
          "type": "uint256"
        }
      ],
      "name": "tokenURI",
      "outputs": [
        {
          "internalType": "string",
          "name": "",
          "type": "string"
        }
      ],
      "stateMutability": "view",
      "type": "function"
    },
    {
      "inputs": [
        {
          "internalType": "address",
          "name": "",
          "type": "address"
        }
      ],
      "name": "totalPublicMint",
      "outputs": [
        {
          "internalType": "uint256",
          "name": "",
          "type": "uint256"
        }
      ],
      "stateMutability": "view",
      "type": "function"
    },
    {
      "inputs": [],
      "name": "totalSupply",
      "outputs": [
        {
          "internalType": "uint256",
          "name": "",
          "type": "uint256"
        }
      ],
      "stateMutability": "view",
      "type": "function"
    },
    {
      "inputs": [
        {
          "internalType": "address",
          "name": "",
          "type": "address"
        }
      ],
      "name": "totalWhitelistMint",
      "outputs": [
        {
          "internalType": "uint256",
          "name": "",
          "type": "uint256"
        }
      ],
      "stateMutability": "view",
      "type": "function"
    },
    {
      "inputs": [
        {
          "internalType": "address",
          "name": "from",
          "type": "address"
        },
        {
          "internalType": "address",
          "name": "to",
          "type": "address"
        },
        {
          "internalType": "uint256",
          "name": "tokenId",
          "type": "uint256"
        }
      ],
      "name": "transferFrom",
      "outputs": [],
      "stateMutability": "nonpayable",
      "type": "function"
    },
    {
      "inputs": [
        {
          "internalType": "address",
          "name": "newOwner",
          "type": "address"
        }
      ],
      "name": "transferOwnership",
      "outputs": [],
      "stateMutability": "nonpayable",
      "type": "function"
    },
    {
      "inputs": [],
      "name": "whiteListSale",
      "outputs": [
        {
          "internalType": "bool",
          "name": "",
          "type": "bool"
        }
      ],
      "stateMutability": "view",
      "type": "function"
    },
    {
      "inputs": [
        {
          "internalType": "bytes32[]",
          "name": "_merkleProof",
          "type": "bytes32[]"
        },
        {
          "internalType": "uint256",
          "name": "_quantity",
          "type": "uint256"
        }
      ],
      "name": "whitelistMint",
      "outputs": [],
      "stateMutability": "payable",
      "type": "function"
    },
    {
      "inputs": [],
      "name": "withdraw",
      "outputs": [],
      "stateMutability": "nonpayable",
      "type": "function"
    }
  ],
  "bytecode": "0x608060405234801561001057600080fd5b5061469e806100206000396000f3fe6080604052600436106102465760003560e01c806365f1309711610139578063a0712d68116100b6578063c08dfd3c1161007a578063c08dfd3c14610806578063c4ae316814610831578063c87b56dd14610848578063e222c7f914610885578063e985e9c51461089c578063f2fde38b146108d957610246565b8063a0712d6814610744578063a22cb46514610760578063b0962c5314610789578063b88d4fde146107b2578063bc912e1a146107db57610246565b80638456cb59116100fd5780638456cb591461068157806386a173ee146106ac5780638bb64a8c146106d75780638da5cb5b146106ee57806395d89b411461071957610246565b806365f13097146105c257806370a08231146105ed578063715018a61461062a5780637cb64759146106415780638129fc1c1461066a57610246565b80632904e6d9116101c7578063495906571161018b57806349590657146104ed5780634cf5f7a41461051857806354214f69146105435780635b8ad4291461056e5780636352211e1461058557610246565b80632904e6d91461043b57806332cb6b0c1461045757806333bc1c5c146104825780633ccfd60b146104ad57806342842e0e146104c457610246565b8063081812fc1161020e578063081812fc14610344578063095ea7b31461038157806318160ddd146103aa5780631c16521c146103d557806323b872dd1461041257610246565b806301ffc9a71461024b5780630345e3cb146102885780630675b7c6146102c557806306fdde03146102ee57806307e89ec014610319575b600080fd5b34801561025757600080fd5b50610272600480360381019061026d9190613715565b610902565b60405161027f9190613b85565b60405180910390f35b34801561029457600080fd5b506102af60048036038101906102aa91906134f1565b6109e4565b6040516102bc9190613d9d565b60405180910390f35b3480156102d157600080fd5b506102ec60048036038101906102e79190613767565b6109fc565b005b3480156102fa57600080fd5b50610303610a92565b6040516103109190613bbb565b60405180910390f35b34801561032557600080fd5b5061032e610b24565b60405161033b9190613d9d565b60405180910390f35b34801561035057600080fd5b5061036b600480360381019061036691906137a8565b610b2f565b6040516103789190613b1e565b60405180910390f35b34801561038d57600080fd5b506103a860048036038101906103a3919061365c565b610bab565b005b3480156103b657600080fd5b506103bf610cb6565b6040516103cc9190613d9d565b60405180910390f35b3480156103e157600080fd5b506103fc60048036038101906103f791906134f1565b610cc0565b6040516104099190613d9d565b60405180910390f35b34801561041e57600080fd5b5061043960048036038101906104349190613556565b610cd8565b005b61045560048036038101906104509190613698565b610ce8565b005b34801561046357600080fd5b5061046c610fbb565b6040516104799190613d9d565b60405180910390f35b34801561048e57600080fd5b50610497610fc1565b6040516104a49190613b85565b60405180910390f35b3480156104b957600080fd5b506104c2610fd4565b005b3480156104d057600080fd5b506104eb60048036038101906104e69190613556565b611099565b005b3480156104f957600080fd5b506105026110b9565b60405161050f9190613ba0565b60405180910390f35b34801561052457600080fd5b5061052d6110c3565b60405161053a9190613bbb565b60405180910390f35b34801561054f57600080fd5b50610558611151565b6040516105659190613b85565b60405180910390f35b34801561057a57600080fd5b50610583611164565b005b34801561059157600080fd5b506105ac60048036038101906105a791906137a8565b61120c565b6040516105b99190613b1e565b60405180910390f35b3480156105ce57600080fd5b506105d7611222565b6040516105e49190613d9d565b60405180910390f35b3480156105f957600080fd5b50610614600480360381019061060f91906134f1565b611227565b6040516106219190613d9d565b60405180910390f35b34801561063657600080fd5b5061063f6112f7565b005b34801561064d57600080fd5b50610668600480360381019061066391906136ec565b61137f565b005b34801561067657600080fd5b5061067f611405565b005b34801561068d57600080fd5b50610696611565565b6040516106a39190613b85565b60405180910390f35b3480156106b857600080fd5b506106c1611578565b6040516106ce9190613b85565b60405180910390f35b3480156106e357600080fd5b506106ec61158b565b005b3480156106fa57600080fd5b50610703611633565b6040516107109190613b1e565b60405180910390f35b34801561072557600080fd5b5061072e61165d565b60405161073b9190613bbb565b60405180910390f35b61075e600480360381019061075991906137a8565b6116ef565b005b34801561076c57600080fd5b5061078760048036038101906107829190613620565b611949565b005b34801561079557600080fd5b506107b060048036038101906107ab9190613767565b611ac1565b005b3480156107be57600080fd5b506107d960048036038101906107d491906135a5565b611b57565b005b3480156107e757600080fd5b506107f0611baa565b6040516107fd9190613d9d565b60405180910390f35b34801561081257600080fd5b5061081b611bb5565b6040516108289190613d9d565b60405180910390f35b34801561083d57600080fd5b50610846611bba565b005b34801561085457600080fd5b5061086f600480360381019061086a91906137a8565b611c62565b60405161087c9190613bbb565b60405180910390f35b34801561089157600080fd5b5061089a611d01565b005b3480156108a857600080fd5b506108c360048036038101906108be919061351a565b611da9565b6040516108d09190613b85565b60405180910390f35b3480156108e557600080fd5b5061090060048036038101906108fb91906134f1565b611e3d565b005b60007f80ac58cd000000000000000000000000000000000000000000000000000000007bffffffffffffffffffffffffffffffffffffffffffffffffffffffff1916827bffffffffffffffffffffffffffffffffffffffffffffffffffffffff191614806109cd57507f5b5e139f000000000000000000000000000000000000000000000000000000007bffffffffffffffffffffffffffffffffffffffffffffffffffffffff1916827bffffffffffffffffffffffffffffffffffffffffffffffffffffffff1916145b806109dd57506109dc82611f35565b5b9050919050565b60a36020528060005260406000206000915090505481565b610a04611f9f565b73ffffffffffffffffffffffffffffffffffffffff16610a22611633565b73ffffffffffffffffffffffffffffffffffffffff1614610a78576040517f08c379a0000000000000000000000000000000000000000000000000000000008152600401610a6f90613cfd565b60405180910390fd5b80609e9080519060200190610a8e929190613230565b5050565b606060668054610aa190614083565b80601f0160208091040260200160405190810160405280929190818152602001828054610acd90614083565b8015610b1a5780601f10610aef57610100808354040283529160200191610b1a565b820191906000526020600020905b815481529060010190602001808311610afd57829003601f168201915b5050505050905090565b661ff973cafa800081565b6000610b3a82611fa7565b610b70576040517fcf4700e400000000000000000000000000000000000000000000000000000000815260040160405180910390fd5b606a600083815260200190815260200160002060009054906101000a900473ffffffffffffffffffffffffffffffffffffffff169050919050565b6000610bb68261120c565b90508073ffffffffffffffffffffffffffffffffffffffff168373ffffffffffffffffffffffffffffffffffffffff161415610c1e576040517f943f7b8c00000000000000000000000000000000000000000000000000000000815260040160405180910390fd5b8073ffffffffffffffffffffffffffffffffffffffff16610c3d611f9f565b73ffffffffffffffffffffffffffffffffffffffff1614158015610c6f5750610c6d81610c68611f9f565b611da9565b155b15610ca6576040517fcfb3b94200000000000000000000000000000000000000000000000000000000815260040160405180910390fd5b610cb1838383611fb5565b505050565b6000606554905090565b60a26020528060005260406000206000915090505481565b610ce3838383612067565b505050565b3373ffffffffffffffffffffffffffffffffffffffff163273ffffffffffffffffffffffffffffffffffffffff1614610d56576040517f08c379a0000000000000000000000000000000000000000000000000000000008152600401610d4d90613c5d565b60405180910390fd5b60a060029054906101000a900460ff16610da5576040517f08c379a0000000000000000000000000000000000000000000000000000000008152600401610d9c90613cdd565b60405180910390fd5b611e6181610db1610cb6565b610dbb9190613eae565b1115610dfc576040517f08c379a0000000000000000000000000000000000000000000000000000000008152600401610df390613c9d565b60405180910390fd5b60038160a360003373ffffffffffffffffffffffffffffffffffffffff1673ffffffffffffffffffffffffffffffffffffffff16815260200190815260200160002054610e499190613eae565b1115610e8a576040517f08c379a0000000000000000000000000000000000000000000000000000000008152600401610e8190613c3d565b60405180910390fd5b8066071afd498d0000610e9d9190613f35565b341015610edf576040517f08c379a0000000000000000000000000000000000000000000000000000000008152600401610ed690613d5d565b60405180910390fd5b600033604051602001610ef29190613ad4565b604051602081830303815290604052805190602001209050610f178360a15483612558565b610f56576040517f08c379a0000000000000000000000000000000000000000000000000000000008152600401610f4d90613cbd565b60405180910390fd5b8160a360003373ffffffffffffffffffffffffffffffffffffffff1673ffffffffffffffffffffffffffffffffffffffff1681526020019081526020016000206000828254610fa59190613eae565b92505081905550610fb6338361256f565b505050565b611e6181565b60a060019054906101000a900460ff1681565b610fdc611f9f565b73ffffffffffffffffffffffffffffffffffffffff16610ffa611633565b73ffffffffffffffffffffffffffffffffffffffff1614611050576040517f08c379a000000000000000000000000000000000000000000000000000000000815260040161104790613cfd565b60405180910390fd5b3373ffffffffffffffffffffffffffffffffffffffff166108fc479081150290604051600060405180830381858888f19350505050158015611096573d6000803e3d6000fd5b50565b6110b483838360405180602001604052806000815250611b57565b505050565b600060a154905090565b609f80546110d090614083565b80601f01602080910402602001604051908101604052809291908181526020018280546110fc90614083565b80156111495780601f1061111e57610100808354040283529160200191611149565b820191906000526020600020905b81548152906001019060200180831161112c57829003601f168201915b505050505081565b60a060009054906101000a900460ff1681565b61116c611f9f565b73ffffffffffffffffffffffffffffffffffffffff1661118a611633565b73ffffffffffffffffffffffffffffffffffffffff16146111e0576040517f08c379a00000000000000000000000000000000000000000000000000000000081526004016111d790613cfd565b60405180910390fd5b60a060009054906101000a900460ff161560a060006101000a81548160ff021916908315150217905550565b60006112178261258d565b600001519050919050565b600a81565b60008073ffffffffffffffffffffffffffffffffffffffff168273ffffffffffffffffffffffffffffffffffffffff16141561128f576040517f8f4eb60400000000000000000000000000000000000000000000000000000000815260040160405180910390fd5b606960008373ffffffffffffffffffffffffffffffffffffffff1673ffffffffffffffffffffffffffffffffffffffff16815260200190815260200160002060000160009054906101000a900467ffffffffffffffff1667ffffffffffffffff169050919050565b6112ff611f9f565b73ffffffffffffffffffffffffffffffffffffffff1661131d611633565b73ffffffffffffffffffffffffffffffffffffffff1614611373576040517f08c379a000000000000000000000000000000000000000000000000000000000815260040161136a90613cfd565b60405180910390fd5b61137d60006127c9565b565b611387611f9f565b73ffffffffffffffffffffffffffffffffffffffff166113a5611633565b73ffffffffffffffffffffffffffffffffffffffff16146113fb576040517f08c379a00000000000000000000000000000000000000000000000000000000081526004016113f290613cfd565b60405180910390fd5b8060a18190555050565b600060019054906101000a900460ff1661142d5760008054906101000a900460ff1615611436565b61143561288f565b5b611475576040517f08c379a000000000000000000000000000000000000000000000000000000000815260040161146c90613c7d565b60405180910390fd5b60008060019054906101000a900460ff1615905080156114c5576001600060016101000a81548160ff02191690831515021790555060016000806101000a81548160ff0219169083151502179055505b6115396040518060400160405280600381526020017f426f7800000000000000000000000000000000000000000000000000000000008152506040518060400160405280600381526020017f424f5800000000000000000000000000000000000000000000000000000000008152506128a0565b6115416128fd565b80156115625760008060016101000a81548160ff0219169083151502179055505b50565b60a060039054906101000a900460ff1681565b60a060029054906101000a900460ff1681565b611593611f9f565b73ffffffffffffffffffffffffffffffffffffffff166115b1611633565b73ffffffffffffffffffffffffffffffffffffffff1614611607576040517f08c379a00000000000000000000000000000000000000000000000000000000081526004016115fe90613cfd565b60405180910390fd5b60a060029054906101000a900460ff161560a060026101000a81548160ff021916908315150217905550565b6000606c60009054906101000a900473ffffffffffffffffffffffffffffffffffffffff16905090565b60606067805461166c90614083565b80601f016020809104026020016040519081016040528092919081815260200182805461169890614083565b80156116e55780601f106116ba576101008083540402835291602001916116e5565b820191906000526020600020905b8154815290600101906020018083116116c857829003601f168201915b5050505050905090565b3373ffffffffffffffffffffffffffffffffffffffff163273ffffffffffffffffffffffffffffffffffffffff161461175d576040517f08c379a000000000000000000000000000000000000000000000000000000000815260040161175490613c5d565b60405180910390fd5b60a060019054906101000a900460ff166117ac576040517f08c379a00000000000000000000000000000000000000000000000000000000081526004016117a390613bdd565b60405180910390fd5b611e61816117b8610cb6565b6117c29190613eae565b1115611803576040517f08c379a00000000000000000000000000000000000000000000000000000000081526004016117fa90613d7d565b60405180910390fd5b600a8160a260003373ffffffffffffffffffffffffffffffffffffffff1673ffffffffffffffffffffffffffffffffffffffff168152602001908152602001600020546118509190613eae565b1115611891576040517f08c379a000000000000000000000000000000000000000000000000000000000815260040161188890613c1d565b60405180910390fd5b80661ff973cafa80006118a49190613f35565b3410156118e6576040517f08c379a00000000000000000000000000000000000000000000000000000000081526004016118dd90613d3d565b60405180910390fd5b8060a260003373ffffffffffffffffffffffffffffffffffffffff1673ffffffffffffffffffffffffffffffffffffffff16815260200190815260200160002060008282546119359190613eae565b92505081905550611946338261256f565b50565b611951611f9f565b73ffffffffffffffffffffffffffffffffffffffff168273ffffffffffffffffffffffffffffffffffffffff1614156119b6576040517fb06307db00000000000000000000000000000000000000000000000000000000815260040160405180910390fd5b80606b60006119c3611f9f565b73ffffffffffffffffffffffffffffffffffffffff1673ffffffffffffffffffffffffffffffffffffffff16815260200190815260200160002060008473ffffffffffffffffffffffffffffffffffffffff1673ffffffffffffffffffffffffffffffffffffffff16815260200190815260200160002060006101000a81548160ff0219169083151502179055508173ffffffffffffffffffffffffffffffffffffffff16611a70611f9f565b73ffffffffffffffffffffffffffffffffffffffff167f17307eab39ab6107e8899845ad3d59bd9653f200f220920489ca2b5937696c3183604051611ab59190613b85565b60405180910390a35050565b611ac9611f9f565b73ffffffffffffffffffffffffffffffffffffffff16611ae7611633565b73ffffffffffffffffffffffffffffffffffffffff1614611b3d576040517f08c379a0000000000000000000000000000000000000000000000000000000008152600401611b3490613cfd565b60405180910390fd5b80609f9080519060200190611b53929190613230565b5050565b611b62848484612067565b611b6e84848484612956565b611ba4576040517fd1a57ed600000000000000000000000000000000000000000000000000000000815260040160405180910390fd5b50505050565b66071afd498d000081565b600381565b611bc2611f9f565b73ffffffffffffffffffffffffffffffffffffffff16611be0611633565b73ffffffffffffffffffffffffffffffffffffffff1614611c36576040517f08c379a0000000000000000000000000000000000000000000000000000000008152600401611c2d90613cfd565b60405180910390fd5b60a060039054906101000a900460ff161560a060036101000a81548160ff021916908315150217905550565b6060611c6d82611fa7565b611ca3576040517fa14c4b5000000000000000000000000000000000000000000000000000000000815260040160405180910390fd5b6000611cad612ae4565b9050600081511415611cce5760405180602001604052806000815250611cf9565b80611cd884612b76565b604051602001611ce9929190613aef565b6040516020818303038152906040525b915050919050565b611d09611f9f565b73ffffffffffffffffffffffffffffffffffffffff16611d27611633565b73ffffffffffffffffffffffffffffffffffffffff1614611d7d576040517f08c379a0000000000000000000000000000000000000000000000000000000008152600401611d7490613cfd565b60405180910390fd5b60a060019054906101000a900460ff161560a060016101000a81548160ff021916908315150217905550565b6000606b60008473ffffffffffffffffffffffffffffffffffffffff1673ffffffffffffffffffffffffffffffffffffffff16815260200190815260200160002060008373ffffffffffffffffffffffffffffffffffffffff1673ffffffffffffffffffffffffffffffffffffffff16815260200190815260200160002060009054906101000a900460ff16905092915050565b611e45611f9f565b73ffffffffffffffffffffffffffffffffffffffff16611e63611633565b73ffffffffffffffffffffffffffffffffffffffff1614611eb9576040517f08c379a0000000000000000000000000000000000000000000000000000000008152600401611eb090613cfd565b60405180910390fd5b600073ffffffffffffffffffffffffffffffffffffffff168173ffffffffffffffffffffffffffffffffffffffff161415611f29576040517f08c379a0000000000000000000000000000000000000000000000000000000008152600401611f2090613bfd565b60405180910390fd5b611f32816127c9565b50565b60007f01ffc9a7000000000000000000000000000000000000000000000000000000007bffffffffffffffffffffffffffffffffffffffffffffffffffffffff1916827bffffffffffffffffffffffffffffffffffffffffffffffffffffffff1916149050919050565b600033905090565b600060655482109050919050565b82606a600084815260200190815260200160002060006101000a81548173ffffffffffffffffffffffffffffffffffffffff021916908373ffffffffffffffffffffffffffffffffffffffff160217905550818373ffffffffffffffffffffffffffffffffffffffff168273ffffffffffffffffffffffffffffffffffffffff167f8c5be1e5ebec7d5bd14f71427d1e84f3dd0314c0f7b2291e5b200ac8c7c3b92560405160405180910390a4505050565b60006120728261258d565b90506000816000015173ffffffffffffffffffffffffffffffffffffffff16612099611f9f565b73ffffffffffffffffffffffffffffffffffffffff1614806120cc57506120cb82600001516120c6611f9f565b611da9565b5b8061211157506120da611f9f565b73ffffffffffffffffffffffffffffffffffffffff166120f984610b2f565b73ffffffffffffffffffffffffffffffffffffffff16145b90508061214a576040517f59c896be00000000000000000000000000000000000000000000000000000000815260040160405180910390fd5b8473ffffffffffffffffffffffffffffffffffffffff16826000015173ffffffffffffffffffffffffffffffffffffffff16146121b3576040517fa114810000000000000000000000000000000000000000000000000000000000815260040160405180910390fd5b600073ffffffffffffffffffffffffffffffffffffffff168473ffffffffffffffffffffffffffffffffffffffff16141561221a576040517fea553b3400000000000000000000000000000000000000000000000000000000815260040160405180910390fd5b6122278585856001612d23565b6122376000848460000151611fb5565b6001606960008773ffffffffffffffffffffffffffffffffffffffff1673ffffffffffffffffffffffffffffffffffffffff16815260200190815260200160002060000160008282829054906101000a900467ffffffffffffffff160392506101000a81548167ffffffffffffffff021916908367ffffffffffffffff1602179055506001606960008673ffffffffffffffffffffffffffffffffffffffff1673ffffffffffffffffffffffffffffffffffffffff16815260200190815260200160002060000160008282829054906101000a900467ffffffffffffffff160192506101000a81548167ffffffffffffffff021916908367ffffffffffffffff160217905550836068600085815260200190815260200160002060000160006101000a81548173ffffffffffffffffffffffffffffffffffffffff021916908373ffffffffffffffffffffffffffffffffffffffff160217905550426068600085815260200190815260200160002060000160146101000a81548167ffffffffffffffff021916908367ffffffffffffffff1602179055506000600184019050600073ffffffffffffffffffffffffffffffffffffffff166068600083815260200190815260200160002060000160009054906101000a900473ffffffffffffffffffffffffffffffffffffffff1673ffffffffffffffffffffffffffffffffffffffff1614156124e8576065548110156124e75782600001516068600083815260200190815260200160002060000160006101000a81548173ffffffffffffffffffffffffffffffffffffffff021916908373ffffffffffffffffffffffffffffffffffffffff16021790555082602001516068600083815260200190815260200160002060000160146101000a81548167ffffffffffffffff021916908367ffffffffffffffff1602179055505b5b50828473ffffffffffffffffffffffffffffffffffffffff168673ffffffffffffffffffffffffffffffffffffffff167fddf252ad1be2c89b69c2b068fc378daa952ba7f163c4a11628f55a4df523b3ef60405160405180910390a46125518585856001612d29565b5050505050565b6000826125658584612d2f565b1490509392505050565b612589828260405180602001604052806000815250612dca565b5050565b6125956132b6565b6000829050606554811015612792576000606860008381526020019081526020016000206040518060400160405290816000820160009054906101000a900473ffffffffffffffffffffffffffffffffffffffff1673ffffffffffffffffffffffffffffffffffffffff1673ffffffffffffffffffffffffffffffffffffffff1681526020016000820160149054906101000a900467ffffffffffffffff1667ffffffffffffffff1667ffffffffffffffff16815250509050600073ffffffffffffffffffffffffffffffffffffffff16816000015173ffffffffffffffffffffffffffffffffffffffff16146126905780925050506127c4565b5b60011561279057818060019003925050606860008381526020019081526020016000206040518060400160405290816000820160009054906101000a900473ffffffffffffffffffffffffffffffffffffffff1673ffffffffffffffffffffffffffffffffffffffff1673ffffffffffffffffffffffffffffffffffffffff1681526020016000820160149054906101000a900467ffffffffffffffff1667ffffffffffffffff1667ffffffffffffffff16815250509050600073ffffffffffffffffffffffffffffffffffffffff16816000015173ffffffffffffffffffffffffffffffffffffffff161461278b5780925050506127c4565b612691565b505b6040517fdf2d9b4200000000000000000000000000000000000000000000000000000000815260040160405180910390fd5b919050565b6000606c60009054906101000a900473ffffffffffffffffffffffffffffffffffffffff16905081606c60006101000a81548173ffffffffffffffffffffffffffffffffffffffff021916908373ffffffffffffffffffffffffffffffffffffffff1602179055508173ffffffffffffffffffffffffffffffffffffffff168173ffffffffffffffffffffffffffffffffffffffff167f8be0079c531659141344cd1fd0a4f28419497f9722a3daafe3b4186f6b6457e060405160405180910390a35050565b600061289a30612ddc565b15905090565b600060019054906101000a900460ff166128ef576040517f08c379a00000000000000000000000000000000000000000000000000000000081526004016128e690613d1d565b60405180910390fd5b6128f98282612dff565b5050565b600060019054906101000a900460ff1661294c576040517f08c379a000000000000000000000000000000000000000000000000000000000815260040161294390613d1d565b60405180910390fd5b612954612e80565b565b60006129778473ffffffffffffffffffffffffffffffffffffffff16612ddc565b15612ad7578373ffffffffffffffffffffffffffffffffffffffff1663150b7a026129a0611f9f565b8786866040518563ffffffff1660e01b81526004016129c29493929190613b39565b602060405180830381600087803b1580156129dc57600080fd5b505af1925050508015612a0d57506040513d601f19601f82011682018060405250810190612a0a919061373e565b60015b612a87573d8060008114612a3d576040519150601f19603f3d011682016040523d82523d6000602084013e612a42565b606091505b50600081511415612a7f576040517fd1a57ed600000000000000000000000000000000000000000000000000000000815260040160405180910390fd5b805181602001fd5b63150b7a0260e01b7bffffffffffffffffffffffffffffffffffffffffffffffffffffffff1916817bffffffffffffffffffffffffffffffffffffffffffffffffffffffff191614915050612adc565b600190505b949350505050565b6060609e8054612af390614083565b80601f0160208091040260200160405190810160405280929190818152602001828054612b1f90614083565b8015612b6c5780601f10612b4157610100808354040283529160200191612b6c565b820191906000526020600020905b815481529060010190602001808311612b4f57829003601f168201915b5050505050905090565b60606000821415612bbe576040518060400160405280600181526020017f30000000000000000000000000000000000000000000000000000000000000008152509050612d1e565b600082905060005b60008214612bf0578080612bd9906140e6565b915050600a82612be99190613f04565b9150612bc6565b60008167ffffffffffffffff811115612c32577f4e487b7100000000000000000000000000000000000000000000000000000000600052604160045260246000fd5b6040519080825280601f01601f191660200182016040528015612c645781602001600182028036833780820191505090505b5090505b60008514612d1757600182612c7d9190613f8f565b9150600a85612c8c9190614153565b6030612c989190613eae565b60f81b818381518110612cd4577f4e487b7100000000000000000000000000000000000000000000000000000000600052603260045260246000fd5b60200101907effffffffffffffffffffffffffffffffffffffffffffffffffffffffffffff1916908160001a905350600a85612d109190613f04565b9450612c68565b8093505050505b919050565b50505050565b50505050565b60008082905060005b8451811015612dbf576000858281518110612d7c577f4e487b7100000000000000000000000000000000000000000000000000000000600052603260045260246000fd5b60200260200101519050808311612d9e57612d978382612ee1565b9250612dab565b612da88184612ee1565b92505b508080612db7906140e6565b915050612d38565b508091505092915050565b612dd78383836001612ef8565b505050565b6000808273ffffffffffffffffffffffffffffffffffffffff163b119050919050565b600060019054906101000a900460ff16612e4e576040517f08c379a0000000000000000000000000000000000000000000000000000000008152600401612e4590613d1d565b60405180910390fd5b8160669080519060200190612e64929190613230565b508060679080519060200190612e7b929190613230565b505050565b600060019054906101000a900460ff16612ecf576040517f08c379a0000000000000000000000000000000000000000000000000000000008152600401612ec690613d1d565b60405180910390fd5b612edf612eda611f9f565b6127c9565b565b600082600052816020526040600020905092915050565b60006065549050600073ffffffffffffffffffffffffffffffffffffffff168573ffffffffffffffffffffffffffffffffffffffff161415612f66576040517f2e07630000000000000000000000000000000000000000000000000000000000815260040160405180910390fd5b6000841415612fa1576040517fb562e8dd00000000000000000000000000000000000000000000000000000000815260040160405180910390fd5b612fae6000868387612d23565b83606960008773ffffffffffffffffffffffffffffffffffffffff1673ffffffffffffffffffffffffffffffffffffffff16815260200190815260200160002060000160008282829054906101000a900467ffffffffffffffff160192506101000a81548167ffffffffffffffff021916908367ffffffffffffffff16021790555083606960008773ffffffffffffffffffffffffffffffffffffffff1673ffffffffffffffffffffffffffffffffffffffff16815260200190815260200160002060000160088282829054906101000a900467ffffffffffffffff160192506101000a81548167ffffffffffffffff021916908367ffffffffffffffff160217905550846068600083815260200190815260200160002060000160006101000a81548173ffffffffffffffffffffffffffffffffffffffff021916908373ffffffffffffffffffffffffffffffffffffffff160217905550426068600083815260200190815260200160002060000160146101000a81548167ffffffffffffffff021916908367ffffffffffffffff160217905550600081905060005b8581101561321357818773ffffffffffffffffffffffffffffffffffffffff16600073ffffffffffffffffffffffffffffffffffffffff167fddf252ad1be2c89b69c2b068fc378daa952ba7f163c4a11628f55a4df523b3ef60405160405180910390a48380156131c757506131c56000888488612956565b155b156131fe576040517fd1a57ed600000000000000000000000000000000000000000000000000000000815260040160405180910390fd5b8180600101925050808060010191505061314c565b5080606581905550506132296000868387612d29565b5050505050565b82805461323c90614083565b90600052602060002090601f01602090048101928261325e57600085556132a5565b82601f1061327757805160ff19168380011785556132a5565b828001600101855582156132a5579182015b828111156132a4578251825591602001919060010190613289565b5b5090506132b291906132f0565b5090565b6040518060400160405280600073ffffffffffffffffffffffffffffffffffffffff168152602001600067ffffffffffffffff1681525090565b5b808211156133095760008160009055506001016132f1565b5090565b600061332061331b84613ddd565b613db8565b9050808382526020820190508285602086028201111561333f57600080fd5b60005b8581101561336f57816133558882613449565b845260208401935060208301925050600181019050613342565b5050509392505050565b600061338c61338784613e09565b613db8565b9050828152602081018484840111156133a457600080fd5b6133af848285614041565b509392505050565b60006133ca6133c584613e3a565b613db8565b9050828152602081018484840111156133e257600080fd5b6133ed848285614041565b509392505050565b600081359050613404816145f5565b92915050565b600082601f83011261341b57600080fd5b813561342b84826020860161330d565b91505092915050565b6000813590506134438161460c565b92915050565b60008135905061345881614623565b92915050565b60008135905061346d8161463a565b92915050565b6000815190506134828161463a565b92915050565b600082601f83011261349957600080fd5b81356134a9848260208601613379565b91505092915050565b600082601f8301126134c357600080fd5b81356134d38482602086016133b7565b91505092915050565b6000813590506134eb81614651565b92915050565b60006020828403121561350357600080fd5b6000613511848285016133f5565b91505092915050565b6000806040838503121561352d57600080fd5b600061353b858286016133f5565b925050602061354c858286016133f5565b9150509250929050565b60008060006060848603121561356b57600080fd5b6000613579868287016133f5565b935050602061358a868287016133f5565b925050604061359b868287016134dc565b9150509250925092565b600080600080608085870312156135bb57600080fd5b60006135c9878288016133f5565b94505060206135da878288016133f5565b93505060406135eb878288016134dc565b925050606085013567ffffffffffffffff81111561360857600080fd5b61361487828801613488565b91505092959194509250565b6000806040838503121561363357600080fd5b6000613641858286016133f5565b925050602061365285828601613434565b9150509250929050565b6000806040838503121561366f57600080fd5b600061367d858286016133f5565b925050602061368e858286016134dc565b9150509250929050565b600080604083850312156136ab57600080fd5b600083013567ffffffffffffffff8111156136c557600080fd5b6136d18582860161340a565b92505060206136e2858286016134dc565b9150509250929050565b6000602082840312156136fe57600080fd5b600061370c84828501613449565b91505092915050565b60006020828403121561372757600080fd5b60006137358482850161345e565b91505092915050565b60006020828403121561375057600080fd5b600061375e84828501613473565b91505092915050565b60006020828403121561377957600080fd5b600082013567ffffffffffffffff81111561379357600080fd5b61379f848285016134b2565b91505092915050565b6000602082840312156137ba57600080fd5b60006137c8848285016134dc565b91505092915050565b6137da81613fc3565b82525050565b6137f16137ec82613fc3565b61412f565b82525050565b61380081613fd5565b82525050565b61380f81613fe1565b82525050565b600061382082613e6b565b61382a8185613e81565b935061383a818560208601614050565b61384381614240565b840191505092915050565b600061385982613e76565b6138638185613e92565b9350613873818560208601614050565b61387c81614240565b840191505092915050565b600061389282613e76565b61389c8185613ea3565b93506138ac818560208601614050565b80840191505092915050565b60006138c5601683613e92565b91506138d08261425e565b602082019050919050565b60006138e8602683613e92565b91506138f382614287565b604082019050919050565b600061390b601e83613e92565b9150613916826142d6565b602082019050919050565b600061392e602d83613e92565b9150613939826142ff565b604082019050919050565b6000613951602583613e92565b915061395c8261434e565b604082019050919050565b6000613974602e83613e92565b915061397f8261439d565b604082019050919050565b6000613997602483613e92565b91506139a2826143ec565b604082019050919050565b60006139ba601e83613e92565b91506139c58261443b565b602082019050919050565b60006139dd600583613ea3565b91506139e882614464565b600582019050919050565b6000613a00601a83613e92565b9150613a0b8261448d565b602082019050919050565b6000613a23602083613e92565b9150613a2e826144b6565b602082019050919050565b6000613a46602b83613e92565b9150613a51826144df565b604082019050919050565b6000613a69602283613e92565b9150613a748261452e565b604082019050919050565b6000613a8c602183613e92565b9150613a978261457d565b604082019050919050565b6000613aaf601883613e92565b9150613aba826145cc565b602082019050919050565b613ace81614037565b82525050565b6000613ae082846137e0565b60148201915081905092915050565b6000613afb8285613887565b9150613b078284613887565b9150613b12826139d0565b91508190509392505050565b6000602082019050613b3360008301846137d1565b92915050565b6000608082019050613b4e60008301876137d1565b613b5b60208301866137d1565b613b686040830185613ac5565b8181036060830152613b7a8184613815565b905095945050505050565b6000602082019050613b9a60008301846137f7565b92915050565b6000602082019050613bb56000830184613806565b92915050565b60006020820190508181036000830152613bd5818461384e565b905092915050565b60006020820190508181036000830152613bf6816138b8565b9050919050565b60006020820190508181036000830152613c16816138db565b9050919050565b60006020820190508181036000830152613c36816138fe565b9050919050565b60006020820190508181036000830152613c5681613921565b9050919050565b60006020820190508181036000830152613c7681613944565b9050919050565b60006020820190508181036000830152613c9681613967565b9050919050565b60006020820190508181036000830152613cb68161398a565b9050919050565b60006020820190508181036000830152613cd6816139ad565b9050919050565b60006020820190508181036000830152613cf6816139f3565b9050919050565b60006020820190508181036000830152613d1681613a16565b9050919050565b60006020820190508181036000830152613d3681613a39565b9050919050565b60006020820190508181036000830152613d5681613a5c565b9050919050565b60006020820190508181036000830152613d7681613a7f565b9050919050565b60006020820190508181036000830152613d9681613aa2565b9050919050565b6000602082019050613db26000830184613ac5565b92915050565b6000613dc2613dd3565b9050613dce82826140b5565b919050565b6000604051905090565b600067ffffffffffffffff821115613df857613df7614211565b5b602082029050602081019050919050565b600067ffffffffffffffff821115613e2457613e23614211565b5b613e2d82614240565b9050602081019050919050565b600067ffffffffffffffff821115613e5557613e54614211565b5b613e5e82614240565b9050602081019050919050565b600081519050919050565b600081519050919050565b600082825260208201905092915050565b600082825260208201905092915050565b600081905092915050565b6000613eb982614037565b9150613ec483614037565b9250827fffffffffffffffffffffffffffffffffffffffffffffffffffffffffffffffff03821115613ef957613ef8614184565b5b828201905092915050565b6000613f0f82614037565b9150613f1a83614037565b925082613f2a57613f296141b3565b5b828204905092915050565b6000613f4082614037565b9150613f4b83614037565b9250817fffffffffffffffffffffffffffffffffffffffffffffffffffffffffffffffff0483118215151615613f8457613f83614184565b5b828202905092915050565b6000613f9a82614037565b9150613fa583614037565b925082821015613fb857613fb7614184565b5b828203905092915050565b6000613fce82614017565b9050919050565b60008115159050919050565b6000819050919050565b60007fffffffff0000000000000000000000000000000000000000000000000000000082169050919050565b600073ffffffffffffffffffffffffffffffffffffffff82169050919050565b6000819050919050565b82818337600083830152505050565b60005b8381101561406e578082015181840152602081019050614053565b8381111561407d576000848401525b50505050565b6000600282049050600182168061409b57607f821691505b602082108114156140af576140ae6141e2565b5b50919050565b6140be82614240565b810181811067ffffffffffffffff821117156140dd576140dc614211565b5b80604052505050565b60006140f182614037565b91507fffffffffffffffffffffffffffffffffffffffffffffffffffffffffffffffff82141561412457614123614184565b5b600182019050919050565b600061413a82614141565b9050919050565b600061414c82614251565b9050919050565b600061415e82614037565b915061416983614037565b925082614179576141786141b3565b5b828206905092915050565b7f4e487b7100000000000000000000000000000000000000000000000000000000600052601160045260246000fd5b7f4e487b7100000000000000000000000000000000000000000000000000000000600052601260045260246000fd5b7f4e487b7100000000000000000000000000000000000000000000000000000000600052602260045260246000fd5b7f4e487b7100000000000000000000000000000000000000000000000000000000600052604160045260246000fd5b6000601f19601f8301169050919050565b60008160601b9050919050565b7f426f78203a3a204e6f7420596574204163746976652e00000000000000000000600082015250565b7f4f776e61626c653a206e6577206f776e657220697320746865207a65726f206160008201527f6464726573730000000000000000000000000000000000000000000000000000602082015250565b7f426f78203a3a20416c7265616479206d696e74656420332074696d6573210000600082015250565b7f426f78203a3a2043616e6e6f74206d696e74206265796f6e642077686974656c60008201527f697374206d6178206d696e742100000000000000000000000000000000000000602082015250565b7f426f78203a3a2043616e6e6f742062652063616c6c6564206279206120636f6e60008201527f7472616374000000000000000000000000000000000000000000000000000000602082015250565b7f496e697469616c697a61626c653a20636f6e747261637420697320616c72656160008201527f647920696e697469616c697a6564000000000000000000000000000000000000602082015250565b7f426f78203a3a2043616e6e6f74206d696e74206265796f6e64206d617820737560008201527f70706c7900000000000000000000000000000000000000000000000000000000602082015250565b7f426f78203a3a20596f7520617265206e6f742077686974656c69737465640000600082015250565b7f2e6a736f6e000000000000000000000000000000000000000000000000000000600082015250565b7f426f78203a3a204d696e74696e67206973206f6e205061757365000000000000600082015250565b7f4f776e61626c653a2063616c6c6572206973206e6f7420746865206f776e6572600082015250565b7f496e697469616c697a61626c653a20636f6e7472616374206973206e6f74206960008201527f6e697469616c697a696e67000000000000000000000000000000000000000000602082015250565b7f426f78203a3a205061796d656e742069732062656c6f7720746865207072696360008201527f6520000000000000000000000000000000000000000000000000000000000000602082015250565b7f426f78203a3a205061796d656e742069732062656c6f7720746865207072696360008201527f6500000000000000000000000000000000000000000000000000000000000000602082015250565b7f426f78203a3a204265796f6e64204d617820537570706c790000000000000000600082015250565b6145fe81613fc3565b811461460957600080fd5b50565b61461581613fd5565b811461462057600080fd5b50565b61462c81613fe1565b811461463757600080fd5b50565b61464381613feb565b811461464e57600080fd5b50565b61465a81614037565b811461466557600080fd5b5056fea2646970667358221220dcd7fa7afdbfe51eebf478c3113e242d92d1993147ab9d3ddb565432f1fe561e64736f6c63430008040033",
  "linkReferences": {},
  "deployedLinkReferences": {}
}