{
  "_format": "hh-sol-artifact-1",
  "contractName": "Box",
  "sourceName": "contracts/Box.sol",
  "abi": [
    {
      "anonymous": false,
      "inputs": [
        {
          "indexed": true,
          "internalType": "address",
          "name": "owner",
          "type": "address"
        },
        {
          "indexed": true,
          "internalType": "address",
          "name": "approved",
          "type": "address"
        },
        {
          "indexed": true,
          "internalType": "uint256",
          "name": "tokenId",
          "type": "uint256"
        }
      ],
      "name": "Approval",
      "type": "event"
    },
    {
      "anonymous": false,
      "inputs": [
        {
          "indexed": true,
          "internalType": "address",
          "name": "owner",
          "type": "address"
        },
        {
          "indexed": true,
          "internalType": "address",
          "name": "operator",
          "type": "address"
        },
        {
          "indexed": false,
          "internalType": "bool",
          "name": "approved",
          "type": "bool"
        }
      ],
      "name": "ApprovalForAll",
      "type": "event"
    },
    {
      "anonymous": false,
      "inputs": [
        {
          "indexed": false,
          "internalType": "string",
          "name": "",
          "type": "string"
        }
      ],
      "name": "Init",
      "type": "event"
    },
    {
      "anonymous": false,
      "inputs": [
        {
          "indexed": true,
          "internalType": "address",
          "name": "previousOwner",
          "type": "address"
        },
        {
          "indexed": true,
          "internalType": "address",
          "name": "newOwner",
          "type": "address"
        }
      ],
      "name": "OwnershipTransferred",
      "type": "event"
    },
    {
      "anonymous": false,
      "inputs": [
        {
          "indexed": true,
          "internalType": "address",
          "name": "from",
          "type": "address"
        },
        {
          "indexed": true,
          "internalType": "address",
          "name": "to",
          "type": "address"
        },
        {
          "indexed": true,
          "internalType": "uint256",
          "name": "tokenId",
          "type": "uint256"
        }
      ],
      "name": "Transfer",
      "type": "event"
    },
    {
      "inputs": [],
      "name": "MAX_PUBLIC_MINT",
      "outputs": [
        {
          "internalType": "uint256",
          "name": "",
          "type": "uint256"
        }
      ],
      "stateMutability": "view",
      "type": "function"
    },
    {
      "inputs": [],
      "name": "MAX_SUPPLY",
      "outputs": [
        {
          "internalType": "uint256",
          "name": "",
          "type": "uint256"
        }
      ],
      "stateMutability": "view",
      "type": "function"
    },
    {
      "inputs": [],
      "name": "MAX_WHITELIST_MINT",
      "outputs": [
        {
          "internalType": "uint256",
          "name": "",
          "type": "uint256"
        }
      ],
      "stateMutability": "view",
      "type": "function"
    },
    {
      "inputs": [],
      "name": "PUBLIC_SALE_PRICE",
      "outputs": [
        {
          "internalType": "uint256",
          "name": "",
          "type": "uint256"
        }
      ],
      "stateMutability": "view",
      "type": "function"
    },
    {
      "inputs": [],
      "name": "WHITELIST_SALE_PRICE",
      "outputs": [
        {
          "internalType": "uint256",
          "name": "",
          "type": "uint256"
        }
      ],
      "stateMutability": "view",
      "type": "function"
    },
    {
      "inputs": [
        {
          "internalType": "address",
          "name": "to",
          "type": "address"
        },
        {
          "internalType": "uint256",
          "name": "tokenId",
          "type": "uint256"
        }
      ],
      "name": "approve",
      "outputs": [],
      "stateMutability": "nonpayable",
      "type": "function"
    },
    {
      "inputs": [
        {
          "internalType": "address",
          "name": "owner",
          "type": "address"
        }
      ],
      "name": "balanceOf",
      "outputs": [
        {
          "internalType": "uint256",
          "name": "",
          "type": "uint256"
        }
      ],
      "stateMutability": "view",
      "type": "function"
    },
    {
      "inputs": [
        {
          "internalType": "uint256",
          "name": "tokenId",
          "type": "uint256"
        }
      ],
      "name": "getApproved",
      "outputs": [
        {
          "internalType": "address",
          "name": "",
          "type": "address"
        }
      ],
      "stateMutability": "view",
      "type": "function"
    },
    {
      "inputs": [],
      "name": "getMerkleRoot",
      "outputs": [
        {
          "internalType": "bytes32",
          "name": "",
          "type": "bytes32"
        }
      ],
      "stateMutability": "view",
      "type": "function"
    },
    {
      "inputs": [],
      "name": "initialize",
      "outputs": [],
      "stateMutability": "nonpayable",
      "type": "function"
    },
    {
      "inputs": [
        {
          "internalType": "address",
          "name": "owner",
          "type": "address"
        },
        {
          "internalType": "address",
          "name": "operator",
          "type": "address"
        }
      ],
      "name": "isApprovedForAll",
      "outputs": [
        {
          "internalType": "bool",
          "name": "",
          "type": "bool"
        }
      ],
      "stateMutability": "view",
      "type": "function"
    },
    {
      "inputs": [],
      "name": "isRevealed",
      "outputs": [
        {
          "internalType": "bool",
          "name": "",
          "type": "bool"
        }
      ],
      "stateMutability": "view",
      "type": "function"
    },
    {
      "inputs": [
        {
          "internalType": "uint256",
          "name": "_quantity",
          "type": "uint256"
        }
      ],
      "name": "mint",
      "outputs": [],
      "stateMutability": "payable",
      "type": "function"
    },
    {
      "inputs": [],
      "name": "name",
      "outputs": [
        {
          "internalType": "string",
          "name": "",
          "type": "string"
        }
      ],
      "stateMutability": "view",
      "type": "function"
    },
    {
      "inputs": [],
      "name": "owner",
      "outputs": [
        {
          "internalType": "address",
          "name": "",
          "type": "address"
        }
      ],
      "stateMutability": "view",
      "type": "function"
    },
    {
      "inputs": [
        {
          "internalType": "uint256",
          "name": "tokenId",
          "type": "uint256"
        }
      ],
      "name": "ownerOf",
      "outputs": [
        {
          "internalType": "address",
          "name": "",
          "type": "address"
        }
      ],
      "stateMutability": "view",
      "type": "function"
    },
    {
      "inputs": [],
      "name": "pause",
      "outputs": [
        {
          "internalType": "bool",
          "name": "",
          "type": "bool"
        }
      ],
      "stateMutability": "view",
      "type": "function"
    },
    {
      "inputs": [],
      "name": "publicSale",
      "outputs": [
        {
          "internalType": "bool",
          "name": "",
          "type": "bool"
        }
      ],
      "stateMutability": "view",
      "type": "function"
    },
    {
      "inputs": [],
      "name": "renounceOwnership",
      "outputs": [],
      "stateMutability": "nonpayable",
      "type": "function"
    },
    {
      "inputs": [
        {
          "internalType": "address",
          "name": "from",
          "type": "address"
        },
        {
          "internalType": "address",
          "name": "to",
          "type": "address"
        },
        {
          "internalType": "uint256",
          "name": "tokenId",
          "type": "uint256"
        }
      ],
      "name": "safeTransferFrom",
      "outputs": [],
      "stateMutability": "nonpayable",
      "type": "function"
    },
    {
      "inputs": [
        {
          "internalType": "address",
          "name": "from",
          "type": "address"
        },
        {
          "internalType": "address",
          "name": "to",
          "type": "address"
        },
        {
          "internalType": "uint256",
          "name": "tokenId",
          "type": "uint256"
        },
        {
          "internalType": "bytes",
          "name": "_data",
          "type": "bytes"
        }
      ],
      "name": "safeTransferFrom",
      "outputs": [],
      "stateMutability": "nonpayable",
      "type": "function"
    },
    {
      "inputs": [
        {
          "internalType": "address",
          "name": "operator",
          "type": "address"
        },
        {
          "internalType": "bool",
          "name": "approved",
          "type": "bool"
        }
      ],
      "name": "setApprovalForAll",
      "outputs": [],
      "stateMutability": "nonpayable",
      "type": "function"
    },
    {
      "inputs": [
        {
          "internalType": "bytes32",
          "name": "_merkleRoot",
          "type": "bytes32"
        }
      ],
      "name": "setMerkleRoot",
      "outputs": [],
      "stateMutability": "nonpayable",
      "type": "function"
    },
    {
      "inputs": [
        {
          "internalType": "string",
          "name": "_baseTokenUri",
          "type": "string"
        }
      ],
      "name": "setTokenUri",
      "outputs": [],
      "stateMutability": "nonpayable",
      "type": "function"
    },
    {
      "inputs": [
        {
          "internalType": "bytes4",
          "name": "interfaceId",
          "type": "bytes4"
        }
      ],
      "name": "supportsInterface",
      "outputs": [
        {
          "internalType": "bool",
          "name": "",
          "type": "bool"
        }
      ],
      "stateMutability": "view",
      "type": "function"
    },
    {
      "inputs": [],
      "name": "symbol",
      "outputs": [
        {
          "internalType": "string",
          "name": "",
          "type": "string"
        }
      ],
      "stateMutability": "view",
      "type": "function"
    },
    {
      "inputs": [],
      "name": "togglePause",
      "outputs": [],
      "stateMutability": "nonpayable",
      "type": "function"
    },
    {
      "inputs": [],
      "name": "togglePublicSale",
      "outputs": [],
      "stateMutability": "nonpayable",
      "type": "function"
    },
    {
      "inputs": [],
      "name": "toggleReveal",
      "outputs": [],
      "stateMutability": "nonpayable",
      "type": "function"
    },
    {
      "inputs": [],
      "name": "toggleWhiteListSale",
      "outputs": [],
      "stateMutability": "nonpayable",
      "type": "function"
    },
    {
      "inputs": [
        {
          "internalType": "uint256",
          "name": "tokenId",
          "type": "uint256"
        }
      ],
      "name": "tokenURI",
      "outputs": [
        {
          "internalType": "string",
          "name": "",
          "type": "string"
        }
      ],
      "stateMutability": "view",
      "type": "function"
    },
    {
      "inputs": [
        {
          "internalType": "address",
          "name": "",
          "type": "address"
        }
      ],
      "name": "totalPublicMint",
      "outputs": [
        {
          "internalType": "uint256",
          "name": "",
          "type": "uint256"
        }
      ],
      "stateMutability": "view",
      "type": "function"
    },
    {
      "inputs": [
        {
          "internalType": "address",
          "name": "",
          "type": "address"
        }
      ],
      "name": "totalWhitelistMint",
      "outputs": [
        {
          "internalType": "uint256",
          "name": "",
          "type": "uint256"
        }
      ],
      "stateMutability": "view",
      "type": "function"
    },
    {
      "inputs": [
        {
          "internalType": "address",
          "name": "from",
          "type": "address"
        },
        {
          "internalType": "address",
          "name": "to",
          "type": "address"
        },
        {
          "internalType": "uint256",
          "name": "tokenId",
          "type": "uint256"
        }
      ],
      "name": "transferFrom",
      "outputs": [],
      "stateMutability": "nonpayable",
      "type": "function"
    },
    {
      "inputs": [
        {
          "internalType": "address",
          "name": "newOwner",
          "type": "address"
        }
      ],
      "name": "transferOwnership",
      "outputs": [],
      "stateMutability": "nonpayable",
      "type": "function"
    },
    {
      "inputs": [],
      "name": "version",
      "outputs": [
        {
          "internalType": "string",
          "name": "",
          "type": "string"
        }
      ],
      "stateMutability": "pure",
      "type": "function"
    },
    {
      "inputs": [],
      "name": "whiteListSale",
      "outputs": [
        {
          "internalType": "bool",
          "name": "",
          "type": "bool"
        }
      ],
      "stateMutability": "view",
      "type": "function"
    },
    {
      "inputs": [
        {
          "internalType": "bytes32[]",
          "name": "_merkleProof",
          "type": "bytes32[]"
        },
        {
          "internalType": "uint256",
          "name": "_quantity",
          "type": "uint256"
        }
      ],
      "name": "whitelistMint",
      "outputs": [],
      "stateMutability": "payable",
      "type": "function"
    },
    {
      "inputs": [],
      "name": "withdraw",
      "outputs": [],
      "stateMutability": "nonpayable",
      "type": "function"
    }
  ],
  "bytecode": "0x608060405234801561001057600080fd5b50614808806100206000396000f3fe6080604052600436106102305760003560e01c806365f130971161012e578063a0712d68116100ab578063c4ae31681161006f578063c4ae3168146107c7578063c87b56dd146107de578063e222c7f91461081b578063e985e9c514610832578063f2fde38b1461086f57610230565b8063a0712d6814610703578063a22cb4651461071f578063b88d4fde14610748578063bc912e1a14610771578063c08dfd3c1461079c57610230565b80638456cb59116100f25780638456cb591461064057806386a173ee1461066b5780638bb64a8c146106965780638da5cb5b146106ad57806395d89b41146106d857610230565b806365f130971461058157806370a08231146105ac578063715018a6146105e95780637cb64759146106005780638129fc1c1461062957610230565b80632904e6d9116101bc578063495906571161018057806349590657146104ac57806354214f69146104d757806354fd4d50146105025780635b8ad4291461052d5780636352211e1461054457610230565b80632904e6d9146103fa57806332cb6b0c1461041657806333bc1c5c146104415780633ccfd60b1461046c57806342842e0e1461048357610230565b806307e89ec01161020357806307e89ec014610303578063081812fc1461032e578063095ea7b31461036b5780631c16521c1461039457806323b872dd146103d157610230565b806301ffc9a7146102355780630345e3cb146102725780630675b7c6146102af57806306fdde03146102d8575b600080fd5b34801561024157600080fd5b5061025c600480360381019061025791906131de565b610898565b60405161026991906137e7565b60405180910390f35b34801561027e57600080fd5b5061029960048036038101906102949190612fba565b61097a565b6040516102a69190613b9f565b60405180910390f35b3480156102bb57600080fd5b506102d660048036038101906102d19190613230565b610992565b005b3480156102e457600080fd5b506102ed610a28565b6040516102fa919061381d565b60405180910390f35b34801561030f57600080fd5b50610318610aba565b6040516103259190613b9f565b60405180910390f35b34801561033a57600080fd5b5061035560048036038101906103509190613271565b610ac5565b6040516103629190613780565b60405180910390f35b34801561037757600080fd5b50610392600480360381019061038d9190613125565b610b4a565b005b3480156103a057600080fd5b506103bb60048036038101906103b69190612fba565b610c62565b6040516103c89190613b9f565b60405180910390f35b3480156103dd57600080fd5b506103f860048036038101906103f3919061301f565b610c7a565b005b610414600480360381019061040f9190613161565b610cda565b005b34801561042257600080fd5b5061042b610f56565b6040516104389190613b9f565b60405180910390f35b34801561044d57600080fd5b50610456610f5c565b60405161046391906137e7565b60405180910390f35b34801561047857600080fd5b50610481610f6f565b005b34801561048f57600080fd5b506104aa60048036038101906104a5919061301f565b611034565b005b3480156104b857600080fd5b506104c1611054565b6040516104ce9190613802565b60405180910390f35b3480156104e357600080fd5b506104ec61105e565b6040516104f991906137e7565b60405180910390f35b34801561050e57600080fd5b50610517611071565b604051610524919061381d565b60405180910390f35b34801561053957600080fd5b506105426110ae565b005b34801561055057600080fd5b5061056b60048036038101906105669190613271565b611156565b6040516105789190613780565b60405180910390f35b34801561058d57600080fd5b50610596611208565b6040516105a39190613b9f565b60405180910390f35b3480156105b857600080fd5b506105d360048036038101906105ce9190612fba565b61120d565b6040516105e09190613b9f565b60405180910390f35b3480156105f557600080fd5b506105fe6112c5565b005b34801561060c57600080fd5b50610627600480360381019061062291906131b5565b61134d565b005b34801561063557600080fd5b5061063e6113d3565b005b34801561064c57600080fd5b50610655611568565b60405161066291906137e7565b60405180910390f35b34801561067757600080fd5b5061068061157b565b60405161068d91906137e7565b60405180910390f35b3480156106a257600080fd5b506106ab61158e565b005b3480156106b957600080fd5b506106c2611636565b6040516106cf9190613780565b60405180910390f35b3480156106e457600080fd5b506106ed611660565b6040516106fa919061381d565b60405180910390f35b61071d60048036038101906107189190613271565b6116f2565b005b34801561072b57600080fd5b50610746600480360381019061074191906130e9565b6118f5565b005b34801561075457600080fd5b5061076f600480360381019061076a919061306e565b61190b565b005b34801561077d57600080fd5b5061078661196d565b6040516107939190613b9f565b60405180910390f35b3480156107a857600080fd5b506107b1611978565b6040516107be9190613b9f565b60405180910390f35b3480156107d357600080fd5b506107dc61197d565b005b3480156107ea57600080fd5b5061080560048036038101906108009190613271565b611a25565b604051610812919061381d565b60405180910390f35b34801561082757600080fd5b50610830611acc565b005b34801561083e57600080fd5b5061085960048036038101906108549190612fe3565b611b74565b60405161086691906137e7565b60405180910390f35b34801561087b57600080fd5b5061089660048036038101906108919190612fba565b611c08565b005b60007f80ac58cd000000000000000000000000000000000000000000000000000000007bffffffffffffffffffffffffffffffffffffffffffffffffffffffff1916827bffffffffffffffffffffffffffffffffffffffffffffffffffffffff1916148061096357507f5b5e139f000000000000000000000000000000000000000000000000000000007bffffffffffffffffffffffffffffffffffffffffffffffffffffffff1916827bffffffffffffffffffffffffffffffffffffffffffffffffffffffff1916145b80610973575061097282611d00565b5b9050919050565b60cd6020528060005260406000206000915090505481565b61099a611d6a565b73ffffffffffffffffffffffffffffffffffffffff166109b8611636565b73ffffffffffffffffffffffffffffffffffffffff1614610a0e576040517f08c379a0000000000000000000000000000000000000000000000000000000008152600401610a0590613abf565b60405180910390fd5b8060c99080519060200190610a24929190612d33565b5050565b606060658054610a3790613e85565b80601f0160208091040260200160405190810160405280929190818152602001828054610a6390613e85565b8015610ab05780601f10610a8557610100808354040283529160200191610ab0565b820191906000526020600020905b815481529060010190602001808311610a9357829003601f168201915b5050505050905090565b661ff973cafa800081565b6000610ad082611d72565b610b0f576040517f08c379a0000000000000000000000000000000000000000000000000000000008152600401610b0690613a7f565b60405180910390fd5b6069600083815260200190815260200160002060009054906101000a900473ffffffffffffffffffffffffffffffffffffffff169050919050565b6000610b5582611156565b90508073ffffffffffffffffffffffffffffffffffffffff168373ffffffffffffffffffffffffffffffffffffffff161415610bc6576040517f08c379a0000000000000000000000000000000000000000000000000000000008152600401610bbd90613aff565b60405180910390fd5b8073ffffffffffffffffffffffffffffffffffffffff16610be5611d6a565b73ffffffffffffffffffffffffffffffffffffffff161480610c145750610c1381610c0e611d6a565b611b74565b5b610c53576040517f08c379a0000000000000000000000000000000000000000000000000000000008152600401610c4a9061399f565b60405180910390fd5b610c5d8383611dde565b505050565b60cc6020528060005260406000206000915090505481565b610c8b610c85611d6a565b82611e97565b610cca576040517f08c379a0000000000000000000000000000000000000000000000000000000008152600401610cc190613b1f565b60405180910390fd5b610cd5838383611f75565b505050565b3373ffffffffffffffffffffffffffffffffffffffff163273ffffffffffffffffffffffffffffffffffffffff1614610d48576040517f08c379a0000000000000000000000000000000000000000000000000000000008152600401610d3f906139bf565b60405180910390fd5b60ca60029054906101000a900460ff16610d97576040517f08c379a0000000000000000000000000000000000000000000000000000000008152600401610d8e90613a9f565b60405180910390fd5b60038160cd60003373ffffffffffffffffffffffffffffffffffffffff1673ffffffffffffffffffffffffffffffffffffffff16815260200190815260200160002054610de49190613cb0565b1115610e25576040517f08c379a0000000000000000000000000000000000000000000000000000000008152600401610e1c9061397f565b60405180910390fd5b8066071afd498d0000610e389190613d37565b341015610e7a576040517f08c379a0000000000000000000000000000000000000000000000000000000008152600401610e7190613b7f565b60405180910390fd5b600033604051602001610e8d9190613741565b604051602081830303815290604052805190602001209050610eb28360cb54836121dc565b610ef1576040517f08c379a0000000000000000000000000000000000000000000000000000000008152600401610ee890613a5f565b60405180910390fd5b8160cd60003373ffffffffffffffffffffffffffffffffffffffff1673ffffffffffffffffffffffffffffffffffffffff1681526020019081526020016000206000828254610f409190613cb0565b92505081905550610f5133836121f3565b505050565b611e6181565b60ca60019054906101000a900460ff1681565b610f77611d6a565b73ffffffffffffffffffffffffffffffffffffffff16610f95611636565b73ffffffffffffffffffffffffffffffffffffffff1614610feb576040517f08c379a0000000000000000000000000000000000000000000000000000000008152600401610fe290613abf565b60405180910390fd5b3373ffffffffffffffffffffffffffffffffffffffff166108fc479081150290604051600060405180830381858888f19350505050158015611031573d6000803e3d6000fd5b50565b61104f8383836040518060200160405280600081525061190b565b505050565b600060cb54905090565b60ca60009054906101000a900460ff1681565b60606040518060400160405280600581526020017f312e302e30000000000000000000000000000000000000000000000000000000815250905090565b6110b6611d6a565b73ffffffffffffffffffffffffffffffffffffffff166110d4611636565b73ffffffffffffffffffffffffffffffffffffffff161461112a576040517f08c379a000000000000000000000000000000000000000000000000000000000815260040161112190613abf565b60405180910390fd5b60ca60009054906101000a900460ff161560ca60006101000a81548160ff021916908315150217905550565b6000806067600084815260200190815260200160002060009054906101000a900473ffffffffffffffffffffffffffffffffffffffff169050600073ffffffffffffffffffffffffffffffffffffffff168173ffffffffffffffffffffffffffffffffffffffff1614156111ff576040517f08c379a00000000000000000000000000000000000000000000000000000000081526004016111f6906139ff565b60405180910390fd5b80915050919050565b600a81565b60008073ffffffffffffffffffffffffffffffffffffffff168273ffffffffffffffffffffffffffffffffffffffff16141561127e576040517f08c379a0000000000000000000000000000000000000000000000000000000008152600401611275906139df565b60405180910390fd5b606860008373ffffffffffffffffffffffffffffffffffffffff1673ffffffffffffffffffffffffffffffffffffffff168152602001908152602001600020549050919050565b6112cd611d6a565b73ffffffffffffffffffffffffffffffffffffffff166112eb611636565b73ffffffffffffffffffffffffffffffffffffffff1614611341576040517f08c379a000000000000000000000000000000000000000000000000000000000815260040161133890613abf565b60405180910390fd5b61134b6000612211565b565b611355611d6a565b73ffffffffffffffffffffffffffffffffffffffff16611373611636565b73ffffffffffffffffffffffffffffffffffffffff16146113c9576040517f08c379a00000000000000000000000000000000000000000000000000000000081526004016113c090613abf565b60405180910390fd5b8060cb8190555050565b600060019054906101000a900460ff166113fb5760008054906101000a900460ff1615611404565b6114036122d7565b5b611443576040517f08c379a000000000000000000000000000000000000000000000000000000000815260040161143a90613a1f565b60405180910390fd5b60008060019054906101000a900460ff161590508015611493576001600060016101000a81548160ff02191690831515021790555060016000806101000a81548160ff0219169083151502179055505b6115076040518060400160405280600381526020017f426f7800000000000000000000000000000000000000000000000000000000008152506040518060400160405280600381526020017f424f5800000000000000000000000000000000000000000000000000000000008152506122e8565b61150f612345565b7fb86104e7ac137c13dcdb4b6e07bbc065d960beacc9c14eddbb6b76c95c8e32ca60405161153c906138df565b60405180910390a180156115655760008060016101000a81548160ff0219169083151502179055505b50565b60ca60039054906101000a900460ff1681565b60ca60029054906101000a900460ff1681565b611596611d6a565b73ffffffffffffffffffffffffffffffffffffffff166115b4611636565b73ffffffffffffffffffffffffffffffffffffffff161461160a576040517f08c379a000000000000000000000000000000000000000000000000000000000815260040161160190613abf565b60405180910390fd5b60ca60029054906101000a900460ff161560ca60026101000a81548160ff021916908315150217905550565b6000609760009054906101000a900473ffffffffffffffffffffffffffffffffffffffff16905090565b60606066805461166f90613e85565b80601f016020809104026020016040519081016040528092919081815260200182805461169b90613e85565b80156116e85780601f106116bd576101008083540402835291602001916116e8565b820191906000526020600020905b8154815290600101906020018083116116cb57829003601f168201915b5050505050905090565b3373ffffffffffffffffffffffffffffffffffffffff163273ffffffffffffffffffffffffffffffffffffffff1614611760576040517f08c379a0000000000000000000000000000000000000000000000000000000008152600401611757906139bf565b60405180910390fd5b60ca60019054906101000a900460ff166117af576040517f08c379a00000000000000000000000000000000000000000000000000000000081526004016117a69061383f565b60405180910390fd5b600a8160cc60003373ffffffffffffffffffffffffffffffffffffffff1673ffffffffffffffffffffffffffffffffffffffff168152602001908152602001600020546117fc9190613cb0565b111561183d576040517f08c379a00000000000000000000000000000000000000000000000000000000081526004016118349061393f565b60405180910390fd5b80661ff973cafa80006118509190613d37565b341015611892576040517f08c379a000000000000000000000000000000000000000000000000000000000815260040161188990613b5f565b60405180910390fd5b8060cc60003373ffffffffffffffffffffffffffffffffffffffff1673ffffffffffffffffffffffffffffffffffffffff16815260200190815260200160002060008282546118e19190613cb0565b925050819055506118f233826121f3565b50565b611907611900611d6a565b838361239e565b5050565b61191c611916611d6a565b83611e97565b61195b576040517f08c379a000000000000000000000000000000000000000000000000000000000815260040161195290613b1f565b60405180910390fd5b6119678484848461250b565b50505050565b66071afd498d000081565b600381565b611985611d6a565b73ffffffffffffffffffffffffffffffffffffffff166119a3611636565b73ffffffffffffffffffffffffffffffffffffffff16146119f9576040517f08c379a00000000000000000000000000000000000000000000000000000000081526004016119f090613abf565b60405180910390fd5b60ca60039054906101000a900460ff161560ca60036101000a81548160ff021916908315150217905550565b6060611a3082611d72565b611a6f576040517f08c379a0000000000000000000000000000000000000000000000000000000008152600401611a6690613adf565b60405180910390fd5b6000611a79612567565b90506000815111611a995760405180602001604052806000815250611ac4565b80611aa3846125f9565b604051602001611ab492919061375c565b6040516020818303038152906040525b915050919050565b611ad4611d6a565b73ffffffffffffffffffffffffffffffffffffffff16611af2611636565b73ffffffffffffffffffffffffffffffffffffffff1614611b48576040517f08c379a0000000000000000000000000000000000000000000000000000000008152600401611b3f90613abf565b60405180910390fd5b60ca60019054906101000a900460ff161560ca60016101000a81548160ff021916908315150217905550565b6000606a60008473ffffffffffffffffffffffffffffffffffffffff1673ffffffffffffffffffffffffffffffffffffffff16815260200190815260200160002060008373ffffffffffffffffffffffffffffffffffffffff1673ffffffffffffffffffffffffffffffffffffffff16815260200190815260200160002060009054906101000a900460ff16905092915050565b611c10611d6a565b73ffffffffffffffffffffffffffffffffffffffff16611c2e611636565b73ffffffffffffffffffffffffffffffffffffffff1614611c84576040517f08c379a0000000000000000000000000000000000000000000000000000000008152600401611c7b90613abf565b60405180910390fd5b600073ffffffffffffffffffffffffffffffffffffffff168173ffffffffffffffffffffffffffffffffffffffff161415611cf4576040517f08c379a0000000000000000000000000000000000000000000000000000000008152600401611ceb9061387f565b60405180910390fd5b611cfd81612211565b50565b60007f01ffc9a7000000000000000000000000000000000000000000000000000000007bffffffffffffffffffffffffffffffffffffffffffffffffffffffff1916827bffffffffffffffffffffffffffffffffffffffffffffffffffffffff1916149050919050565b600033905090565b60008073ffffffffffffffffffffffffffffffffffffffff166067600084815260200190815260200160002060009054906101000a900473ffffffffffffffffffffffffffffffffffffffff1673ffffffffffffffffffffffffffffffffffffffff1614159050919050565b816069600083815260200190815260200160002060006101000a81548173ffffffffffffffffffffffffffffffffffffffff021916908373ffffffffffffffffffffffffffffffffffffffff160217905550808273ffffffffffffffffffffffffffffffffffffffff16611e5183611156565b73ffffffffffffffffffffffffffffffffffffffff167f8c5be1e5ebec7d5bd14f71427d1e84f3dd0314c0f7b2291e5b200ac8c7c3b92560405160405180910390a45050565b6000611ea282611d72565b611ee1576040517f08c379a0000000000000000000000000000000000000000000000000000000008152600401611ed89061395f565b60405180910390fd5b6000611eec83611156565b90508073ffffffffffffffffffffffffffffffffffffffff168473ffffffffffffffffffffffffffffffffffffffff161480611f5b57508373ffffffffffffffffffffffffffffffffffffffff16611f4384610ac5565b73ffffffffffffffffffffffffffffffffffffffff16145b80611f6c5750611f6b8185611b74565b5b91505092915050565b8273ffffffffffffffffffffffffffffffffffffffff16611f9582611156565b73ffffffffffffffffffffffffffffffffffffffff1614611feb576040517f08c379a0000000000000000000000000000000000000000000000000000000008152600401611fe29061389f565b60405180910390fd5b600073ffffffffffffffffffffffffffffffffffffffff168273ffffffffffffffffffffffffffffffffffffffff16141561205b576040517f08c379a0000000000000000000000000000000000000000000000000000000008152600401612052906138ff565b60405180910390fd5b6120668383836127a6565b612071600082611dde565b6001606860008573ffffffffffffffffffffffffffffffffffffffff1673ffffffffffffffffffffffffffffffffffffffff16815260200190815260200160002060008282546120c19190613d91565b925050819055506001606860008473ffffffffffffffffffffffffffffffffffffffff1673ffffffffffffffffffffffffffffffffffffffff16815260200190815260200160002060008282546121189190613cb0565b92505081905550816067600083815260200190815260200160002060006101000a81548173ffffffffffffffffffffffffffffffffffffffff021916908373ffffffffffffffffffffffffffffffffffffffff160217905550808273ffffffffffffffffffffffffffffffffffffffff168473ffffffffffffffffffffffffffffffffffffffff167fddf252ad1be2c89b69c2b068fc378daa952ba7f163c4a11628f55a4df523b3ef60405160405180910390a46121d78383836127ab565b505050565b6000826121e985846127b0565b1490509392505050565b61220d82826040518060200160405280600081525061284b565b5050565b6000609760009054906101000a900473ffffffffffffffffffffffffffffffffffffffff16905081609760006101000a81548173ffffffffffffffffffffffffffffffffffffffff021916908373ffffffffffffffffffffffffffffffffffffffff1602179055508173ffffffffffffffffffffffffffffffffffffffff168173ffffffffffffffffffffffffffffffffffffffff167f8be0079c531659141344cd1fd0a4f28419497f9722a3daafe3b4186f6b6457e060405160405180910390a35050565b60006122e2306128a6565b15905090565b600060019054906101000a900460ff16612337576040517f08c379a000000000000000000000000000000000000000000000000000000000815260040161232e90613b3f565b60405180910390fd5b61234182826128c9565b5050565b600060019054906101000a900460ff16612394576040517f08c379a000000000000000000000000000000000000000000000000000000000815260040161238b90613b3f565b60405180910390fd5b61239c61294a565b565b8173ffffffffffffffffffffffffffffffffffffffff168373ffffffffffffffffffffffffffffffffffffffff16141561240d576040517f08c379a00000000000000000000000000000000000000000000000000000000081526004016124049061391f565b60405180910390fd5b80606a60008573ffffffffffffffffffffffffffffffffffffffff1673ffffffffffffffffffffffffffffffffffffffff16815260200190815260200160002060008473ffffffffffffffffffffffffffffffffffffffff1673ffffffffffffffffffffffffffffffffffffffff16815260200190815260200160002060006101000a81548160ff0219169083151502179055508173ffffffffffffffffffffffffffffffffffffffff168373ffffffffffffffffffffffffffffffffffffffff167f17307eab39ab6107e8899845ad3d59bd9653f200f220920489ca2b5937696c31836040516124fe91906137e7565b60405180910390a3505050565b612516848484611f75565b612522848484846129ab565b612561576040517f08c379a00000000000000000000000000000000000000000000000000000000081526004016125589061385f565b60405180910390fd5b50505050565b606060c9805461257690613e85565b80601f01602080910402602001604051908101604052809291908181526020018280546125a290613e85565b80156125ef5780601f106125c4576101008083540402835291602001916125ef565b820191906000526020600020905b8154815290600101906020018083116125d257829003601f168201915b5050505050905090565b60606000821415612641576040518060400160405280600181526020017f300000000000000000000000000000000000000000000000000000000000000081525090506127a1565b600082905060005b6000821461267357808061265c90613ee8565b915050600a8261266c9190613d06565b9150612649565b60008167ffffffffffffffff8111156126b5577f4e487b7100000000000000000000000000000000000000000000000000000000600052604160045260246000fd5b6040519080825280601f01601f1916602001820160405280156126e75781602001600182028036833780820191505090505b5090505b6000851461279a576001826127009190613d91565b9150600a8561270f9190613f55565b603061271b9190613cb0565b60f81b818381518110612757577f4e487b7100000000000000000000000000000000000000000000000000000000600052603260045260246000fd5b60200101907effffffffffffffffffffffffffffffffffffffffffffffffffffffffffffff1916908160001a905350600a856127939190613d06565b94506126eb565b8093505050505b919050565b505050565b505050565b60008082905060005b84518110156128405760008582815181106127fd577f4e487b7100000000000000000000000000000000000000000000000000000000600052603260045260246000fd5b6020026020010151905080831161281f576128188382612b42565b925061282c565b6128298184612b42565b92505b50808061283890613ee8565b9150506127b9565b508091505092915050565b6128558383612b59565b61286260008484846129ab565b6128a1576040517f08c379a00000000000000000000000000000000000000000000000000000000081526004016128989061385f565b60405180910390fd5b505050565b6000808273ffffffffffffffffffffffffffffffffffffffff163b119050919050565b600060019054906101000a900460ff16612918576040517f08c379a000000000000000000000000000000000000000000000000000000000815260040161290f90613b3f565b60405180910390fd5b816065908051906020019061292e929190612d33565b508060669080519060200190612945929190612d33565b505050565b600060019054906101000a900460ff16612999576040517f08c379a000000000000000000000000000000000000000000000000000000000815260040161299090613b3f565b60405180910390fd5b6129a96129a4611d6a565b612211565b565b60006129cc8473ffffffffffffffffffffffffffffffffffffffff166128a6565b15612b35578373ffffffffffffffffffffffffffffffffffffffff1663150b7a026129f5611d6a565b8786866040518563ffffffff1660e01b8152600401612a17949392919061379b565b602060405180830381600087803b158015612a3157600080fd5b505af1925050508015612a6257506040513d601f19601f82011682018060405250810190612a5f9190613207565b60015b612ae5573d8060008114612a92576040519150601f19603f3d011682016040523d82523d6000602084013e612a97565b606091505b50600081511415612add576040517f08c379a0000000000000000000000000000000000000000000000000000000008152600401612ad49061385f565b60405180910390fd5b805181602001fd5b63150b7a0260e01b7bffffffffffffffffffffffffffffffffffffffffffffffffffffffff1916817bffffffffffffffffffffffffffffffffffffffffffffffffffffffff191614915050612b3a565b600190505b949350505050565b600082600052816020526040600020905092915050565b600073ffffffffffffffffffffffffffffffffffffffff168273ffffffffffffffffffffffffffffffffffffffff161415612bc9576040517f08c379a0000000000000000000000000000000000000000000000000000000008152600401612bc090613a3f565b60405180910390fd5b612bd281611d72565b15612c12576040517f08c379a0000000000000000000000000000000000000000000000000000000008152600401612c09906138bf565b60405180910390fd5b612c1e600083836127a6565b6001606860008473ffffffffffffffffffffffffffffffffffffffff1673ffffffffffffffffffffffffffffffffffffffff1681526020019081526020016000206000828254612c6e9190613cb0565b92505081905550816067600083815260200190815260200160002060006101000a81548173ffffffffffffffffffffffffffffffffffffffff021916908373ffffffffffffffffffffffffffffffffffffffff160217905550808273ffffffffffffffffffffffffffffffffffffffff16600073ffffffffffffffffffffffffffffffffffffffff167fddf252ad1be2c89b69c2b068fc378daa952ba7f163c4a11628f55a4df523b3ef60405160405180910390a4612d2f600083836127ab565b5050565b828054612d3f90613e85565b90600052602060002090601f016020900481019282612d615760008555612da8565b82601f10612d7a57805160ff1916838001178555612da8565b82800160010185558215612da8579182015b82811115612da7578251825591602001919060010190612d8c565b5b509050612db59190612db9565b5090565b5b80821115612dd2576000816000905550600101612dba565b5090565b6000612de9612de484613bdf565b613bba565b90508083825260208201905082856020860282011115612e0857600080fd5b60005b85811015612e385781612e1e8882612f12565b845260208401935060208301925050600181019050612e0b565b5050509392505050565b6000612e55612e5084613c0b565b613bba565b905082815260208101848484011115612e6d57600080fd5b612e78848285613e43565b509392505050565b6000612e93612e8e84613c3c565b613bba565b905082815260208101848484011115612eab57600080fd5b612eb6848285613e43565b509392505050565b600081359050612ecd8161475f565b92915050565b600082601f830112612ee457600080fd5b8135612ef4848260208601612dd6565b91505092915050565b600081359050612f0c81614776565b92915050565b600081359050612f218161478d565b92915050565b600081359050612f36816147a4565b92915050565b600081519050612f4b816147a4565b92915050565b600082601f830112612f6257600080fd5b8135612f72848260208601612e42565b91505092915050565b600082601f830112612f8c57600080fd5b8135612f9c848260208601612e80565b91505092915050565b600081359050612fb4816147bb565b92915050565b600060208284031215612fcc57600080fd5b6000612fda84828501612ebe565b91505092915050565b60008060408385031215612ff657600080fd5b600061300485828601612ebe565b925050602061301585828601612ebe565b9150509250929050565b60008060006060848603121561303457600080fd5b600061304286828701612ebe565b935050602061305386828701612ebe565b925050604061306486828701612fa5565b9150509250925092565b6000806000806080858703121561308457600080fd5b600061309287828801612ebe565b94505060206130a387828801612ebe565b93505060406130b487828801612fa5565b925050606085013567ffffffffffffffff8111156130d157600080fd5b6130dd87828801612f51565b91505092959194509250565b600080604083850312156130fc57600080fd5b600061310a85828601612ebe565b925050602061311b85828601612efd565b9150509250929050565b6000806040838503121561313857600080fd5b600061314685828601612ebe565b925050602061315785828601612fa5565b9150509250929050565b6000806040838503121561317457600080fd5b600083013567ffffffffffffffff81111561318e57600080fd5b61319a85828601612ed3565b92505060206131ab85828601612fa5565b9150509250929050565b6000602082840312156131c757600080fd5b60006131d584828501612f12565b91505092915050565b6000602082840312156131f057600080fd5b60006131fe84828501612f27565b91505092915050565b60006020828403121561321957600080fd5b600061322784828501612f3c565b91505092915050565b60006020828403121561324257600080fd5b600082013567ffffffffffffffff81111561325c57600080fd5b61326884828501612f7b565b91505092915050565b60006020828403121561328357600080fd5b600061329184828501612fa5565b91505092915050565b6132a381613dc5565b82525050565b6132ba6132b582613dc5565b613f31565b82525050565b6132c981613dd7565b82525050565b6132d881613de3565b82525050565b60006132e982613c6d565b6132f38185613c83565b9350613303818560208601613e52565b61330c81614042565b840191505092915050565b600061332282613c78565b61332c8185613c94565b935061333c818560208601613e52565b61334581614042565b840191505092915050565b600061335b82613c78565b6133658185613ca5565b9350613375818560208601613e52565b80840191505092915050565b600061338e601683613c94565b915061339982614060565b602082019050919050565b60006133b1603283613c94565b91506133bc82614089565b604082019050919050565b60006133d4602683613c94565b91506133df826140d8565b604082019050919050565b60006133f7602583613c94565b915061340282614127565b604082019050919050565b600061341a601c83613c94565b915061342582614176565b602082019050919050565b600061343d600183613c94565b91506134488261419f565b602082019050919050565b6000613460602483613c94565b915061346b826141c8565b604082019050919050565b6000613483601983613c94565b915061348e82614217565b602082019050919050565b60006134a6601e83613c94565b91506134b182614240565b602082019050919050565b60006134c9602c83613c94565b91506134d482614269565b604082019050919050565b60006134ec602d83613c94565b91506134f7826142b8565b604082019050919050565b600061350f603883613c94565b915061351a82614307565b604082019050919050565b6000613532602583613c94565b915061353d82614356565b604082019050919050565b6000613555602a83613c94565b9150613560826143a5565b604082019050919050565b6000613578602983613c94565b9150613583826143f4565b604082019050919050565b600061359b602e83613c94565b91506135a682614443565b604082019050919050565b60006135be602083613c94565b91506135c982614492565b602082019050919050565b60006135e1601e83613c94565b91506135ec826144bb565b602082019050919050565b6000613604602c83613c94565b915061360f826144e4565b604082019050919050565b6000613627601a83613c94565b915061363282614533565b602082019050919050565b600061364a602083613c94565b91506136558261455c565b602082019050919050565b600061366d602f83613c94565b915061367882614585565b604082019050919050565b6000613690602183613c94565b915061369b826145d4565b604082019050919050565b60006136b3603183613c94565b91506136be82614623565b604082019050919050565b60006136d6602b83613c94565b91506136e182614672565b604082019050919050565b60006136f9602283613c94565b9150613704826146c1565b604082019050919050565b600061371c602183613c94565b915061372782614710565b604082019050919050565b61373b81613e39565b82525050565b600061374d82846132a9565b60148201915081905092915050565b60006137688285613350565b91506137748284613350565b91508190509392505050565b6000602082019050613795600083018461329a565b92915050565b60006080820190506137b0600083018761329a565b6137bd602083018661329a565b6137ca6040830185613732565b81810360608301526137dc81846132de565b905095945050505050565b60006020820190506137fc60008301846132c0565b92915050565b600060208201905061381760008301846132cf565b92915050565b600060208201905081810360008301526138378184613317565b905092915050565b6000602082019050818103600083015261385881613381565b9050919050565b60006020820190508181036000830152613878816133a4565b9050919050565b60006020820190508181036000830152613898816133c7565b9050919050565b600060208201905081810360008301526138b8816133ea565b9050919050565b600060208201905081810360008301526138d88161340d565b9050919050565b600060208201905081810360008301526138f881613430565b9050919050565b6000602082019050818103600083015261391881613453565b9050919050565b6000602082019050818103600083015261393881613476565b9050919050565b6000602082019050818103600083015261395881613499565b9050919050565b60006020820190508181036000830152613978816134bc565b9050919050565b60006020820190508181036000830152613998816134df565b9050919050565b600060208201905081810360008301526139b881613502565b9050919050565b600060208201905081810360008301526139d881613525565b9050919050565b600060208201905081810360008301526139f881613548565b9050919050565b60006020820190508181036000830152613a188161356b565b9050919050565b60006020820190508181036000830152613a388161358e565b9050919050565b60006020820190508181036000830152613a58816135b1565b9050919050565b60006020820190508181036000830152613a78816135d4565b9050919050565b60006020820190508181036000830152613a98816135f7565b9050919050565b60006020820190508181036000830152613ab88161361a565b9050919050565b60006020820190508181036000830152613ad88161363d565b9050919050565b60006020820190508181036000830152613af881613660565b9050919050565b60006020820190508181036000830152613b1881613683565b9050919050565b60006020820190508181036000830152613b38816136a6565b9050919050565b60006020820190508181036000830152613b58816136c9565b9050919050565b60006020820190508181036000830152613b78816136ec565b9050919050565b60006020820190508181036000830152613b988161370f565b9050919050565b6000602082019050613bb46000830184613732565b92915050565b6000613bc4613bd5565b9050613bd08282613eb7565b919050565b6000604051905090565b600067ffffffffffffffff821115613bfa57613bf9614013565b5b602082029050602081019050919050565b600067ffffffffffffffff821115613c2657613c25614013565b5b613c2f82614042565b9050602081019050919050565b600067ffffffffffffffff821115613c5757613c56614013565b5b613c6082614042565b9050602081019050919050565b600081519050919050565b600081519050919050565b600082825260208201905092915050565b600082825260208201905092915050565b600081905092915050565b6000613cbb82613e39565b9150613cc683613e39565b9250827fffffffffffffffffffffffffffffffffffffffffffffffffffffffffffffffff03821115613cfb57613cfa613f86565b5b828201905092915050565b6000613d1182613e39565b9150613d1c83613e39565b925082613d2c57613d2b613fb5565b5b828204905092915050565b6000613d4282613e39565b9150613d4d83613e39565b9250817fffffffffffffffffffffffffffffffffffffffffffffffffffffffffffffffff0483118215151615613d8657613d85613f86565b5b828202905092915050565b6000613d9c82613e39565b9150613da783613e39565b925082821015613dba57613db9613f86565b5b828203905092915050565b6000613dd082613e19565b9050919050565b60008115159050919050565b6000819050919050565b60007fffffffff0000000000000000000000000000000000000000000000000000000082169050919050565b600073ffffffffffffffffffffffffffffffffffffffff82169050919050565b6000819050919050565b82818337600083830152505050565b60005b83811015613e70578082015181840152602081019050613e55565b83811115613e7f576000848401525b50505050565b60006002820490506001821680613e9d57607f821691505b60208210811415613eb157613eb0613fe4565b5b50919050565b613ec082614042565b810181811067ffffffffffffffff82111715613edf57613ede614013565b5b80604052505050565b6000613ef382613e39565b91507fffffffffffffffffffffffffffffffffffffffffffffffffffffffffffffffff821415613f2657613f25613f86565b5b600182019050919050565b6000613f3c82613f43565b9050919050565b6000613f4e82614053565b9050919050565b6000613f6082613e39565b9150613f6b83613e39565b925082613f7b57613f7a613fb5565b5b828206905092915050565b7f4e487b7100000000000000000000000000000000000000000000000000000000600052601160045260246000fd5b7f4e487b7100000000000000000000000000000000000000000000000000000000600052601260045260246000fd5b7f4e487b7100000000000000000000000000000000000000000000000000000000600052602260045260246000fd5b7f4e487b7100000000000000000000000000000000000000000000000000000000600052604160045260246000fd5b6000601f19601f8301169050919050565b60008160601b9050919050565b7f426f78203a3a204e6f7420596574204163746976652e00000000000000000000600082015250565b7f4552433732313a207472616e7366657220746f206e6f6e20455243373231526560008201527f63656976657220696d706c656d656e7465720000000000000000000000000000602082015250565b7f4f776e61626c653a206e6577206f776e657220697320746865207a65726f206160008201527f6464726573730000000000000000000000000000000000000000000000000000602082015250565b7f4552433732313a207472616e736665722066726f6d20696e636f72726563742060008201527f6f776e6572000000000000000000000000000000000000000000000000000000602082015250565b7f4552433732313a20746f6b656e20616c7265616479206d696e74656400000000600082015250565b7f6100000000000000000000000000000000000000000000000000000000000000600082015250565b7f4552433732313a207472616e7366657220746f20746865207a65726f2061646460008201527f7265737300000000000000000000000000000000000000000000000000000000602082015250565b7f4552433732313a20617070726f766520746f2063616c6c657200000000000000600082015250565b7f426f78203a3a20416c7265616479206d696e74656420332074696d6573210000600082015250565b7f4552433732313a206f70657261746f7220717565727920666f72206e6f6e657860008201527f697374656e7420746f6b656e0000000000000000000000000000000000000000602082015250565b7f426f78203a3a2043616e6e6f74206d696e74206265796f6e642077686974656c60008201527f697374206d6178206d696e742100000000000000000000000000000000000000602082015250565b7f4552433732313a20617070726f76652063616c6c6572206973206e6f74206f7760008201527f6e6572206e6f7220617070726f76656420666f7220616c6c0000000000000000602082015250565b7f426f78203a3a2043616e6e6f742062652063616c6c6564206279206120636f6e60008201527f7472616374000000000000000000000000000000000000000000000000000000602082015250565b7f4552433732313a2062616c616e636520717565727920666f7220746865207a6560008201527f726f206164647265737300000000000000000000000000000000000000000000602082015250565b7f4552433732313a206f776e657220717565727920666f72206e6f6e657869737460008201527f656e7420746f6b656e0000000000000000000000000000000000000000000000602082015250565b7f496e697469616c697a61626c653a20636f6e747261637420697320616c72656160008201527f647920696e697469616c697a6564000000000000000000000000000000000000602082015250565b7f4552433732313a206d696e7420746f20746865207a65726f2061646472657373600082015250565b7f426f78203a3a20596f7520617265206e6f742077686974656c69737465640000600082015250565b7f4552433732313a20617070726f76656420717565727920666f72206e6f6e657860008201527f697374656e7420746f6b656e0000000000000000000000000000000000000000602082015250565b7f426f78203a3a204d696e74696e67206973206f6e205061757365000000000000600082015250565b7f4f776e61626c653a2063616c6c6572206973206e6f7420746865206f776e6572600082015250565b7f4552433732314d657461646174613a2055524920717565727920666f72206e6f60008201527f6e6578697374656e7420746f6b656e0000000000000000000000000000000000602082015250565b7f4552433732313a20617070726f76616c20746f2063757272656e74206f776e6560008201527f7200000000000000000000000000000000000000000000000000000000000000602082015250565b7f4552433732313a207472616e736665722063616c6c6572206973206e6f74206f60008201527f776e6572206e6f7220617070726f766564000000000000000000000000000000602082015250565b7f496e697469616c697a61626c653a20636f6e7472616374206973206e6f74206960008201527f6e697469616c697a696e67000000000000000000000000000000000000000000602082015250565b7f426f78203a3a205061796d656e742069732062656c6f7720746865207072696360008201527f6520000000000000000000000000000000000000000000000000000000000000602082015250565b7f426f78203a3a205061796d656e742069732062656c6f7720746865207072696360008201527f6500000000000000000000000000000000000000000000000000000000000000602082015250565b61476881613dc5565b811461477357600080fd5b50565b61477f81613dd7565b811461478a57600080fd5b50565b61479681613de3565b81146147a157600080fd5b50565b6147ad81613ded565b81146147b857600080fd5b50565b6147c481613e39565b81146147cf57600080fd5b5056fea264697066735822122044af404165e2b45fec5b481dc21c85222bbf68c03b58278b1cec451072536d6864736f6c63430008040033",
  "linkReferences": {},
  "deployedLinkReferences": {}
}