{
  "_format": "hh-sol-artifact-1",
  "contractName": "BoxV2",
  "sourceName": "contracts/BoxV2.sol",
  "abi": [
    {
      "inputs": [],
      "name": "ApprovalCallerNotOwnerNorApproved",
      "type": "error"
    },
    {
      "inputs": [],
      "name": "ApprovalQueryForNonexistentToken",
      "type": "error"
    },
    {
      "inputs": [],
      "name": "ApprovalToCurrentOwner",
      "type": "error"
    },
    {
      "inputs": [],
      "name": "ApproveToCaller",
      "type": "error"
    },
    {
      "inputs": [],
      "name": "BalanceQueryForZeroAddress",
      "type": "error"
    },
    {
      "inputs": [],
      "name": "MintToZeroAddress",
      "type": "error"
    },
    {
      "inputs": [],
      "name": "MintZeroQuantity",
      "type": "error"
    },
    {
      "inputs": [],
      "name": "OwnerQueryForNonexistentToken",
      "type": "error"
    },
    {
      "inputs": [],
      "name": "TransferCallerNotOwnerNorApproved",
      "type": "error"
    },
    {
      "inputs": [],
      "name": "TransferFromIncorrectOwner",
      "type": "error"
    },
    {
      "inputs": [],
      "name": "TransferToNonERC721ReceiverImplementer",
      "type": "error"
    },
    {
      "inputs": [],
      "name": "TransferToZeroAddress",
      "type": "error"
    },
    {
      "inputs": [],
      "name": "URIQueryForNonexistentToken",
      "type": "error"
    },
    {
      "anonymous": false,
      "inputs": [
        {
          "indexed": true,
          "internalType": "address",
          "name": "owner",
          "type": "address"
        },
        {
          "indexed": true,
          "internalType": "address",
          "name": "approved",
          "type": "address"
        },
        {
          "indexed": true,
          "internalType": "uint256",
          "name": "tokenId",
          "type": "uint256"
        }
      ],
      "name": "Approval",
      "type": "event"
    },
    {
      "anonymous": false,
      "inputs": [
        {
          "indexed": true,
          "internalType": "address",
          "name": "owner",
          "type": "address"
        },
        {
          "indexed": true,
          "internalType": "address",
          "name": "operator",
          "type": "address"
        },
        {
          "indexed": false,
          "internalType": "bool",
          "name": "approved",
          "type": "bool"
        }
      ],
      "name": "ApprovalForAll",
      "type": "event"
    },
    {
      "anonymous": false,
      "inputs": [
        {
          "indexed": true,
          "internalType": "address",
          "name": "previousOwner",
          "type": "address"
        },
        {
          "indexed": true,
          "internalType": "address",
          "name": "newOwner",
          "type": "address"
        }
      ],
      "name": "OwnershipTransferred",
      "type": "event"
    },
    {
      "anonymous": false,
      "inputs": [
        {
          "indexed": true,
          "internalType": "address",
          "name": "from",
          "type": "address"
        },
        {
          "indexed": true,
          "internalType": "address",
          "name": "to",
          "type": "address"
        },
        {
          "indexed": true,
          "internalType": "uint256",
          "name": "tokenId",
          "type": "uint256"
        }
      ],
      "name": "Transfer",
      "type": "event"
    },
    {
      "inputs": [],
      "name": "MAX_PUBLIC_MINT",
      "outputs": [
        {
          "internalType": "uint256",
          "name": "",
          "type": "uint256"
        }
      ],
      "stateMutability": "view",
      "type": "function"
    },
    {
      "inputs": [],
      "name": "MAX_SUPPLY",
      "outputs": [
        {
          "internalType": "uint256",
          "name": "",
          "type": "uint256"
        }
      ],
      "stateMutability": "view",
      "type": "function"
    },
    {
      "inputs": [],
      "name": "MAX_WHITELIST_MINT",
      "outputs": [
        {
          "internalType": "uint256",
          "name": "",
          "type": "uint256"
        }
      ],
      "stateMutability": "view",
      "type": "function"
    },
    {
      "inputs": [],
      "name": "PUBLIC_SALE_PRICE",
      "outputs": [
        {
          "internalType": "uint256",
          "name": "",
          "type": "uint256"
        }
      ],
      "stateMutability": "view",
      "type": "function"
    },
    {
      "inputs": [],
      "name": "WHITELIST_SALE_PRICE",
      "outputs": [
        {
          "internalType": "uint256",
          "name": "",
          "type": "uint256"
        }
      ],
      "stateMutability": "view",
      "type": "function"
    },
    {
      "inputs": [
        {
          "internalType": "address",
          "name": "to",
          "type": "address"
        },
        {
          "internalType": "uint256",
          "name": "tokenId",
          "type": "uint256"
        }
      ],
      "name": "approve",
      "outputs": [],
      "stateMutability": "nonpayable",
      "type": "function"
    },
    {
      "inputs": [
        {
          "internalType": "address",
          "name": "owner",
          "type": "address"
        }
      ],
      "name": "balanceOf",
      "outputs": [
        {
          "internalType": "uint256",
          "name": "",
          "type": "uint256"
        }
      ],
      "stateMutability": "view",
      "type": "function"
    },
    {
      "inputs": [
        {
          "internalType": "uint256",
          "name": "tokenId",
          "type": "uint256"
        }
      ],
      "name": "getApproved",
      "outputs": [
        {
          "internalType": "address",
          "name": "",
          "type": "address"
        }
      ],
      "stateMutability": "view",
      "type": "function"
    },
    {
      "inputs": [],
      "name": "getMerkleRoot",
      "outputs": [
        {
          "internalType": "bytes32",
          "name": "",
          "type": "bytes32"
        }
      ],
      "stateMutability": "view",
      "type": "function"
    },
    {
      "inputs": [],
      "name": "initialize",
      "outputs": [],
      "stateMutability": "nonpayable",
      "type": "function"
    },
    {
      "inputs": [
        {
          "internalType": "address",
          "name": "owner",
          "type": "address"
        },
        {
          "internalType": "address",
          "name": "operator",
          "type": "address"
        }
      ],
      "name": "isApprovedForAll",
      "outputs": [
        {
          "internalType": "bool",
          "name": "",
          "type": "bool"
        }
      ],
      "stateMutability": "view",
      "type": "function"
    },
    {
      "inputs": [],
      "name": "isRevealed",
      "outputs": [
        {
          "internalType": "bool",
          "name": "",
          "type": "bool"
        }
      ],
      "stateMutability": "view",
      "type": "function"
    },
    {
      "inputs": [
        {
          "internalType": "uint256",
          "name": "_quantity",
          "type": "uint256"
        }
      ],
      "name": "mint",
      "outputs": [],
      "stateMutability": "payable",
      "type": "function"
    },
    {
      "inputs": [],
      "name": "name",
      "outputs": [
        {
          "internalType": "string",
          "name": "",
          "type": "string"
        }
      ],
      "stateMutability": "view",
      "type": "function"
    },
    {
      "inputs": [],
      "name": "owner",
      "outputs": [
        {
          "internalType": "address",
          "name": "",
          "type": "address"
        }
      ],
      "stateMutability": "view",
      "type": "function"
    },
    {
      "inputs": [
        {
          "internalType": "uint256",
          "name": "tokenId",
          "type": "uint256"
        }
      ],
      "name": "ownerOf",
      "outputs": [
        {
          "internalType": "address",
          "name": "",
          "type": "address"
        }
      ],
      "stateMutability": "view",
      "type": "function"
    },
    {
      "inputs": [],
      "name": "pause",
      "outputs": [
        {
          "internalType": "bool",
          "name": "",
          "type": "bool"
        }
      ],
      "stateMutability": "view",
      "type": "function"
    },
    {
      "inputs": [],
      "name": "publicSale",
      "outputs": [
        {
          "internalType": "bool",
          "name": "",
          "type": "bool"
        }
      ],
      "stateMutability": "view",
      "type": "function"
    },
    {
      "inputs": [],
      "name": "renounceOwnership",
      "outputs": [],
      "stateMutability": "nonpayable",
      "type": "function"
    },
    {
      "inputs": [
        {
          "internalType": "address",
          "name": "from",
          "type": "address"
        },
        {
          "internalType": "address",
          "name": "to",
          "type": "address"
        },
        {
          "internalType": "uint256",
          "name": "tokenId",
          "type": "uint256"
        }
      ],
      "name": "safeTransferFrom",
      "outputs": [],
      "stateMutability": "nonpayable",
      "type": "function"
    },
    {
      "inputs": [
        {
          "internalType": "address",
          "name": "from",
          "type": "address"
        },
        {
          "internalType": "address",
          "name": "to",
          "type": "address"
        },
        {
          "internalType": "uint256",
          "name": "tokenId",
          "type": "uint256"
        },
        {
          "internalType": "bytes",
          "name": "_data",
          "type": "bytes"
        }
      ],
      "name": "safeTransferFrom",
      "outputs": [],
      "stateMutability": "nonpayable",
      "type": "function"
    },
    {
      "inputs": [
        {
          "internalType": "address",
          "name": "operator",
          "type": "address"
        },
        {
          "internalType": "bool",
          "name": "approved",
          "type": "bool"
        }
      ],
      "name": "setApprovalForAll",
      "outputs": [],
      "stateMutability": "nonpayable",
      "type": "function"
    },
    {
      "inputs": [
        {
          "internalType": "bytes32",
          "name": "_merkleRoot",
          "type": "bytes32"
        }
      ],
      "name": "setMerkleRoot",
      "outputs": [],
      "stateMutability": "nonpayable",
      "type": "function"
    },
    {
      "inputs": [
        {
          "internalType": "string",
          "name": "_baseTokenUri",
          "type": "string"
        }
      ],
      "name": "setTokenUri",
      "outputs": [],
      "stateMutability": "nonpayable",
      "type": "function"
    },
    {
      "inputs": [
        {
          "internalType": "bytes4",
          "name": "interfaceId",
          "type": "bytes4"
        }
      ],
      "name": "supportsInterface",
      "outputs": [
        {
          "internalType": "bool",
          "name": "",
          "type": "bool"
        }
      ],
      "stateMutability": "view",
      "type": "function"
    },
    {
      "inputs": [],
      "name": "symbol",
      "outputs": [
        {
          "internalType": "string",
          "name": "",
          "type": "string"
        }
      ],
      "stateMutability": "view",
      "type": "function"
    },
    {
      "inputs": [],
      "name": "togglePause",
      "outputs": [],
      "stateMutability": "nonpayable",
      "type": "function"
    },
    {
      "inputs": [],
      "name": "togglePublicSale",
      "outputs": [],
      "stateMutability": "nonpayable",
      "type": "function"
    },
    {
      "inputs": [],
      "name": "toggleReveal",
      "outputs": [],
      "stateMutability": "nonpayable",
      "type": "function"
    },
    {
      "inputs": [],
      "name": "toggleWhiteListSale",
      "outputs": [],
      "stateMutability": "nonpayable",
      "type": "function"
    },
    {
      "inputs": [
        {
          "internalType": "uint256",
          "name": "tokenId",
          "type": "uint256"
        }
      ],
      "name": "tokenURI",
      "outputs": [
        {
          "internalType": "string",
          "name": "",
          "type": "string"
        }
      ],
      "stateMutability": "view",
      "type": "function"
    },
    {
      "inputs": [
        {
          "internalType": "address",
          "name": "",
          "type": "address"
        }
      ],
      "name": "totalPublicMint",
      "outputs": [
        {
          "internalType": "uint256",
          "name": "",
          "type": "uint256"
        }
      ],
      "stateMutability": "view",
      "type": "function"
    },
    {
      "inputs": [],
      "name": "totalSupply",
      "outputs": [
        {
          "internalType": "uint256",
          "name": "",
          "type": "uint256"
        }
      ],
      "stateMutability": "view",
      "type": "function"
    },
    {
      "inputs": [
        {
          "internalType": "address",
          "name": "",
          "type": "address"
        }
      ],
      "name": "totalWhitelistMint",
      "outputs": [
        {
          "internalType": "uint256",
          "name": "",
          "type": "uint256"
        }
      ],
      "stateMutability": "view",
      "type": "function"
    },
    {
      "inputs": [
        {
          "internalType": "address",
          "name": "from",
          "type": "address"
        },
        {
          "internalType": "address",
          "name": "to",
          "type": "address"
        },
        {
          "internalType": "uint256",
          "name": "tokenId",
          "type": "uint256"
        }
      ],
      "name": "transferFrom",
      "outputs": [],
      "stateMutability": "nonpayable",
      "type": "function"
    },
    {
      "inputs": [
        {
          "internalType": "address",
          "name": "newOwner",
          "type": "address"
        }
      ],
      "name": "transferOwnership",
      "outputs": [],
      "stateMutability": "nonpayable",
      "type": "function"
    },
    {
      "inputs": [],
      "name": "version",
      "outputs": [
        {
          "internalType": "string",
          "name": "",
          "type": "string"
        }
      ],
      "stateMutability": "pure",
      "type": "function"
    },
    {
      "inputs": [],
      "name": "whiteListSale",
      "outputs": [
        {
          "internalType": "bool",
          "name": "",
          "type": "bool"
        }
      ],
      "stateMutability": "view",
      "type": "function"
    },
    {
      "inputs": [
        {
          "internalType": "bytes32[]",
          "name": "_merkleProof",
          "type": "bytes32[]"
        },
        {
          "internalType": "uint256",
          "name": "_quantity",
          "type": "uint256"
        }
      ],
      "name": "whitelistMint",
      "outputs": [],
      "stateMutability": "payable",
      "type": "function"
    },
    {
      "inputs": [],
      "name": "withdraw",
      "outputs": [],
      "stateMutability": "nonpayable",
      "type": "function"
    }
  ],
  "bytecode": "0x608060405234801561001057600080fd5b50614583806100206000396000f3fe60806040526004361061023b5760003560e01c806365f130971161012e578063a0712d68116100ab578063c4ae31681161006f578063c4ae3168146107fd578063c87b56dd14610814578063e222c7f914610851578063e985e9c514610868578063f2fde38b146108a55761023b565b8063a0712d6814610739578063a22cb46514610755578063b88d4fde1461077e578063bc912e1a146107a7578063c08dfd3c146107d25761023b565b80638456cb59116100f25780638456cb591461067657806386a173ee146106a15780638bb64a8c146106cc5780638da5cb5b146106e357806395d89b411461070e5761023b565b806365f13097146105b757806370a08231146105e2578063715018a61461061f5780637cb64759146106365780638129fc1c1461065f5761023b565b80632904e6d9116101bc578063495906571161018057806349590657146104e257806354214f691461050d57806354fd4d50146105385780635b8ad429146105635780636352211e1461057a5761023b565b80632904e6d91461043057806332cb6b0c1461044c57806333bc1c5c146104775780633ccfd60b146104a257806342842e0e146104b95761023b565b8063081812fc11610203578063081812fc14610339578063095ea7b31461037657806318160ddd1461039f5780631c16521c146103ca57806323b872dd146104075761023b565b806301ffc9a7146102405780630345e3cb1461027d5780630675b7c6146102ba57806306fdde03146102e357806307e89ec01461030e575b600080fd5b34801561024c57600080fd5b50610267600480360381019061026291906135fa565b6108ce565b6040516102749190613a6a565b60405180910390f35b34801561028957600080fd5b506102a4600480360381019061029f91906133d6565b6109b0565b6040516102b19190613c82565b60405180910390f35b3480156102c657600080fd5b506102e160048036038101906102dc919061364c565b6109c8565b005b3480156102ef57600080fd5b506102f8610a5e565b6040516103059190613aa0565b60405180910390f35b34801561031a57600080fd5b50610323610af0565b6040516103309190613c82565b60405180910390f35b34801561034557600080fd5b50610360600480360381019061035b919061368d565b610afb565b60405161036d9190613a03565b60405180910390f35b34801561038257600080fd5b5061039d60048036038101906103989190613541565b610b77565b005b3480156103ab57600080fd5b506103b4610c82565b6040516103c19190613c82565b60405180910390f35b3480156103d657600080fd5b506103f160048036038101906103ec91906133d6565b610c8c565b6040516103fe9190613c82565b60405180910390f35b34801561041357600080fd5b5061042e6004803603810190610429919061343b565b610ca4565b005b61044a6004803603810190610445919061357d565b610cb4565b005b34801561045857600080fd5b50610461610f87565b60405161046e9190613c82565b60405180910390f35b34801561048357600080fd5b5061048c610f8d565b6040516104999190613a6a565b60405180910390f35b3480156104ae57600080fd5b506104b7610fa0565b005b3480156104c557600080fd5b506104e060048036038101906104db919061343b565b611065565b005b3480156104ee57600080fd5b506104f7611085565b6040516105049190613a85565b60405180910390f35b34801561051957600080fd5b5061052261108f565b60405161052f9190613a6a565b60405180910390f35b34801561054457600080fd5b5061054d6110a2565b60405161055a9190613aa0565b60405180910390f35b34801561056f57600080fd5b506105786110df565b005b34801561058657600080fd5b506105a1600480360381019061059c919061368d565b611187565b6040516105ae9190613a03565b60405180910390f35b3480156105c357600080fd5b506105cc61119d565b6040516105d99190613c82565b60405180910390f35b3480156105ee57600080fd5b50610609600480360381019061060491906133d6565b6111a2565b6040516106169190613c82565b60405180910390f35b34801561062b57600080fd5b50610634611272565b005b34801561064257600080fd5b5061065d600480360381019061065891906135d1565b6112fa565b005b34801561066b57600080fd5b50610674611380565b005b34801561068257600080fd5b5061068b6114e0565b6040516106989190613a6a565b60405180910390f35b3480156106ad57600080fd5b506106b66114f3565b6040516106c39190613a6a565b60405180910390f35b3480156106d857600080fd5b506106e1611506565b005b3480156106ef57600080fd5b506106f86115ae565b6040516107059190613a03565b60405180910390f35b34801561071a57600080fd5b506107236115d8565b6040516107309190613aa0565b60405180910390f35b610753600480360381019061074e919061368d565b61166a565b005b34801561076157600080fd5b5061077c60048036038101906107779190613505565b6118c4565b005b34801561078a57600080fd5b506107a560048036038101906107a0919061348a565b611a3c565b005b3480156107b357600080fd5b506107bc611a8f565b6040516107c99190613c82565b60405180910390f35b3480156107de57600080fd5b506107e7611a9a565b6040516107f49190613c82565b60405180910390f35b34801561080957600080fd5b50610812611a9f565b005b34801561082057600080fd5b5061083b6004803603810190610836919061368d565b611b47565b6040516108489190613aa0565b60405180910390f35b34801561085d57600080fd5b50610866611be6565b005b34801561087457600080fd5b5061088f600480360381019061088a91906133ff565b611c8e565b60405161089c9190613a6a565b60405180910390f35b3480156108b157600080fd5b506108cc60048036038101906108c791906133d6565b611d22565b005b60007f80ac58cd000000000000000000000000000000000000000000000000000000007bffffffffffffffffffffffffffffffffffffffffffffffffffffffff1916827bffffffffffffffffffffffffffffffffffffffffffffffffffffffff1916148061099957507f5b5e139f000000000000000000000000000000000000000000000000000000007bffffffffffffffffffffffffffffffffffffffffffffffffffffffff1916827bffffffffffffffffffffffffffffffffffffffffffffffffffffffff1916145b806109a957506109a882611e1a565b5b9050919050565b60a26020528060005260406000206000915090505481565b6109d0611e84565b73ffffffffffffffffffffffffffffffffffffffff166109ee6115ae565b73ffffffffffffffffffffffffffffffffffffffff1614610a44576040517f08c379a0000000000000000000000000000000000000000000000000000000008152600401610a3b90613be2565b60405180910390fd5b80609e9080519060200190610a5a929190613115565b5050565b606060668054610a6d90613f68565b80601f0160208091040260200160405190810160405280929190818152602001828054610a9990613f68565b8015610ae65780601f10610abb57610100808354040283529160200191610ae6565b820191906000526020600020905b815481529060010190602001808311610ac957829003601f168201915b5050505050905090565b661ff973cafa800081565b6000610b0682611e8c565b610b3c576040517fcf4700e400000000000000000000000000000000000000000000000000000000815260040160405180910390fd5b606a600083815260200190815260200160002060009054906101000a900473ffffffffffffffffffffffffffffffffffffffff169050919050565b6000610b8282611187565b90508073ffffffffffffffffffffffffffffffffffffffff168373ffffffffffffffffffffffffffffffffffffffff161415610bea576040517f943f7b8c00000000000000000000000000000000000000000000000000000000815260040160405180910390fd5b8073ffffffffffffffffffffffffffffffffffffffff16610c09611e84565b73ffffffffffffffffffffffffffffffffffffffff1614158015610c3b5750610c3981610c34611e84565b611c8e565b155b15610c72576040517fcfb3b94200000000000000000000000000000000000000000000000000000000815260040160405180910390fd5b610c7d838383611e9a565b505050565b6000606554905090565b60a16020528060005260406000206000915090505481565b610caf838383611f4c565b505050565b3373ffffffffffffffffffffffffffffffffffffffff163273ffffffffffffffffffffffffffffffffffffffff1614610d22576040517f08c379a0000000000000000000000000000000000000000000000000000000008152600401610d1990613b42565b60405180910390fd5b609f60029054906101000a900460ff16610d71576040517f08c379a0000000000000000000000000000000000000000000000000000000008152600401610d6890613bc2565b60405180910390fd5b611e6181610d7d610c82565b610d879190613d93565b1115610dc8576040517f08c379a0000000000000000000000000000000000000000000000000000000008152600401610dbf90613b82565b60405180910390fd5b60038160a260003373ffffffffffffffffffffffffffffffffffffffff1673ffffffffffffffffffffffffffffffffffffffff16815260200190815260200160002054610e159190613d93565b1115610e56576040517f08c379a0000000000000000000000000000000000000000000000000000000008152600401610e4d90613b22565b60405180910390fd5b8066071afd498d0000610e699190613e1a565b341015610eab576040517f08c379a0000000000000000000000000000000000000000000000000000000008152600401610ea290613c42565b60405180910390fd5b600033604051602001610ebe91906139b9565b604051602081830303815290604052805190602001209050610ee38360a0548361243d565b610f22576040517f08c379a0000000000000000000000000000000000000000000000000000000008152600401610f1990613ba2565b60405180910390fd5b8160a260003373ffffffffffffffffffffffffffffffffffffffff1673ffffffffffffffffffffffffffffffffffffffff1681526020019081526020016000206000828254610f719190613d93565b92505081905550610f823383612454565b505050565b611e6181565b609f60019054906101000a900460ff1681565b610fa8611e84565b73ffffffffffffffffffffffffffffffffffffffff16610fc66115ae565b73ffffffffffffffffffffffffffffffffffffffff161461101c576040517f08c379a000000000000000000000000000000000000000000000000000000000815260040161101390613be2565b60405180910390fd5b3373ffffffffffffffffffffffffffffffffffffffff166108fc479081150290604051600060405180830381858888f19350505050158015611062573d6000803e3d6000fd5b50565b61108083838360405180602001604052806000815250611a3c565b505050565b600060a054905090565b609f60009054906101000a900460ff1681565b60606040518060400160405280600581526020017f312e302e31000000000000000000000000000000000000000000000000000000815250905090565b6110e7611e84565b73ffffffffffffffffffffffffffffffffffffffff166111056115ae565b73ffffffffffffffffffffffffffffffffffffffff161461115b576040517f08c379a000000000000000000000000000000000000000000000000000000000815260040161115290613be2565b60405180910390fd5b609f60009054906101000a900460ff1615609f60006101000a81548160ff021916908315150217905550565b600061119282612472565b600001519050919050565b600a81565b60008073ffffffffffffffffffffffffffffffffffffffff168273ffffffffffffffffffffffffffffffffffffffff16141561120a576040517f8f4eb60400000000000000000000000000000000000000000000000000000000815260040160405180910390fd5b606960008373ffffffffffffffffffffffffffffffffffffffff1673ffffffffffffffffffffffffffffffffffffffff16815260200190815260200160002060000160009054906101000a900467ffffffffffffffff1667ffffffffffffffff169050919050565b61127a611e84565b73ffffffffffffffffffffffffffffffffffffffff166112986115ae565b73ffffffffffffffffffffffffffffffffffffffff16146112ee576040517f08c379a00000000000000000000000000000000000000000000000000000000081526004016112e590613be2565b60405180910390fd5b6112f860006126ae565b565b611302611e84565b73ffffffffffffffffffffffffffffffffffffffff166113206115ae565b73ffffffffffffffffffffffffffffffffffffffff1614611376576040517f08c379a000000000000000000000000000000000000000000000000000000000815260040161136d90613be2565b60405180910390fd5b8060a08190555050565b600060019054906101000a900460ff166113a85760008054906101000a900460ff16156113b1565b6113b0612774565b5b6113f0576040517f08c379a00000000000000000000000000000000000000000000000000000000081526004016113e790613b62565b60405180910390fd5b60008060019054906101000a900460ff161590508015611440576001600060016101000a81548160ff02191690831515021790555060016000806101000a81548160ff0219169083151502179055505b6114b46040518060400160405280600381526020017f426f7800000000000000000000000000000000000000000000000000000000008152506040518060400160405280600381526020017f424f580000000000000000000000000000000000000000000000000000000000815250612785565b6114bc6127e2565b80156114dd5760008060016101000a81548160ff0219169083151502179055505b50565b609f60039054906101000a900460ff1681565b609f60029054906101000a900460ff1681565b61150e611e84565b73ffffffffffffffffffffffffffffffffffffffff1661152c6115ae565b73ffffffffffffffffffffffffffffffffffffffff1614611582576040517f08c379a000000000000000000000000000000000000000000000000000000000815260040161157990613be2565b60405180910390fd5b609f60029054906101000a900460ff1615609f60026101000a81548160ff021916908315150217905550565b6000606c60009054906101000a900473ffffffffffffffffffffffffffffffffffffffff16905090565b6060606780546115e790613f68565b80601f016020809104026020016040519081016040528092919081815260200182805461161390613f68565b80156116605780601f1061163557610100808354040283529160200191611660565b820191906000526020600020905b81548152906001019060200180831161164357829003601f168201915b5050505050905090565b3373ffffffffffffffffffffffffffffffffffffffff163273ffffffffffffffffffffffffffffffffffffffff16146116d8576040517f08c379a00000000000000000000000000000000000000000000000000000000081526004016116cf90613b42565b60405180910390fd5b609f60019054906101000a900460ff16611727576040517f08c379a000000000000000000000000000000000000000000000000000000000815260040161171e90613ac2565b60405180910390fd5b611e6181611733610c82565b61173d9190613d93565b111561177e576040517f08c379a000000000000000000000000000000000000000000000000000000000815260040161177590613c62565b60405180910390fd5b600a8160a160003373ffffffffffffffffffffffffffffffffffffffff1673ffffffffffffffffffffffffffffffffffffffff168152602001908152602001600020546117cb9190613d93565b111561180c576040517f08c379a000000000000000000000000000000000000000000000000000000000815260040161180390613b02565b60405180910390fd5b80661ff973cafa800061181f9190613e1a565b341015611861576040517f08c379a000000000000000000000000000000000000000000000000000000000815260040161185890613c22565b60405180910390fd5b8060a160003373ffffffffffffffffffffffffffffffffffffffff1673ffffffffffffffffffffffffffffffffffffffff16815260200190815260200160002060008282546118b09190613d93565b925050819055506118c13382612454565b50565b6118cc611e84565b73ffffffffffffffffffffffffffffffffffffffff168273ffffffffffffffffffffffffffffffffffffffff161415611931576040517fb06307db00000000000000000000000000000000000000000000000000000000815260040160405180910390fd5b80606b600061193e611e84565b73ffffffffffffffffffffffffffffffffffffffff1673ffffffffffffffffffffffffffffffffffffffff16815260200190815260200160002060008473ffffffffffffffffffffffffffffffffffffffff1673ffffffffffffffffffffffffffffffffffffffff16815260200190815260200160002060006101000a81548160ff0219169083151502179055508173ffffffffffffffffffffffffffffffffffffffff166119eb611e84565b73ffffffffffffffffffffffffffffffffffffffff167f17307eab39ab6107e8899845ad3d59bd9653f200f220920489ca2b5937696c3183604051611a309190613a6a565b60405180910390a35050565b611a47848484611f4c565b611a538484848461283b565b611a89576040517fd1a57ed600000000000000000000000000000000000000000000000000000000815260040160405180910390fd5b50505050565b66071afd498d000081565b600381565b611aa7611e84565b73ffffffffffffffffffffffffffffffffffffffff16611ac56115ae565b73ffffffffffffffffffffffffffffffffffffffff1614611b1b576040517f08c379a0000000000000000000000000000000000000000000000000000000008152600401611b1290613be2565b60405180910390fd5b609f60039054906101000a900460ff1615609f60036101000a81548160ff021916908315150217905550565b6060611b5282611e8c565b611b88576040517fa14c4b5000000000000000000000000000000000000000000000000000000000815260040160405180910390fd5b6000611b926129c9565b9050600081511415611bb35760405180602001604052806000815250611bde565b80611bbd84612a5b565b604051602001611bce9291906139d4565b6040516020818303038152906040525b915050919050565b611bee611e84565b73ffffffffffffffffffffffffffffffffffffffff16611c0c6115ae565b73ffffffffffffffffffffffffffffffffffffffff1614611c62576040517f08c379a0000000000000000000000000000000000000000000000000000000008152600401611c5990613be2565b60405180910390fd5b609f60019054906101000a900460ff1615609f60016101000a81548160ff021916908315150217905550565b6000606b60008473ffffffffffffffffffffffffffffffffffffffff1673ffffffffffffffffffffffffffffffffffffffff16815260200190815260200160002060008373ffffffffffffffffffffffffffffffffffffffff1673ffffffffffffffffffffffffffffffffffffffff16815260200190815260200160002060009054906101000a900460ff16905092915050565b611d2a611e84565b73ffffffffffffffffffffffffffffffffffffffff16611d486115ae565b73ffffffffffffffffffffffffffffffffffffffff1614611d9e576040517f08c379a0000000000000000000000000000000000000000000000000000000008152600401611d9590613be2565b60405180910390fd5b600073ffffffffffffffffffffffffffffffffffffffff168173ffffffffffffffffffffffffffffffffffffffff161415611e0e576040517f08c379a0000000000000000000000000000000000000000000000000000000008152600401611e0590613ae2565b60405180910390fd5b611e17816126ae565b50565b60007f01ffc9a7000000000000000000000000000000000000000000000000000000007bffffffffffffffffffffffffffffffffffffffffffffffffffffffff1916827bffffffffffffffffffffffffffffffffffffffffffffffffffffffff1916149050919050565b600033905090565b600060655482109050919050565b82606a600084815260200190815260200160002060006101000a81548173ffffffffffffffffffffffffffffffffffffffff021916908373ffffffffffffffffffffffffffffffffffffffff160217905550818373ffffffffffffffffffffffffffffffffffffffff168273ffffffffffffffffffffffffffffffffffffffff167f8c5be1e5ebec7d5bd14f71427d1e84f3dd0314c0f7b2291e5b200ac8c7c3b92560405160405180910390a4505050565b6000611f5782612472565b90506000816000015173ffffffffffffffffffffffffffffffffffffffff16611f7e611e84565b73ffffffffffffffffffffffffffffffffffffffff161480611fb15750611fb08260000151611fab611e84565b611c8e565b5b80611ff65750611fbf611e84565b73ffffffffffffffffffffffffffffffffffffffff16611fde84610afb565b73ffffffffffffffffffffffffffffffffffffffff16145b90508061202f576040517f59c896be00000000000000000000000000000000000000000000000000000000815260040160405180910390fd5b8473ffffffffffffffffffffffffffffffffffffffff16826000015173ffffffffffffffffffffffffffffffffffffffff1614612098576040517fa114810000000000000000000000000000000000000000000000000000000000815260040160405180910390fd5b600073ffffffffffffffffffffffffffffffffffffffff168473ffffffffffffffffffffffffffffffffffffffff1614156120ff576040517fea553b3400000000000000000000000000000000000000000000000000000000815260040160405180910390fd5b61210c8585856001612c08565b61211c6000848460000151611e9a565b6001606960008773ffffffffffffffffffffffffffffffffffffffff1673ffffffffffffffffffffffffffffffffffffffff16815260200190815260200160002060000160008282829054906101000a900467ffffffffffffffff160392506101000a81548167ffffffffffffffff021916908367ffffffffffffffff1602179055506001606960008673ffffffffffffffffffffffffffffffffffffffff1673ffffffffffffffffffffffffffffffffffffffff16815260200190815260200160002060000160008282829054906101000a900467ffffffffffffffff160192506101000a81548167ffffffffffffffff021916908367ffffffffffffffff160217905550836068600085815260200190815260200160002060000160006101000a81548173ffffffffffffffffffffffffffffffffffffffff021916908373ffffffffffffffffffffffffffffffffffffffff160217905550426068600085815260200190815260200160002060000160146101000a81548167ffffffffffffffff021916908367ffffffffffffffff1602179055506000600184019050600073ffffffffffffffffffffffffffffffffffffffff166068600083815260200190815260200160002060000160009054906101000a900473ffffffffffffffffffffffffffffffffffffffff1673ffffffffffffffffffffffffffffffffffffffff1614156123cd576065548110156123cc5782600001516068600083815260200190815260200160002060000160006101000a81548173ffffffffffffffffffffffffffffffffffffffff021916908373ffffffffffffffffffffffffffffffffffffffff16021790555082602001516068600083815260200190815260200160002060000160146101000a81548167ffffffffffffffff021916908367ffffffffffffffff1602179055505b5b50828473ffffffffffffffffffffffffffffffffffffffff168673ffffffffffffffffffffffffffffffffffffffff167fddf252ad1be2c89b69c2b068fc378daa952ba7f163c4a11628f55a4df523b3ef60405160405180910390a46124368585856001612c0e565b5050505050565b60008261244a8584612c14565b1490509392505050565b61246e828260405180602001604052806000815250612caf565b5050565b61247a61319b565b6000829050606554811015612677576000606860008381526020019081526020016000206040518060400160405290816000820160009054906101000a900473ffffffffffffffffffffffffffffffffffffffff1673ffffffffffffffffffffffffffffffffffffffff1673ffffffffffffffffffffffffffffffffffffffff1681526020016000820160149054906101000a900467ffffffffffffffff1667ffffffffffffffff1667ffffffffffffffff16815250509050600073ffffffffffffffffffffffffffffffffffffffff16816000015173ffffffffffffffffffffffffffffffffffffffff16146125755780925050506126a9565b5b60011561267557818060019003925050606860008381526020019081526020016000206040518060400160405290816000820160009054906101000a900473ffffffffffffffffffffffffffffffffffffffff1673ffffffffffffffffffffffffffffffffffffffff1673ffffffffffffffffffffffffffffffffffffffff1681526020016000820160149054906101000a900467ffffffffffffffff1667ffffffffffffffff1667ffffffffffffffff16815250509050600073ffffffffffffffffffffffffffffffffffffffff16816000015173ffffffffffffffffffffffffffffffffffffffff16146126705780925050506126a9565b612576565b505b6040517fdf2d9b4200000000000000000000000000000000000000000000000000000000815260040160405180910390fd5b919050565b6000606c60009054906101000a900473ffffffffffffffffffffffffffffffffffffffff16905081606c60006101000a81548173ffffffffffffffffffffffffffffffffffffffff021916908373ffffffffffffffffffffffffffffffffffffffff1602179055508173ffffffffffffffffffffffffffffffffffffffff168173ffffffffffffffffffffffffffffffffffffffff167f8be0079c531659141344cd1fd0a4f28419497f9722a3daafe3b4186f6b6457e060405160405180910390a35050565b600061277f30612cc1565b15905090565b600060019054906101000a900460ff166127d4576040517f08c379a00000000000000000000000000000000000000000000000000000000081526004016127cb90613c02565b60405180910390fd5b6127de8282612ce4565b5050565b600060019054906101000a900460ff16612831576040517f08c379a000000000000000000000000000000000000000000000000000000000815260040161282890613c02565b60405180910390fd5b612839612d65565b565b600061285c8473ffffffffffffffffffffffffffffffffffffffff16612cc1565b156129bc578373ffffffffffffffffffffffffffffffffffffffff1663150b7a02612885611e84565b8786866040518563ffffffff1660e01b81526004016128a79493929190613a1e565b602060405180830381600087803b1580156128c157600080fd5b505af19250505080156128f257506040513d601f19601f820116820180604052508101906128ef9190613623565b60015b61296c573d8060008114612922576040519150601f19603f3d011682016040523d82523d6000602084013e612927565b606091505b50600081511415612964576040517fd1a57ed600000000000000000000000000000000000000000000000000000000815260040160405180910390fd5b805181602001fd5b63150b7a0260e01b7bffffffffffffffffffffffffffffffffffffffffffffffffffffffff1916817bffffffffffffffffffffffffffffffffffffffffffffffffffffffff1916149150506129c1565b600190505b949350505050565b6060609e80546129d890613f68565b80601f0160208091040260200160405190810160405280929190818152602001828054612a0490613f68565b8015612a515780601f10612a2657610100808354040283529160200191612a51565b820191906000526020600020905b815481529060010190602001808311612a3457829003601f168201915b5050505050905090565b60606000821415612aa3576040518060400160405280600181526020017f30000000000000000000000000000000000000000000000000000000000000008152509050612c03565b600082905060005b60008214612ad5578080612abe90613fcb565b915050600a82612ace9190613de9565b9150612aab565b60008167ffffffffffffffff811115612b17577f4e487b7100000000000000000000000000000000000000000000000000000000600052604160045260246000fd5b6040519080825280601f01601f191660200182016040528015612b495781602001600182028036833780820191505090505b5090505b60008514612bfc57600182612b629190613e74565b9150600a85612b719190614038565b6030612b7d9190613d93565b60f81b818381518110612bb9577f4e487b7100000000000000000000000000000000000000000000000000000000600052603260045260246000fd5b60200101907effffffffffffffffffffffffffffffffffffffffffffffffffffffffffffff1916908160001a905350600a85612bf59190613de9565b9450612b4d565b8093505050505b919050565b50505050565b50505050565b60008082905060005b8451811015612ca4576000858281518110612c61577f4e487b7100000000000000000000000000000000000000000000000000000000600052603260045260246000fd5b60200260200101519050808311612c8357612c7c8382612dc6565b9250612c90565b612c8d8184612dc6565b92505b508080612c9c90613fcb565b915050612c1d565b508091505092915050565b612cbc8383836001612ddd565b505050565b6000808273ffffffffffffffffffffffffffffffffffffffff163b119050919050565b600060019054906101000a900460ff16612d33576040517f08c379a0000000000000000000000000000000000000000000000000000000008152600401612d2a90613c02565b60405180910390fd5b8160669080519060200190612d49929190613115565b508060679080519060200190612d60929190613115565b505050565b600060019054906101000a900460ff16612db4576040517f08c379a0000000000000000000000000000000000000000000000000000000008152600401612dab90613c02565b60405180910390fd5b612dc4612dbf611e84565b6126ae565b565b600082600052816020526040600020905092915050565b60006065549050600073ffffffffffffffffffffffffffffffffffffffff168573ffffffffffffffffffffffffffffffffffffffff161415612e4b576040517f2e07630000000000000000000000000000000000000000000000000000000000815260040160405180910390fd5b6000841415612e86576040517fb562e8dd00000000000000000000000000000000000000000000000000000000815260040160405180910390fd5b612e936000868387612c08565b83606960008773ffffffffffffffffffffffffffffffffffffffff1673ffffffffffffffffffffffffffffffffffffffff16815260200190815260200160002060000160008282829054906101000a900467ffffffffffffffff160192506101000a81548167ffffffffffffffff021916908367ffffffffffffffff16021790555083606960008773ffffffffffffffffffffffffffffffffffffffff1673ffffffffffffffffffffffffffffffffffffffff16815260200190815260200160002060000160088282829054906101000a900467ffffffffffffffff160192506101000a81548167ffffffffffffffff021916908367ffffffffffffffff160217905550846068600083815260200190815260200160002060000160006101000a81548173ffffffffffffffffffffffffffffffffffffffff021916908373ffffffffffffffffffffffffffffffffffffffff160217905550426068600083815260200190815260200160002060000160146101000a81548167ffffffffffffffff021916908367ffffffffffffffff160217905550600081905060005b858110156130f857818773ffffffffffffffffffffffffffffffffffffffff16600073ffffffffffffffffffffffffffffffffffffffff167fddf252ad1be2c89b69c2b068fc378daa952ba7f163c4a11628f55a4df523b3ef60405160405180910390a48380156130ac57506130aa600088848861283b565b155b156130e3576040517fd1a57ed600000000000000000000000000000000000000000000000000000000815260040160405180910390fd5b81806001019250508080600101915050613031565b50806065819055505061310e6000868387612c0e565b5050505050565b82805461312190613f68565b90600052602060002090601f016020900481019282613143576000855561318a565b82601f1061315c57805160ff191683800117855561318a565b8280016001018555821561318a579182015b8281111561318957825182559160200191906001019061316e565b5b50905061319791906131d5565b5090565b6040518060400160405280600073ffffffffffffffffffffffffffffffffffffffff168152602001600067ffffffffffffffff1681525090565b5b808211156131ee5760008160009055506001016131d6565b5090565b600061320561320084613cc2565b613c9d565b9050808382526020820190508285602086028201111561322457600080fd5b60005b85811015613254578161323a888261332e565b845260208401935060208301925050600181019050613227565b5050509392505050565b600061327161326c84613cee565b613c9d565b90508281526020810184848401111561328957600080fd5b613294848285613f26565b509392505050565b60006132af6132aa84613d1f565b613c9d565b9050828152602081018484840111156132c757600080fd5b6132d2848285613f26565b509392505050565b6000813590506132e9816144da565b92915050565b600082601f83011261330057600080fd5b81356133108482602086016131f2565b91505092915050565b600081359050613328816144f1565b92915050565b60008135905061333d81614508565b92915050565b6000813590506133528161451f565b92915050565b6000815190506133678161451f565b92915050565b600082601f83011261337e57600080fd5b813561338e84826020860161325e565b91505092915050565b600082601f8301126133a857600080fd5b81356133b884826020860161329c565b91505092915050565b6000813590506133d081614536565b92915050565b6000602082840312156133e857600080fd5b60006133f6848285016132da565b91505092915050565b6000806040838503121561341257600080fd5b6000613420858286016132da565b9250506020613431858286016132da565b9150509250929050565b60008060006060848603121561345057600080fd5b600061345e868287016132da565b935050602061346f868287016132da565b9250506040613480868287016133c1565b9150509250925092565b600080600080608085870312156134a057600080fd5b60006134ae878288016132da565b94505060206134bf878288016132da565b93505060406134d0878288016133c1565b925050606085013567ffffffffffffffff8111156134ed57600080fd5b6134f98782880161336d565b91505092959194509250565b6000806040838503121561351857600080fd5b6000613526858286016132da565b925050602061353785828601613319565b9150509250929050565b6000806040838503121561355457600080fd5b6000613562858286016132da565b9250506020613573858286016133c1565b9150509250929050565b6000806040838503121561359057600080fd5b600083013567ffffffffffffffff8111156135aa57600080fd5b6135b6858286016132ef565b92505060206135c7858286016133c1565b9150509250929050565b6000602082840312156135e357600080fd5b60006135f18482850161332e565b91505092915050565b60006020828403121561360c57600080fd5b600061361a84828501613343565b91505092915050565b60006020828403121561363557600080fd5b600061364384828501613358565b91505092915050565b60006020828403121561365e57600080fd5b600082013567ffffffffffffffff81111561367857600080fd5b61368484828501613397565b91505092915050565b60006020828403121561369f57600080fd5b60006136ad848285016133c1565b91505092915050565b6136bf81613ea8565b82525050565b6136d66136d182613ea8565b614014565b82525050565b6136e581613eba565b82525050565b6136f481613ec6565b82525050565b600061370582613d50565b61370f8185613d66565b935061371f818560208601613f35565b61372881614125565b840191505092915050565b600061373e82613d5b565b6137488185613d77565b9350613758818560208601613f35565b61376181614125565b840191505092915050565b600061377782613d5b565b6137818185613d88565b9350613791818560208601613f35565b80840191505092915050565b60006137aa601683613d77565b91506137b582614143565b602082019050919050565b60006137cd602683613d77565b91506137d88261416c565b604082019050919050565b60006137f0601e83613d77565b91506137fb826141bb565b602082019050919050565b6000613813602d83613d77565b915061381e826141e4565b604082019050919050565b6000613836602583613d77565b915061384182614233565b604082019050919050565b6000613859602e83613d77565b915061386482614282565b604082019050919050565b600061387c602483613d77565b9150613887826142d1565b604082019050919050565b600061389f601e83613d77565b91506138aa82614320565b602082019050919050565b60006138c2600583613d88565b91506138cd82614349565b600582019050919050565b60006138e5601a83613d77565b91506138f082614372565b602082019050919050565b6000613908602083613d77565b91506139138261439b565b602082019050919050565b600061392b602b83613d77565b9150613936826143c4565b604082019050919050565b600061394e602283613d77565b915061395982614413565b604082019050919050565b6000613971602183613d77565b915061397c82614462565b604082019050919050565b6000613994601883613d77565b915061399f826144b1565b602082019050919050565b6139b381613f1c565b82525050565b60006139c582846136c5565b60148201915081905092915050565b60006139e0828561376c565b91506139ec828461376c565b91506139f7826138b5565b91508190509392505050565b6000602082019050613a1860008301846136b6565b92915050565b6000608082019050613a3360008301876136b6565b613a4060208301866136b6565b613a4d60408301856139aa565b8181036060830152613a5f81846136fa565b905095945050505050565b6000602082019050613a7f60008301846136dc565b92915050565b6000602082019050613a9a60008301846136eb565b92915050565b60006020820190508181036000830152613aba8184613733565b905092915050565b60006020820190508181036000830152613adb8161379d565b9050919050565b60006020820190508181036000830152613afb816137c0565b9050919050565b60006020820190508181036000830152613b1b816137e3565b9050919050565b60006020820190508181036000830152613b3b81613806565b9050919050565b60006020820190508181036000830152613b5b81613829565b9050919050565b60006020820190508181036000830152613b7b8161384c565b9050919050565b60006020820190508181036000830152613b9b8161386f565b9050919050565b60006020820190508181036000830152613bbb81613892565b9050919050565b60006020820190508181036000830152613bdb816138d8565b9050919050565b60006020820190508181036000830152613bfb816138fb565b9050919050565b60006020820190508181036000830152613c1b8161391e565b9050919050565b60006020820190508181036000830152613c3b81613941565b9050919050565b60006020820190508181036000830152613c5b81613964565b9050919050565b60006020820190508181036000830152613c7b81613987565b9050919050565b6000602082019050613c9760008301846139aa565b92915050565b6000613ca7613cb8565b9050613cb38282613f9a565b919050565b6000604051905090565b600067ffffffffffffffff821115613cdd57613cdc6140f6565b5b602082029050602081019050919050565b600067ffffffffffffffff821115613d0957613d086140f6565b5b613d1282614125565b9050602081019050919050565b600067ffffffffffffffff821115613d3a57613d396140f6565b5b613d4382614125565b9050602081019050919050565b600081519050919050565b600081519050919050565b600082825260208201905092915050565b600082825260208201905092915050565b600081905092915050565b6000613d9e82613f1c565b9150613da983613f1c565b9250827fffffffffffffffffffffffffffffffffffffffffffffffffffffffffffffffff03821115613dde57613ddd614069565b5b828201905092915050565b6000613df482613f1c565b9150613dff83613f1c565b925082613e0f57613e0e614098565b5b828204905092915050565b6000613e2582613f1c565b9150613e3083613f1c565b9250817fffffffffffffffffffffffffffffffffffffffffffffffffffffffffffffffff0483118215151615613e6957613e68614069565b5b828202905092915050565b6000613e7f82613f1c565b9150613e8a83613f1c565b925082821015613e9d57613e9c614069565b5b828203905092915050565b6000613eb382613efc565b9050919050565b60008115159050919050565b6000819050919050565b60007fffffffff0000000000000000000000000000000000000000000000000000000082169050919050565b600073ffffffffffffffffffffffffffffffffffffffff82169050919050565b6000819050919050565b82818337600083830152505050565b60005b83811015613f53578082015181840152602081019050613f38565b83811115613f62576000848401525b50505050565b60006002820490506001821680613f8057607f821691505b60208210811415613f9457613f936140c7565b5b50919050565b613fa382614125565b810181811067ffffffffffffffff82111715613fc257613fc16140f6565b5b80604052505050565b6000613fd682613f1c565b91507fffffffffffffffffffffffffffffffffffffffffffffffffffffffffffffffff82141561400957614008614069565b5b600182019050919050565b600061401f82614026565b9050919050565b600061403182614136565b9050919050565b600061404382613f1c565b915061404e83613f1c565b92508261405e5761405d614098565b5b828206905092915050565b7f4e487b7100000000000000000000000000000000000000000000000000000000600052601160045260246000fd5b7f4e487b7100000000000000000000000000000000000000000000000000000000600052601260045260246000fd5b7f4e487b7100000000000000000000000000000000000000000000000000000000600052602260045260246000fd5b7f4e487b7100000000000000000000000000000000000000000000000000000000600052604160045260246000fd5b6000601f19601f8301169050919050565b60008160601b9050919050565b7f426f78203a3a204e6f7420596574204163746976652e00000000000000000000600082015250565b7f4f776e61626c653a206e6577206f776e657220697320746865207a65726f206160008201527f6464726573730000000000000000000000000000000000000000000000000000602082015250565b7f426f78203a3a20416c7265616479206d696e74656420332074696d6573210000600082015250565b7f426f78203a3a2043616e6e6f74206d696e74206265796f6e642077686974656c60008201527f697374206d6178206d696e742100000000000000000000000000000000000000602082015250565b7f426f78203a3a2043616e6e6f742062652063616c6c6564206279206120636f6e60008201527f7472616374000000000000000000000000000000000000000000000000000000602082015250565b7f496e697469616c697a61626c653a20636f6e747261637420697320616c72656160008201527f647920696e697469616c697a6564000000000000000000000000000000000000602082015250565b7f426f78203a3a2043616e6e6f74206d696e74206265796f6e64206d617820737560008201527f70706c7900000000000000000000000000000000000000000000000000000000602082015250565b7f426f78203a3a20596f7520617265206e6f742077686974656c69737465640000600082015250565b7f2e6a736f6e000000000000000000000000000000000000000000000000000000600082015250565b7f426f78203a3a204d696e74696e67206973206f6e205061757365000000000000600082015250565b7f4f776e61626c653a2063616c6c6572206973206e6f7420746865206f776e6572600082015250565b7f496e697469616c697a61626c653a20636f6e7472616374206973206e6f74206960008201527f6e697469616c697a696e67000000000000000000000000000000000000000000602082015250565b7f426f78203a3a205061796d656e742069732062656c6f7720746865207072696360008201527f6520000000000000000000000000000000000000000000000000000000000000602082015250565b7f426f78203a3a205061796d656e742069732062656c6f7720746865207072696360008201527f6500000000000000000000000000000000000000000000000000000000000000602082015250565b7f426f78203a3a204265796f6e64204d617820537570706c790000000000000000600082015250565b6144e381613ea8565b81146144ee57600080fd5b50565b6144fa81613eba565b811461450557600080fd5b50565b61451181613ec6565b811461451c57600080fd5b50565b61452881613ed0565b811461453357600080fd5b50565b61453f81613f1c565b811461454a57600080fd5b5056fea2646970667358221220caa5e5ebf41f6b04a3d2c64a2e918b678f6d0068646f5d09f642b8cda684c56764736f6c63430008040033",
  "linkReferences": {},
  "deployedLinkReferences": {}
}