{
  "_format": "hh-sol-artifact-1",
  "contractName": "BoxV2",
  "sourceName": "contracts/BoxV2.sol",
  "abi": [
    {
      "anonymous": false,
      "inputs": [
        {
          "indexed": true,
          "internalType": "address",
          "name": "owner",
          "type": "address"
        },
        {
          "indexed": true,
          "internalType": "address",
          "name": "approved",
          "type": "address"
        },
        {
          "indexed": true,
          "internalType": "uint256",
          "name": "tokenId",
          "type": "uint256"
        }
      ],
      "name": "Approval",
      "type": "event"
    },
    {
      "anonymous": false,
      "inputs": [
        {
          "indexed": true,
          "internalType": "address",
          "name": "owner",
          "type": "address"
        },
        {
          "indexed": true,
          "internalType": "address",
          "name": "operator",
          "type": "address"
        },
        {
          "indexed": false,
          "internalType": "bool",
          "name": "approved",
          "type": "bool"
        }
      ],
      "name": "ApprovalForAll",
      "type": "event"
    },
    {
      "anonymous": false,
      "inputs": [
        {
          "indexed": false,
          "internalType": "string",
          "name": "",
          "type": "string"
        }
      ],
      "name": "Init",
      "type": "event"
    },
    {
      "anonymous": false,
      "inputs": [
        {
          "indexed": true,
          "internalType": "address",
          "name": "previousOwner",
          "type": "address"
        },
        {
          "indexed": true,
          "internalType": "address",
          "name": "newOwner",
          "type": "address"
        }
      ],
      "name": "OwnershipTransferred",
      "type": "event"
    },
    {
      "anonymous": false,
      "inputs": [
        {
          "indexed": true,
          "internalType": "address",
          "name": "from",
          "type": "address"
        },
        {
          "indexed": true,
          "internalType": "address",
          "name": "to",
          "type": "address"
        },
        {
          "indexed": true,
          "internalType": "uint256",
          "name": "tokenId",
          "type": "uint256"
        }
      ],
      "name": "Transfer",
      "type": "event"
    },
    {
      "inputs": [],
      "name": "MAX_PUBLIC_MINT",
      "outputs": [
        {
          "internalType": "uint256",
          "name": "",
          "type": "uint256"
        }
      ],
      "stateMutability": "view",
      "type": "function"
    },
    {
      "inputs": [],
      "name": "MAX_SUPPLY",
      "outputs": [
        {
          "internalType": "uint256",
          "name": "",
          "type": "uint256"
        }
      ],
      "stateMutability": "view",
      "type": "function"
    },
    {
      "inputs": [],
      "name": "MAX_WHITELIST_MINT",
      "outputs": [
        {
          "internalType": "uint256",
          "name": "",
          "type": "uint256"
        }
      ],
      "stateMutability": "view",
      "type": "function"
    },
    {
      "inputs": [],
      "name": "PUBLIC_SALE_PRICE",
      "outputs": [
        {
          "internalType": "uint256",
          "name": "",
          "type": "uint256"
        }
      ],
      "stateMutability": "view",
      "type": "function"
    },
    {
      "inputs": [],
      "name": "WHITELIST_SALE_PRICE",
      "outputs": [
        {
          "internalType": "uint256",
          "name": "",
          "type": "uint256"
        }
      ],
      "stateMutability": "view",
      "type": "function"
    },
    {
      "inputs": [
        {
          "internalType": "address",
          "name": "to",
          "type": "address"
        },
        {
          "internalType": "uint256",
          "name": "tokenId",
          "type": "uint256"
        }
      ],
      "name": "approve",
      "outputs": [],
      "stateMutability": "nonpayable",
      "type": "function"
    },
    {
      "inputs": [
        {
          "internalType": "address",
          "name": "owner",
          "type": "address"
        }
      ],
      "name": "balanceOf",
      "outputs": [
        {
          "internalType": "uint256",
          "name": "",
          "type": "uint256"
        }
      ],
      "stateMutability": "view",
      "type": "function"
    },
    {
      "inputs": [
        {
          "internalType": "uint256",
          "name": "tokenId",
          "type": "uint256"
        }
      ],
      "name": "getApproved",
      "outputs": [
        {
          "internalType": "address",
          "name": "",
          "type": "address"
        }
      ],
      "stateMutability": "view",
      "type": "function"
    },
    {
      "inputs": [],
      "name": "getMerkleRoot",
      "outputs": [
        {
          "internalType": "bytes32",
          "name": "",
          "type": "bytes32"
        }
      ],
      "stateMutability": "view",
      "type": "function"
    },
    {
      "inputs": [],
      "name": "initialize",
      "outputs": [],
      "stateMutability": "nonpayable",
      "type": "function"
    },
    {
      "inputs": [
        {
          "internalType": "address",
          "name": "owner",
          "type": "address"
        },
        {
          "internalType": "address",
          "name": "operator",
          "type": "address"
        }
      ],
      "name": "isApprovedForAll",
      "outputs": [
        {
          "internalType": "bool",
          "name": "",
          "type": "bool"
        }
      ],
      "stateMutability": "view",
      "type": "function"
    },
    {
      "inputs": [],
      "name": "isRevealed",
      "outputs": [
        {
          "internalType": "bool",
          "name": "",
          "type": "bool"
        }
      ],
      "stateMutability": "view",
      "type": "function"
    },
    {
      "inputs": [
        {
          "internalType": "uint256",
          "name": "_quantity",
          "type": "uint256"
        }
      ],
      "name": "mint",
      "outputs": [],
      "stateMutability": "payable",
      "type": "function"
    },
    {
      "inputs": [],
      "name": "name",
      "outputs": [
        {
          "internalType": "string",
          "name": "",
          "type": "string"
        }
      ],
      "stateMutability": "view",
      "type": "function"
    },
    {
      "inputs": [],
      "name": "owner",
      "outputs": [
        {
          "internalType": "address",
          "name": "",
          "type": "address"
        }
      ],
      "stateMutability": "view",
      "type": "function"
    },
    {
      "inputs": [
        {
          "internalType": "uint256",
          "name": "tokenId",
          "type": "uint256"
        }
      ],
      "name": "ownerOf",
      "outputs": [
        {
          "internalType": "address",
          "name": "",
          "type": "address"
        }
      ],
      "stateMutability": "view",
      "type": "function"
    },
    {
      "inputs": [],
      "name": "pause",
      "outputs": [
        {
          "internalType": "bool",
          "name": "",
          "type": "bool"
        }
      ],
      "stateMutability": "view",
      "type": "function"
    },
    {
      "inputs": [],
      "name": "publicSale",
      "outputs": [
        {
          "internalType": "bool",
          "name": "",
          "type": "bool"
        }
      ],
      "stateMutability": "view",
      "type": "function"
    },
    {
      "inputs": [],
      "name": "renounceOwnership",
      "outputs": [],
      "stateMutability": "nonpayable",
      "type": "function"
    },
    {
      "inputs": [
        {
          "internalType": "address",
          "name": "from",
          "type": "address"
        },
        {
          "internalType": "address",
          "name": "to",
          "type": "address"
        },
        {
          "internalType": "uint256",
          "name": "tokenId",
          "type": "uint256"
        }
      ],
      "name": "safeTransferFrom",
      "outputs": [],
      "stateMutability": "nonpayable",
      "type": "function"
    },
    {
      "inputs": [
        {
          "internalType": "address",
          "name": "from",
          "type": "address"
        },
        {
          "internalType": "address",
          "name": "to",
          "type": "address"
        },
        {
          "internalType": "uint256",
          "name": "tokenId",
          "type": "uint256"
        },
        {
          "internalType": "bytes",
          "name": "_data",
          "type": "bytes"
        }
      ],
      "name": "safeTransferFrom",
      "outputs": [],
      "stateMutability": "nonpayable",
      "type": "function"
    },
    {
      "inputs": [
        {
          "internalType": "address",
          "name": "operator",
          "type": "address"
        },
        {
          "internalType": "bool",
          "name": "approved",
          "type": "bool"
        }
      ],
      "name": "setApprovalForAll",
      "outputs": [],
      "stateMutability": "nonpayable",
      "type": "function"
    },
    {
      "inputs": [
        {
          "internalType": "bytes32",
          "name": "_merkleRoot",
          "type": "bytes32"
        }
      ],
      "name": "setMerkleRoot",
      "outputs": [],
      "stateMutability": "nonpayable",
      "type": "function"
    },
    {
      "inputs": [
        {
          "internalType": "string",
          "name": "_baseTokenUri",
          "type": "string"
        }
      ],
      "name": "setTokenUri",
      "outputs": [],
      "stateMutability": "nonpayable",
      "type": "function"
    },
    {
      "inputs": [
        {
          "internalType": "bytes4",
          "name": "interfaceId",
          "type": "bytes4"
        }
      ],
      "name": "supportsInterface",
      "outputs": [
        {
          "internalType": "bool",
          "name": "",
          "type": "bool"
        }
      ],
      "stateMutability": "view",
      "type": "function"
    },
    {
      "inputs": [],
      "name": "symbol",
      "outputs": [
        {
          "internalType": "string",
          "name": "",
          "type": "string"
        }
      ],
      "stateMutability": "view",
      "type": "function"
    },
    {
      "inputs": [],
      "name": "togglePause",
      "outputs": [],
      "stateMutability": "nonpayable",
      "type": "function"
    },
    {
      "inputs": [],
      "name": "togglePublicSale",
      "outputs": [],
      "stateMutability": "nonpayable",
      "type": "function"
    },
    {
      "inputs": [],
      "name": "toggleReveal",
      "outputs": [],
      "stateMutability": "nonpayable",
      "type": "function"
    },
    {
      "inputs": [],
      "name": "toggleWhiteListSale",
      "outputs": [],
      "stateMutability": "nonpayable",
      "type": "function"
    },
    {
      "inputs": [
        {
          "internalType": "uint256",
          "name": "tokenId",
          "type": "uint256"
        }
      ],
      "name": "tokenURI",
      "outputs": [
        {
          "internalType": "string",
          "name": "",
          "type": "string"
        }
      ],
      "stateMutability": "view",
      "type": "function"
    },
    {
      "inputs": [
        {
          "internalType": "address",
          "name": "",
          "type": "address"
        }
      ],
      "name": "totalPublicMint",
      "outputs": [
        {
          "internalType": "uint256",
          "name": "",
          "type": "uint256"
        }
      ],
      "stateMutability": "view",
      "type": "function"
    },
    {
      "inputs": [
        {
          "internalType": "address",
          "name": "",
          "type": "address"
        }
      ],
      "name": "totalWhitelistMint",
      "outputs": [
        {
          "internalType": "uint256",
          "name": "",
          "type": "uint256"
        }
      ],
      "stateMutability": "view",
      "type": "function"
    },
    {
      "inputs": [
        {
          "internalType": "address",
          "name": "from",
          "type": "address"
        },
        {
          "internalType": "address",
          "name": "to",
          "type": "address"
        },
        {
          "internalType": "uint256",
          "name": "tokenId",
          "type": "uint256"
        }
      ],
      "name": "transferFrom",
      "outputs": [],
      "stateMutability": "nonpayable",
      "type": "function"
    },
    {
      "inputs": [
        {
          "internalType": "address",
          "name": "newOwner",
          "type": "address"
        }
      ],
      "name": "transferOwnership",
      "outputs": [],
      "stateMutability": "nonpayable",
      "type": "function"
    },
    {
      "inputs": [],
      "name": "version",
      "outputs": [
        {
          "internalType": "string",
          "name": "",
          "type": "string"
        }
      ],
      "stateMutability": "pure",
      "type": "function"
    },
    {
      "inputs": [],
      "name": "version2",
      "outputs": [
        {
          "internalType": "string",
          "name": "",
          "type": "string"
        }
      ],
      "stateMutability": "pure",
      "type": "function"
    },
    {
      "inputs": [],
      "name": "whiteListSale",
      "outputs": [
        {
          "internalType": "bool",
          "name": "",
          "type": "bool"
        }
      ],
      "stateMutability": "view",
      "type": "function"
    },
    {
      "inputs": [
        {
          "internalType": "bytes32[]",
          "name": "_merkleProof",
          "type": "bytes32[]"
        },
        {
          "internalType": "uint256",
          "name": "_quantity",
          "type": "uint256"
        }
      ],
      "name": "whitelistMint",
      "outputs": [],
      "stateMutability": "payable",
      "type": "function"
    },
    {
      "inputs": [],
      "name": "withdraw",
      "outputs": [],
      "stateMutability": "nonpayable",
      "type": "function"
    }
  ],
  "bytecode": "0x608060405234801561001057600080fd5b5061487b806100206000396000f3fe60806040526004361061023b5760003560e01c806370a082311161012e578063a0712d68116100ab578063c4ae31681161006f578063c4ae3168146107fd578063c87b56dd14610814578063e222c7f914610851578063e985e9c514610868578063f2fde38b146108a55761023b565b8063a0712d6814610739578063a22cb46514610755578063b88d4fde1461077e578063bc912e1a146107a7578063c08dfd3c146107d25761023b565b80638456cb59116100f25780638456cb591461067657806386a173ee146106a15780638bb64a8c146106cc5780638da5cb5b146106e357806395d89b411461070e5761023b565b806370a08231146105b7578063715018a6146105f457806373e1d4fe1461060b5780637cb64759146106365780638129fc1c1461065f5761023b565b806332cb6b0c116101bc57806354214f691161018057806354214f69146104e257806354fd4d501461050d5780635b8ad429146105385780636352211e1461054f57806365f130971461058c5761023b565b806332cb6b0c1461042157806333bc1c5c1461044c5780633ccfd60b1461047757806342842e0e1461048e57806349590657146104b75761023b565b8063081812fc11610203578063081812fc14610339578063095ea7b3146103765780631c16521c1461039f57806323b872dd146103dc5780632904e6d9146104055761023b565b806301ffc9a7146102405780630345e3cb1461027d5780630675b7c6146102ba57806306fdde03146102e357806307e89ec01461030e575b600080fd5b34801561024c57600080fd5b5061026760048036038101906102629190613251565b6108ce565b604051610274919061385a565b60405180910390f35b34801561028957600080fd5b506102a4600480360381019061029f919061302d565b6109b0565b6040516102b19190613c12565b60405180910390f35b3480156102c657600080fd5b506102e160048036038101906102dc91906132a3565b6109c8565b005b3480156102ef57600080fd5b506102f8610a5e565b6040516103059190613890565b60405180910390f35b34801561031a57600080fd5b50610323610af0565b6040516103309190613c12565b60405180910390f35b34801561034557600080fd5b50610360600480360381019061035b91906132e4565b610afb565b60405161036d91906137f3565b60405180910390f35b34801561038257600080fd5b5061039d60048036038101906103989190613198565b610b80565b005b3480156103ab57600080fd5b506103c660048036038101906103c1919061302d565b610c98565b6040516103d39190613c12565b60405180910390f35b3480156103e857600080fd5b5061040360048036038101906103fe9190613092565b610cb0565b005b61041f600480360381019061041a91906131d4565b610d10565b005b34801561042d57600080fd5b50610436610f8c565b6040516104439190613c12565b60405180910390f35b34801561045857600080fd5b50610461610f92565b60405161046e919061385a565b60405180910390f35b34801561048357600080fd5b5061048c610fa5565b005b34801561049a57600080fd5b506104b560048036038101906104b09190613092565b61106a565b005b3480156104c357600080fd5b506104cc61108a565b6040516104d99190613875565b60405180910390f35b3480156104ee57600080fd5b506104f7611094565b604051610504919061385a565b60405180910390f35b34801561051957600080fd5b506105226110a7565b60405161052f9190613890565b60405180910390f35b34801561054457600080fd5b5061054d6110e4565b005b34801561055b57600080fd5b50610576600480360381019061057191906132e4565b61118c565b60405161058391906137f3565b60405180910390f35b34801561059857600080fd5b506105a161123e565b6040516105ae9190613c12565b60405180910390f35b3480156105c357600080fd5b506105de60048036038101906105d9919061302d565b611243565b6040516105eb9190613c12565b60405180910390f35b34801561060057600080fd5b506106096112fb565b005b34801561061757600080fd5b50610620611383565b60405161062d9190613890565b60405180910390f35b34801561064257600080fd5b5061065d60048036038101906106589190613228565b6113c0565b005b34801561066b57600080fd5b50610674611446565b005b34801561068257600080fd5b5061068b6115db565b604051610698919061385a565b60405180910390f35b3480156106ad57600080fd5b506106b66115ee565b6040516106c3919061385a565b60405180910390f35b3480156106d857600080fd5b506106e1611601565b005b3480156106ef57600080fd5b506106f86116a9565b60405161070591906137f3565b60405180910390f35b34801561071a57600080fd5b506107236116d3565b6040516107309190613890565b60405180910390f35b610753600480360381019061074e91906132e4565b611765565b005b34801561076157600080fd5b5061077c6004803603810190610777919061315c565b611968565b005b34801561078a57600080fd5b506107a560048036038101906107a091906130e1565b61197e565b005b3480156107b357600080fd5b506107bc6119e0565b6040516107c99190613c12565b60405180910390f35b3480156107de57600080fd5b506107e76119eb565b6040516107f49190613c12565b60405180910390f35b34801561080957600080fd5b506108126119f0565b005b34801561082057600080fd5b5061083b600480360381019061083691906132e4565b611a98565b6040516108489190613890565b60405180910390f35b34801561085d57600080fd5b50610866611b3f565b005b34801561087457600080fd5b5061088f600480360381019061088a9190613056565b611be7565b60405161089c919061385a565b60405180910390f35b3480156108b157600080fd5b506108cc60048036038101906108c7919061302d565b611c7b565b005b60007f80ac58cd000000000000000000000000000000000000000000000000000000007bffffffffffffffffffffffffffffffffffffffffffffffffffffffff1916827bffffffffffffffffffffffffffffffffffffffffffffffffffffffff1916148061099957507f5b5e139f000000000000000000000000000000000000000000000000000000007bffffffffffffffffffffffffffffffffffffffffffffffffffffffff1916827bffffffffffffffffffffffffffffffffffffffffffffffffffffffff1916145b806109a957506109a882611d73565b5b9050919050565b60cd6020528060005260406000206000915090505481565b6109d0611ddd565b73ffffffffffffffffffffffffffffffffffffffff166109ee6116a9565b73ffffffffffffffffffffffffffffffffffffffff1614610a44576040517f08c379a0000000000000000000000000000000000000000000000000000000008152600401610a3b90613b32565b60405180910390fd5b8060c99080519060200190610a5a929190612da6565b5050565b606060658054610a6d90613ef8565b80601f0160208091040260200160405190810160405280929190818152602001828054610a9990613ef8565b8015610ae65780601f10610abb57610100808354040283529160200191610ae6565b820191906000526020600020905b815481529060010190602001808311610ac957829003601f168201915b5050505050905090565b661ff973cafa800081565b6000610b0682611de5565b610b45576040517f08c379a0000000000000000000000000000000000000000000000000000000008152600401610b3c90613af2565b60405180910390fd5b6069600083815260200190815260200160002060009054906101000a900473ffffffffffffffffffffffffffffffffffffffff169050919050565b6000610b8b8261118c565b90508073ffffffffffffffffffffffffffffffffffffffff168373ffffffffffffffffffffffffffffffffffffffff161415610bfc576040517f08c379a0000000000000000000000000000000000000000000000000000000008152600401610bf390613b72565b60405180910390fd5b8073ffffffffffffffffffffffffffffffffffffffff16610c1b611ddd565b73ffffffffffffffffffffffffffffffffffffffff161480610c4a5750610c4981610c44611ddd565b611be7565b5b610c89576040517f08c379a0000000000000000000000000000000000000000000000000000000008152600401610c8090613a12565b60405180910390fd5b610c938383611e51565b505050565b60cc6020528060005260406000206000915090505481565b610cc1610cbb611ddd565b82611f0a565b610d00576040517f08c379a0000000000000000000000000000000000000000000000000000000008152600401610cf790613b92565b60405180910390fd5b610d0b838383611fe8565b505050565b3373ffffffffffffffffffffffffffffffffffffffff163273ffffffffffffffffffffffffffffffffffffffff1614610d7e576040517f08c379a0000000000000000000000000000000000000000000000000000000008152600401610d7590613a32565b60405180910390fd5b60ca60029054906101000a900460ff16610dcd576040517f08c379a0000000000000000000000000000000000000000000000000000000008152600401610dc490613b12565b60405180910390fd5b60038160cd60003373ffffffffffffffffffffffffffffffffffffffff1673ffffffffffffffffffffffffffffffffffffffff16815260200190815260200160002054610e1a9190613d23565b1115610e5b576040517f08c379a0000000000000000000000000000000000000000000000000000000008152600401610e52906139f2565b60405180910390fd5b8066071afd498d0000610e6e9190613daa565b341015610eb0576040517f08c379a0000000000000000000000000000000000000000000000000000000008152600401610ea790613bf2565b60405180910390fd5b600033604051602001610ec391906137b4565b604051602081830303815290604052805190602001209050610ee88360cb548361224f565b610f27576040517f08c379a0000000000000000000000000000000000000000000000000000000008152600401610f1e90613ad2565b60405180910390fd5b8160cd60003373ffffffffffffffffffffffffffffffffffffffff1673ffffffffffffffffffffffffffffffffffffffff1681526020019081526020016000206000828254610f769190613d23565b92505081905550610f873383612266565b505050565b611e6181565b60ca60019054906101000a900460ff1681565b610fad611ddd565b73ffffffffffffffffffffffffffffffffffffffff16610fcb6116a9565b73ffffffffffffffffffffffffffffffffffffffff1614611021576040517f08c379a000000000000000000000000000000000000000000000000000000000815260040161101890613b32565b60405180910390fd5b3373ffffffffffffffffffffffffffffffffffffffff166108fc479081150290604051600060405180830381858888f19350505050158015611067573d6000803e3d6000fd5b50565b6110858383836040518060200160405280600081525061197e565b505050565b600060cb54905090565b60ca60009054906101000a900460ff1681565b60606040518060400160405280600581526020017f312e302e30000000000000000000000000000000000000000000000000000000815250905090565b6110ec611ddd565b73ffffffffffffffffffffffffffffffffffffffff1661110a6116a9565b73ffffffffffffffffffffffffffffffffffffffff1614611160576040517f08c379a000000000000000000000000000000000000000000000000000000000815260040161115790613b32565b60405180910390fd5b60ca60009054906101000a900460ff161560ca60006101000a81548160ff021916908315150217905550565b6000806067600084815260200190815260200160002060009054906101000a900473ffffffffffffffffffffffffffffffffffffffff169050600073ffffffffffffffffffffffffffffffffffffffff168173ffffffffffffffffffffffffffffffffffffffff161415611235576040517f08c379a000000000000000000000000000000000000000000000000000000000815260040161122c90613a72565b60405180910390fd5b80915050919050565b600a81565b60008073ffffffffffffffffffffffffffffffffffffffff168273ffffffffffffffffffffffffffffffffffffffff1614156112b4576040517f08c379a00000000000000000000000000000000000000000000000000000000081526004016112ab90613a52565b60405180910390fd5b606860008373ffffffffffffffffffffffffffffffffffffffff1673ffffffffffffffffffffffffffffffffffffffff168152602001908152602001600020549050919050565b611303611ddd565b73ffffffffffffffffffffffffffffffffffffffff166113216116a9565b73ffffffffffffffffffffffffffffffffffffffff1614611377576040517f08c379a000000000000000000000000000000000000000000000000000000000815260040161136e90613b32565b60405180910390fd5b6113816000612284565b565b60606040518060400160405280600581526020017f312e322e30000000000000000000000000000000000000000000000000000000815250905090565b6113c8611ddd565b73ffffffffffffffffffffffffffffffffffffffff166113e66116a9565b73ffffffffffffffffffffffffffffffffffffffff161461143c576040517f08c379a000000000000000000000000000000000000000000000000000000000815260040161143390613b32565b60405180910390fd5b8060cb8190555050565b600060019054906101000a900460ff1661146e5760008054906101000a900460ff1615611477565b61147661234a565b5b6114b6576040517f08c379a00000000000000000000000000000000000000000000000000000000081526004016114ad90613a92565b60405180910390fd5b60008060019054906101000a900460ff161590508015611506576001600060016101000a81548160ff02191690831515021790555060016000806101000a81548160ff0219169083151502179055505b61157a6040518060400160405280600381526020017f426f7800000000000000000000000000000000000000000000000000000000008152506040518060400160405280600381526020017f424f58000000000000000000000000000000000000000000000000000000000081525061235b565b6115826123b8565b7fb86104e7ac137c13dcdb4b6e07bbc065d960beacc9c14eddbb6b76c95c8e32ca6040516115af90613952565b60405180910390a180156115d85760008060016101000a81548160ff0219169083151502179055505b50565b60ca60039054906101000a900460ff1681565b60ca60029054906101000a900460ff1681565b611609611ddd565b73ffffffffffffffffffffffffffffffffffffffff166116276116a9565b73ffffffffffffffffffffffffffffffffffffffff161461167d576040517f08c379a000000000000000000000000000000000000000000000000000000000815260040161167490613b32565b60405180910390fd5b60ca60029054906101000a900460ff161560ca60026101000a81548160ff021916908315150217905550565b6000609760009054906101000a900473ffffffffffffffffffffffffffffffffffffffff16905090565b6060606680546116e290613ef8565b80601f016020809104026020016040519081016040528092919081815260200182805461170e90613ef8565b801561175b5780601f106117305761010080835404028352916020019161175b565b820191906000526020600020905b81548152906001019060200180831161173e57829003601f168201915b5050505050905090565b3373ffffffffffffffffffffffffffffffffffffffff163273ffffffffffffffffffffffffffffffffffffffff16146117d3576040517f08c379a00000000000000000000000000000000000000000000000000000000081526004016117ca90613a32565b60405180910390fd5b60ca60019054906101000a900460ff16611822576040517f08c379a0000000000000000000000000000000000000000000000000000000008152600401611819906138b2565b60405180910390fd5b600a8160cc60003373ffffffffffffffffffffffffffffffffffffffff1673ffffffffffffffffffffffffffffffffffffffff1681526020019081526020016000205461186f9190613d23565b11156118b0576040517f08c379a00000000000000000000000000000000000000000000000000000000081526004016118a7906139b2565b60405180910390fd5b80661ff973cafa80006118c39190613daa565b341015611905576040517f08c379a00000000000000000000000000000000000000000000000000000000081526004016118fc90613bd2565b60405180910390fd5b8060cc60003373ffffffffffffffffffffffffffffffffffffffff1673ffffffffffffffffffffffffffffffffffffffff16815260200190815260200160002060008282546119549190613d23565b925050819055506119653382612266565b50565b61197a611973611ddd565b8383612411565b5050565b61198f611989611ddd565b83611f0a565b6119ce576040517f08c379a00000000000000000000000000000000000000000000000000000000081526004016119c590613b92565b60405180910390fd5b6119da8484848461257e565b50505050565b66071afd498d000081565b600381565b6119f8611ddd565b73ffffffffffffffffffffffffffffffffffffffff16611a166116a9565b73ffffffffffffffffffffffffffffffffffffffff1614611a6c576040517f08c379a0000000000000000000000000000000000000000000000000000000008152600401611a6390613b32565b60405180910390fd5b60ca60039054906101000a900460ff161560ca60036101000a81548160ff021916908315150217905550565b6060611aa382611de5565b611ae2576040517f08c379a0000000000000000000000000000000000000000000000000000000008152600401611ad990613b52565b60405180910390fd5b6000611aec6125da565b90506000815111611b0c5760405180602001604052806000815250611b37565b80611b168461266c565b604051602001611b279291906137cf565b6040516020818303038152906040525b915050919050565b611b47611ddd565b73ffffffffffffffffffffffffffffffffffffffff16611b656116a9565b73ffffffffffffffffffffffffffffffffffffffff1614611bbb576040517f08c379a0000000000000000000000000000000000000000000000000000000008152600401611bb290613b32565b60405180910390fd5b60ca60019054906101000a900460ff161560ca60016101000a81548160ff021916908315150217905550565b6000606a60008473ffffffffffffffffffffffffffffffffffffffff1673ffffffffffffffffffffffffffffffffffffffff16815260200190815260200160002060008373ffffffffffffffffffffffffffffffffffffffff1673ffffffffffffffffffffffffffffffffffffffff16815260200190815260200160002060009054906101000a900460ff16905092915050565b611c83611ddd565b73ffffffffffffffffffffffffffffffffffffffff16611ca16116a9565b73ffffffffffffffffffffffffffffffffffffffff1614611cf7576040517f08c379a0000000000000000000000000000000000000000000000000000000008152600401611cee90613b32565b60405180910390fd5b600073ffffffffffffffffffffffffffffffffffffffff168173ffffffffffffffffffffffffffffffffffffffff161415611d67576040517f08c379a0000000000000000000000000000000000000000000000000000000008152600401611d5e906138f2565b60405180910390fd5b611d7081612284565b50565b60007f01ffc9a7000000000000000000000000000000000000000000000000000000007bffffffffffffffffffffffffffffffffffffffffffffffffffffffff1916827bffffffffffffffffffffffffffffffffffffffffffffffffffffffff1916149050919050565b600033905090565b60008073ffffffffffffffffffffffffffffffffffffffff166067600084815260200190815260200160002060009054906101000a900473ffffffffffffffffffffffffffffffffffffffff1673ffffffffffffffffffffffffffffffffffffffff1614159050919050565b816069600083815260200190815260200160002060006101000a81548173ffffffffffffffffffffffffffffffffffffffff021916908373ffffffffffffffffffffffffffffffffffffffff160217905550808273ffffffffffffffffffffffffffffffffffffffff16611ec48361118c565b73ffffffffffffffffffffffffffffffffffffffff167f8c5be1e5ebec7d5bd14f71427d1e84f3dd0314c0f7b2291e5b200ac8c7c3b92560405160405180910390a45050565b6000611f1582611de5565b611f54576040517f08c379a0000000000000000000000000000000000000000000000000000000008152600401611f4b906139d2565b60405180910390fd5b6000611f5f8361118c565b90508073ffffffffffffffffffffffffffffffffffffffff168473ffffffffffffffffffffffffffffffffffffffff161480611fce57508373ffffffffffffffffffffffffffffffffffffffff16611fb684610afb565b73ffffffffffffffffffffffffffffffffffffffff16145b80611fdf5750611fde8185611be7565b5b91505092915050565b8273ffffffffffffffffffffffffffffffffffffffff166120088261118c565b73ffffffffffffffffffffffffffffffffffffffff161461205e576040517f08c379a000000000000000000000000000000000000000000000000000000000815260040161205590613912565b60405180910390fd5b600073ffffffffffffffffffffffffffffffffffffffff168273ffffffffffffffffffffffffffffffffffffffff1614156120ce576040517f08c379a00000000000000000000000000000000000000000000000000000000081526004016120c590613972565b60405180910390fd5b6120d9838383612819565b6120e4600082611e51565b6001606860008573ffffffffffffffffffffffffffffffffffffffff1673ffffffffffffffffffffffffffffffffffffffff16815260200190815260200160002060008282546121349190613e04565b925050819055506001606860008473ffffffffffffffffffffffffffffffffffffffff1673ffffffffffffffffffffffffffffffffffffffff168152602001908152602001600020600082825461218b9190613d23565b92505081905550816067600083815260200190815260200160002060006101000a81548173ffffffffffffffffffffffffffffffffffffffff021916908373ffffffffffffffffffffffffffffffffffffffff160217905550808273ffffffffffffffffffffffffffffffffffffffff168473ffffffffffffffffffffffffffffffffffffffff167fddf252ad1be2c89b69c2b068fc378daa952ba7f163c4a11628f55a4df523b3ef60405160405180910390a461224a83838361281e565b505050565b60008261225c8584612823565b1490509392505050565b6122808282604051806020016040528060008152506128be565b5050565b6000609760009054906101000a900473ffffffffffffffffffffffffffffffffffffffff16905081609760006101000a81548173ffffffffffffffffffffffffffffffffffffffff021916908373ffffffffffffffffffffffffffffffffffffffff1602179055508173ffffffffffffffffffffffffffffffffffffffff168173ffffffffffffffffffffffffffffffffffffffff167f8be0079c531659141344cd1fd0a4f28419497f9722a3daafe3b4186f6b6457e060405160405180910390a35050565b600061235530612919565b15905090565b600060019054906101000a900460ff166123aa576040517f08c379a00000000000000000000000000000000000000000000000000000000081526004016123a190613bb2565b60405180910390fd5b6123b4828261293c565b5050565b600060019054906101000a900460ff16612407576040517f08c379a00000000000000000000000000000000000000000000000000000000081526004016123fe90613bb2565b60405180910390fd5b61240f6129bd565b565b8173ffffffffffffffffffffffffffffffffffffffff168373ffffffffffffffffffffffffffffffffffffffff161415612480576040517f08c379a000000000000000000000000000000000000000000000000000000000815260040161247790613992565b60405180910390fd5b80606a60008573ffffffffffffffffffffffffffffffffffffffff1673ffffffffffffffffffffffffffffffffffffffff16815260200190815260200160002060008473ffffffffffffffffffffffffffffffffffffffff1673ffffffffffffffffffffffffffffffffffffffff16815260200190815260200160002060006101000a81548160ff0219169083151502179055508173ffffffffffffffffffffffffffffffffffffffff168373ffffffffffffffffffffffffffffffffffffffff167f17307eab39ab6107e8899845ad3d59bd9653f200f220920489ca2b5937696c3183604051612571919061385a565b60405180910390a3505050565b612589848484611fe8565b61259584848484612a1e565b6125d4576040517f08c379a00000000000000000000000000000000000000000000000000000000081526004016125cb906138d2565b60405180910390fd5b50505050565b606060c980546125e990613ef8565b80601f016020809104026020016040519081016040528092919081815260200182805461261590613ef8565b80156126625780601f1061263757610100808354040283529160200191612662565b820191906000526020600020905b81548152906001019060200180831161264557829003601f168201915b5050505050905090565b606060008214156126b4576040518060400160405280600181526020017f30000000000000000000000000000000000000000000000000000000000000008152509050612814565b600082905060005b600082146126e65780806126cf90613f5b565b915050600a826126df9190613d79565b91506126bc565b60008167ffffffffffffffff811115612728577f4e487b7100000000000000000000000000000000000000000000000000000000600052604160045260246000fd5b6040519080825280601f01601f19166020018201604052801561275a5781602001600182028036833780820191505090505b5090505b6000851461280d576001826127739190613e04565b9150600a856127829190613fc8565b603061278e9190613d23565b60f81b8183815181106127ca577f4e487b7100000000000000000000000000000000000000000000000000000000600052603260045260246000fd5b60200101907effffffffffffffffffffffffffffffffffffffffffffffffffffffffffffff1916908160001a905350600a856128069190613d79565b945061275e565b8093505050505b919050565b505050565b505050565b60008082905060005b84518110156128b3576000858281518110612870577f4e487b7100000000000000000000000000000000000000000000000000000000600052603260045260246000fd5b602002602001015190508083116128925761288b8382612bb5565b925061289f565b61289c8184612bb5565b92505b5080806128ab90613f5b565b91505061282c565b508091505092915050565b6128c88383612bcc565b6128d56000848484612a1e565b612914576040517f08c379a000000000000000000000000000000000000000000000000000000000815260040161290b906138d2565b60405180910390fd5b505050565b6000808273ffffffffffffffffffffffffffffffffffffffff163b119050919050565b600060019054906101000a900460ff1661298b576040517f08c379a000000000000000000000000000000000000000000000000000000000815260040161298290613bb2565b60405180910390fd5b81606590805190602001906129a1929190612da6565b5080606690805190602001906129b8929190612da6565b505050565b600060019054906101000a900460ff16612a0c576040517f08c379a0000000000000000000000000000000000000000000000000000000008152600401612a0390613bb2565b60405180910390fd5b612a1c612a17611ddd565b612284565b565b6000612a3f8473ffffffffffffffffffffffffffffffffffffffff16612919565b15612ba8578373ffffffffffffffffffffffffffffffffffffffff1663150b7a02612a68611ddd565b8786866040518563ffffffff1660e01b8152600401612a8a949392919061380e565b602060405180830381600087803b158015612aa457600080fd5b505af1925050508015612ad557506040513d601f19601f82011682018060405250810190612ad2919061327a565b60015b612b58573d8060008114612b05576040519150601f19603f3d011682016040523d82523d6000602084013e612b0a565b606091505b50600081511415612b50576040517f08c379a0000000000000000000000000000000000000000000000000000000008152600401612b47906138d2565b60405180910390fd5b805181602001fd5b63150b7a0260e01b7bffffffffffffffffffffffffffffffffffffffffffffffffffffffff1916817bffffffffffffffffffffffffffffffffffffffffffffffffffffffff191614915050612bad565b600190505b949350505050565b600082600052816020526040600020905092915050565b600073ffffffffffffffffffffffffffffffffffffffff168273ffffffffffffffffffffffffffffffffffffffff161415612c3c576040517f08c379a0000000000000000000000000000000000000000000000000000000008152600401612c3390613ab2565b60405180910390fd5b612c4581611de5565b15612c85576040517f08c379a0000000000000000000000000000000000000000000000000000000008152600401612c7c90613932565b60405180910390fd5b612c9160008383612819565b6001606860008473ffffffffffffffffffffffffffffffffffffffff1673ffffffffffffffffffffffffffffffffffffffff1681526020019081526020016000206000828254612ce19190613d23565b92505081905550816067600083815260200190815260200160002060006101000a81548173ffffffffffffffffffffffffffffffffffffffff021916908373ffffffffffffffffffffffffffffffffffffffff160217905550808273ffffffffffffffffffffffffffffffffffffffff16600073ffffffffffffffffffffffffffffffffffffffff167fddf252ad1be2c89b69c2b068fc378daa952ba7f163c4a11628f55a4df523b3ef60405160405180910390a4612da26000838361281e565b5050565b828054612db290613ef8565b90600052602060002090601f016020900481019282612dd45760008555612e1b565b82601f10612ded57805160ff1916838001178555612e1b565b82800160010185558215612e1b579182015b82811115612e1a578251825591602001919060010190612dff565b5b509050612e289190612e2c565b5090565b5b80821115612e45576000816000905550600101612e2d565b5090565b6000612e5c612e5784613c52565b613c2d565b90508083825260208201905082856020860282011115612e7b57600080fd5b60005b85811015612eab5781612e918882612f85565b845260208401935060208301925050600181019050612e7e565b5050509392505050565b6000612ec8612ec384613c7e565b613c2d565b905082815260208101848484011115612ee057600080fd5b612eeb848285613eb6565b509392505050565b6000612f06612f0184613caf565b613c2d565b905082815260208101848484011115612f1e57600080fd5b612f29848285613eb6565b509392505050565b600081359050612f40816147d2565b92915050565b600082601f830112612f5757600080fd5b8135612f67848260208601612e49565b91505092915050565b600081359050612f7f816147e9565b92915050565b600081359050612f9481614800565b92915050565b600081359050612fa981614817565b92915050565b600081519050612fbe81614817565b92915050565b600082601f830112612fd557600080fd5b8135612fe5848260208601612eb5565b91505092915050565b600082601f830112612fff57600080fd5b813561300f848260208601612ef3565b91505092915050565b6000813590506130278161482e565b92915050565b60006020828403121561303f57600080fd5b600061304d84828501612f31565b91505092915050565b6000806040838503121561306957600080fd5b600061307785828601612f31565b925050602061308885828601612f31565b9150509250929050565b6000806000606084860312156130a757600080fd5b60006130b586828701612f31565b93505060206130c686828701612f31565b92505060406130d786828701613018565b9150509250925092565b600080600080608085870312156130f757600080fd5b600061310587828801612f31565b945050602061311687828801612f31565b935050604061312787828801613018565b925050606085013567ffffffffffffffff81111561314457600080fd5b61315087828801612fc4565b91505092959194509250565b6000806040838503121561316f57600080fd5b600061317d85828601612f31565b925050602061318e85828601612f70565b9150509250929050565b600080604083850312156131ab57600080fd5b60006131b985828601612f31565b92505060206131ca85828601613018565b9150509250929050565b600080604083850312156131e757600080fd5b600083013567ffffffffffffffff81111561320157600080fd5b61320d85828601612f46565b925050602061321e85828601613018565b9150509250929050565b60006020828403121561323a57600080fd5b600061324884828501612f85565b91505092915050565b60006020828403121561326357600080fd5b600061327184828501612f9a565b91505092915050565b60006020828403121561328c57600080fd5b600061329a84828501612faf565b91505092915050565b6000602082840312156132b557600080fd5b600082013567ffffffffffffffff8111156132cf57600080fd5b6132db84828501612fee565b91505092915050565b6000602082840312156132f657600080fd5b600061330484828501613018565b91505092915050565b61331681613e38565b82525050565b61332d61332882613e38565b613fa4565b82525050565b61333c81613e4a565b82525050565b61334b81613e56565b82525050565b600061335c82613ce0565b6133668185613cf6565b9350613376818560208601613ec5565b61337f816140b5565b840191505092915050565b600061339582613ceb565b61339f8185613d07565b93506133af818560208601613ec5565b6133b8816140b5565b840191505092915050565b60006133ce82613ceb565b6133d88185613d18565b93506133e8818560208601613ec5565b80840191505092915050565b6000613401601683613d07565b915061340c826140d3565b602082019050919050565b6000613424603283613d07565b915061342f826140fc565b604082019050919050565b6000613447602683613d07565b91506134528261414b565b604082019050919050565b600061346a602583613d07565b91506134758261419a565b604082019050919050565b600061348d601c83613d07565b9150613498826141e9565b602082019050919050565b60006134b0600183613d07565b91506134bb82614212565b602082019050919050565b60006134d3602483613d07565b91506134de8261423b565b604082019050919050565b60006134f6601983613d07565b91506135018261428a565b602082019050919050565b6000613519601e83613d07565b9150613524826142b3565b602082019050919050565b600061353c602c83613d07565b9150613547826142dc565b604082019050919050565b600061355f602d83613d07565b915061356a8261432b565b604082019050919050565b6000613582603883613d07565b915061358d8261437a565b604082019050919050565b60006135a5602583613d07565b91506135b0826143c9565b604082019050919050565b60006135c8602a83613d07565b91506135d382614418565b604082019050919050565b60006135eb602983613d07565b91506135f682614467565b604082019050919050565b600061360e602e83613d07565b9150613619826144b6565b604082019050919050565b6000613631602083613d07565b915061363c82614505565b602082019050919050565b6000613654601e83613d07565b915061365f8261452e565b602082019050919050565b6000613677602c83613d07565b915061368282614557565b604082019050919050565b600061369a601a83613d07565b91506136a5826145a6565b602082019050919050565b60006136bd602083613d07565b91506136c8826145cf565b602082019050919050565b60006136e0602f83613d07565b91506136eb826145f8565b604082019050919050565b6000613703602183613d07565b915061370e82614647565b604082019050919050565b6000613726603183613d07565b915061373182614696565b604082019050919050565b6000613749602b83613d07565b9150613754826146e5565b604082019050919050565b600061376c602283613d07565b915061377782614734565b604082019050919050565b600061378f602183613d07565b915061379a82614783565b604082019050919050565b6137ae81613eac565b82525050565b60006137c0828461331c565b60148201915081905092915050565b60006137db82856133c3565b91506137e782846133c3565b91508190509392505050565b6000602082019050613808600083018461330d565b92915050565b6000608082019050613823600083018761330d565b613830602083018661330d565b61383d60408301856137a5565b818103606083015261384f8184613351565b905095945050505050565b600060208201905061386f6000830184613333565b92915050565b600060208201905061388a6000830184613342565b92915050565b600060208201905081810360008301526138aa818461338a565b905092915050565b600060208201905081810360008301526138cb816133f4565b9050919050565b600060208201905081810360008301526138eb81613417565b9050919050565b6000602082019050818103600083015261390b8161343a565b9050919050565b6000602082019050818103600083015261392b8161345d565b9050919050565b6000602082019050818103600083015261394b81613480565b9050919050565b6000602082019050818103600083015261396b816134a3565b9050919050565b6000602082019050818103600083015261398b816134c6565b9050919050565b600060208201905081810360008301526139ab816134e9565b9050919050565b600060208201905081810360008301526139cb8161350c565b9050919050565b600060208201905081810360008301526139eb8161352f565b9050919050565b60006020820190508181036000830152613a0b81613552565b9050919050565b60006020820190508181036000830152613a2b81613575565b9050919050565b60006020820190508181036000830152613a4b81613598565b9050919050565b60006020820190508181036000830152613a6b816135bb565b9050919050565b60006020820190508181036000830152613a8b816135de565b9050919050565b60006020820190508181036000830152613aab81613601565b9050919050565b60006020820190508181036000830152613acb81613624565b9050919050565b60006020820190508181036000830152613aeb81613647565b9050919050565b60006020820190508181036000830152613b0b8161366a565b9050919050565b60006020820190508181036000830152613b2b8161368d565b9050919050565b60006020820190508181036000830152613b4b816136b0565b9050919050565b60006020820190508181036000830152613b6b816136d3565b9050919050565b60006020820190508181036000830152613b8b816136f6565b9050919050565b60006020820190508181036000830152613bab81613719565b9050919050565b60006020820190508181036000830152613bcb8161373c565b9050919050565b60006020820190508181036000830152613beb8161375f565b9050919050565b60006020820190508181036000830152613c0b81613782565b9050919050565b6000602082019050613c2760008301846137a5565b92915050565b6000613c37613c48565b9050613c438282613f2a565b919050565b6000604051905090565b600067ffffffffffffffff821115613c6d57613c6c614086565b5b602082029050602081019050919050565b600067ffffffffffffffff821115613c9957613c98614086565b5b613ca2826140b5565b9050602081019050919050565b600067ffffffffffffffff821115613cca57613cc9614086565b5b613cd3826140b5565b9050602081019050919050565b600081519050919050565b600081519050919050565b600082825260208201905092915050565b600082825260208201905092915050565b600081905092915050565b6000613d2e82613eac565b9150613d3983613eac565b9250827fffffffffffffffffffffffffffffffffffffffffffffffffffffffffffffffff03821115613d6e57613d6d613ff9565b5b828201905092915050565b6000613d8482613eac565b9150613d8f83613eac565b925082613d9f57613d9e614028565b5b828204905092915050565b6000613db582613eac565b9150613dc083613eac565b9250817fffffffffffffffffffffffffffffffffffffffffffffffffffffffffffffffff0483118215151615613df957613df8613ff9565b5b828202905092915050565b6000613e0f82613eac565b9150613e1a83613eac565b925082821015613e2d57613e2c613ff9565b5b828203905092915050565b6000613e4382613e8c565b9050919050565b60008115159050919050565b6000819050919050565b60007fffffffff0000000000000000000000000000000000000000000000000000000082169050919050565b600073ffffffffffffffffffffffffffffffffffffffff82169050919050565b6000819050919050565b82818337600083830152505050565b60005b83811015613ee3578082015181840152602081019050613ec8565b83811115613ef2576000848401525b50505050565b60006002820490506001821680613f1057607f821691505b60208210811415613f2457613f23614057565b5b50919050565b613f33826140b5565b810181811067ffffffffffffffff82111715613f5257613f51614086565b5b80604052505050565b6000613f6682613eac565b91507fffffffffffffffffffffffffffffffffffffffffffffffffffffffffffffffff821415613f9957613f98613ff9565b5b600182019050919050565b6000613faf82613fb6565b9050919050565b6000613fc1826140c6565b9050919050565b6000613fd382613eac565b9150613fde83613eac565b925082613fee57613fed614028565b5b828206905092915050565b7f4e487b7100000000000000000000000000000000000000000000000000000000600052601160045260246000fd5b7f4e487b7100000000000000000000000000000000000000000000000000000000600052601260045260246000fd5b7f4e487b7100000000000000000000000000000000000000000000000000000000600052602260045260246000fd5b7f4e487b7100000000000000000000000000000000000000000000000000000000600052604160045260246000fd5b6000601f19601f8301169050919050565b60008160601b9050919050565b7f426f78203a3a204e6f7420596574204163746976652e00000000000000000000600082015250565b7f4552433732313a207472616e7366657220746f206e6f6e20455243373231526560008201527f63656976657220696d706c656d656e7465720000000000000000000000000000602082015250565b7f4f776e61626c653a206e6577206f776e657220697320746865207a65726f206160008201527f6464726573730000000000000000000000000000000000000000000000000000602082015250565b7f4552433732313a207472616e736665722066726f6d20696e636f72726563742060008201527f6f776e6572000000000000000000000000000000000000000000000000000000602082015250565b7f4552433732313a20746f6b656e20616c7265616479206d696e74656400000000600082015250565b7f6100000000000000000000000000000000000000000000000000000000000000600082015250565b7f4552433732313a207472616e7366657220746f20746865207a65726f2061646460008201527f7265737300000000000000000000000000000000000000000000000000000000602082015250565b7f4552433732313a20617070726f766520746f2063616c6c657200000000000000600082015250565b7f426f78203a3a20416c7265616479206d696e74656420332074696d6573210000600082015250565b7f4552433732313a206f70657261746f7220717565727920666f72206e6f6e657860008201527f697374656e7420746f6b656e0000000000000000000000000000000000000000602082015250565b7f426f78203a3a2043616e6e6f74206d696e74206265796f6e642077686974656c60008201527f697374206d6178206d696e742100000000000000000000000000000000000000602082015250565b7f4552433732313a20617070726f76652063616c6c6572206973206e6f74206f7760008201527f6e6572206e6f7220617070726f76656420666f7220616c6c0000000000000000602082015250565b7f426f78203a3a2043616e6e6f742062652063616c6c6564206279206120636f6e60008201527f7472616374000000000000000000000000000000000000000000000000000000602082015250565b7f4552433732313a2062616c616e636520717565727920666f7220746865207a6560008201527f726f206164647265737300000000000000000000000000000000000000000000602082015250565b7f4552433732313a206f776e657220717565727920666f72206e6f6e657869737460008201527f656e7420746f6b656e0000000000000000000000000000000000000000000000602082015250565b7f496e697469616c697a61626c653a20636f6e747261637420697320616c72656160008201527f647920696e697469616c697a6564000000000000000000000000000000000000602082015250565b7f4552433732313a206d696e7420746f20746865207a65726f2061646472657373600082015250565b7f426f78203a3a20596f7520617265206e6f742077686974656c69737465640000600082015250565b7f4552433732313a20617070726f76656420717565727920666f72206e6f6e657860008201527f697374656e7420746f6b656e0000000000000000000000000000000000000000602082015250565b7f426f78203a3a204d696e74696e67206973206f6e205061757365000000000000600082015250565b7f4f776e61626c653a2063616c6c6572206973206e6f7420746865206f776e6572600082015250565b7f4552433732314d657461646174613a2055524920717565727920666f72206e6f60008201527f6e6578697374656e7420746f6b656e0000000000000000000000000000000000602082015250565b7f4552433732313a20617070726f76616c20746f2063757272656e74206f776e6560008201527f7200000000000000000000000000000000000000000000000000000000000000602082015250565b7f4552433732313a207472616e736665722063616c6c6572206973206e6f74206f60008201527f776e6572206e6f7220617070726f766564000000000000000000000000000000602082015250565b7f496e697469616c697a61626c653a20636f6e7472616374206973206e6f74206960008201527f6e697469616c697a696e67000000000000000000000000000000000000000000602082015250565b7f426f78203a3a205061796d656e742069732062656c6f7720746865207072696360008201527f6520000000000000000000000000000000000000000000000000000000000000602082015250565b7f426f78203a3a205061796d656e742069732062656c6f7720746865207072696360008201527f6500000000000000000000000000000000000000000000000000000000000000602082015250565b6147db81613e38565b81146147e657600080fd5b50565b6147f281613e4a565b81146147fd57600080fd5b50565b61480981613e56565b811461481457600080fd5b50565b61482081613e60565b811461482b57600080fd5b50565b61483781613eac565b811461484257600080fd5b5056fea26469706673582212205b084e0ac9c8a8396d66963b65e5ad189a35f13bf7422edc4cf4f7f3d972f87064736f6c63430008040033",
  "linkReferences": {},
  "deployedLinkReferences": {}
}